:020000040800F2
:1080000070F301208986000811DA000889D200087F
:108010000DDA0008818D0008953E0108000000007F
:10802000000000000000000000000000A50C010896
:10803000D38E00080000000061E200084B14010824
:10804000A386000807E20008A3860008A3860008AC
:10805000A3860008A3860008A3860008D58E000822
:10806000A3860008A3860008A3860008A38600084C
:10807000A3860008A3860008A3860008A38600083C
:10808000A3860008A3860008A3860008000000005D
:10809000000000000000000000000000A3860008AF
:1080A000A3860008A3860008A3860008A38600080C
:1080B0006915010879150108A3860008A386000840
:1080C000A3860008A3860008A3860008A3860008EC
:1080D000A3860008A3860008291B010800000000F1
:1080E000A3860008A3860008A386000800000000FD
:1080F000000000000000000000000000A38600084F
:108100000000000021FA0008A3860008A3860008EA
:10811000000000000000000000000000000000005F
:10812000998D0008A3860008A3860008A98D000881
:10813000A38600080000000000000000000000000E
:1081400000000000000000000000000061DF0008E7
:10815000A3860008B98D0008A3860008A38600083E
:10816000A3860008A38600080000000000000000AD
:1081700000000000000000000000000000000000FF
:1081800000000000A38600080000000000000000BE
:10819000A3860008A3860008DFF80CD000F082FB5D
:1081A00000480047FD80010870F301202DE9F05FD1
:1081B000DDF828C0DDF830E0DEF8004030F902AB31
:1081C00004F580590AEB693909F30F0B23F802BB58
:1081D000CBF1000B0FFA8BFBB1F90070DEF8045005
:1081E00007FB0A55B2F9008008FB0B54CEF800409B
:1081F000B1F90270DEF8084007FB0A44B2F90280C8
:1082000008FB0B45CEF80450B1F90470DEF80C50B1
:1082100007FB0A55B2F9048008FB0B54CEF808405E
:10822000B1F90670DEF8104007FB0A44B2F9068087
:1082300008FB0B45CEF80C50B1F90870DEF814506D
:1082400007FB0A55B2F9088008FB0B54CEF8104022
:10825000B1F90A70DEF8184007FB0A44B2F90A8047
:1082600008FB0B45CEF81450B1F90C70DEF81C5029
:1082700007FB0A55B2F90C8008FB0B54CEF81840E6
:10828000B1F90E70DEF8204007FB0A44B2F90E8007
:1082900008FB0B45CEF81C50B1F91070DEF82450E5
:1082A00007FB0A55B2F9108008FB0B54CEF82040AA
:1082B000B1F9127007FB0AF7B2F9128008FB0BF84C
:1082C000B844CEF82480BCF1010C7FF475AFBDE852
:1082D000F09F2DE9F041DDF81CE0DEF8005030F9A8
:1082E000028B05F5805708EB673808F30F0622F874
:1082F000026BC6F1000636B2B1F90070DEF8044038
:1083000007FB0645CEF80050B1F90270DEF80850C0
:1083100007FB0654CEF80440B1F90470DEF80C40B7
:1083200007FB0645CEF80850B1F90670DEF810508C
:1083300007FB0654CEF80C40B1F90870DEF8144083
:1083400007FB0645CEF81050B1F90A70DEF8185058
:1083500007FB0654CEF81440B1F90C70DEF81C404F
:1083600007FB0645CEF81850B1F90E70DEF8205024
:1083700007FB0654CEF81C40B1F91070DEF824401B
:1083800007FB0645CEF82050B1F9127007FB06F73F
:10839000CEF824705B1EA0D1BDE8F0812DE9F0413C
:1083A0004FF000064FF0000330F9024B31F9027B29
:1083B00004FB073330F9025B31F9028B05FB08330C
:1083C00030F9024B31F9027B04FB073330F9025BD1
:1083D00031F9028B05FB083306EBA3164FF00003BF
:1083E00030F9024B31F9027B04FB073330F9025BB1
:1083F00031F9028B05FB083330F9024B31F9027B6E
:1084000004FB073330F9025B31F9028B05FB0833BB
:1084100006EBA3164FF0000330F9024B31F9027B53
:1084200004FB073330F9025B31F9028B05FB08339B
:1084300030F9024B31F9027B04FB073330F9025B60
:1084400031F9028B05FB083306EBA3164FF000034E
:1084500030F9024B31F9027B04FB073330F9025B40
:1084600031F9028B05FB083330F9024B31F9027BFD
:1084700004FB073330F9025B31F9028B05FB08334B
:1084800006EBA3164FF0000330F9024B31F9027BE3
:1084900004FB073330F9025B31F9028B05FB08332B
:1084A00030F9024B31F9027B04FB073330F9025BF0
:1084B00031F9028B05FB083306EBA3164FF00003DE
:1084C00030F9024B31F9027B04FB073330F9025BD0
:1084D00031F9028B05FB083330F9024B31F9027B8D
:1084E00004FB073330F9025B31F9028B05FB0833DB
:1084F00006EBA3164FF0000330F9024B31F9027B73
:1085000004FB073330F9025B31F9028B05FB0833BA
:1085100030F9024B31F9027B04FB073330F9025B7F
:1085200031F9028B05FB083306EBA3164FF000036D
:1085300030F9024B31F9027B04FB073330F9025B5F
:1085400031F9028B05FB083330F9024B31F9027B1C
:1085500004FB073330F9025B31F9028B05FB08336A
:1085600006EBA3164FF0000330F9024B31F9027B02
:1085700004FB073330F9025B31F9028B05FB08334A
:1085800030F9024B31F9027B04FB073330F9025B0F
:1085900031F9028B05FB083306EBA3164FF00003FD
:1085A00030F9024B31F9027B04FB073330F9025BEF
:1085B00031F9028B05FB083330F9024B31F9027BAC
:1085C00004FB073330F9025B31F9028B05FB0833FA
:1085D00006EBA3163046BDE8F08100002DE9F04718
:1085E0004FF00006089A31F9027B31F9028BB0F99D
:1085F0000040B0F9025004FB07F305FB083331F9E2
:10860000027BB0F9044031F9028BB0F9065004FB4B
:10861000073305FB083331F9027BB0F9084031F923
:10862000028BB0F90A5004FB073305FB083331F91C
:10863000027BB0F90C4031F9028BB0F90E5004FB0B
:10864000073305FB083331F9027BB0F9104031F9EB
:10865000028BB0F9125004FB073305FB083352F8C4
:10866000044BC3EB6403012EAEBF73459E46B24676
:10867000761C202EB7DB0A9BC3F800A00B9BC3F827
:1086800000E0BDE8F0870000064880470648004744
:10869000FEE7FEE7FEE7FEE7FEE7FEE7FEE7FEE7B2
:1086A000FEE7FEE705150108998100082DE9F05F56
:1086B0000546002092469B46884606468146402451
:1086C0001BE0284641464746224600F0A3F85346A1
:1086D0005A46C01A914110D311461846224600F05E
:1086E0008AF82D1A67EB01084F4622460120002127
:1086F00000F081F817EB00094E41201EA4F101049F
:10870000DFDC484631462A464346BDE8F09F00007C
:108710000649074A0868504343F23902104408608A
:108720004008704701490860704700005C02002063
:108730006D4EC64110B5431A934209D2831888186A
:1087400003E010F8011D03F8011D521EF9D210BDFF
:1087500040EA01039B0703D009E008C9121F08C0C3
:10876000042AFAD203E011F8013B00F8013B521E43
:10877000F9D210BDD2B201E000F8012B491EFBD2A4
:1087800070470022F6E710B513460A46044619461C
:10879000FFF7F0FF204610BD30B505462A460B46D0
:1087A00012F8010B13F8014B08B1A042F8D01CB12C
:1087B000002802D06D1CF1E7284630BD421C10F89D
:1087C000011B0029FBD1801A7047034611F8012BC9
:1087D00000F8012B002AF9D11846704770B50646FB
:1087E0000BF004FC046805460A220021304600F024
:1087F00021F82C6070BD202A04DB203A00FA02F137
:10880000002070479140C2F1200320FA03F319437E
:1088100090407047202A04DB203A21FA02F0002120
:10882000704721FA02F3D040C2F120029140084380
:10883000194670472DE9F04791460F468046044699
:10884000002614F8015B2DB100F03EF80068405D91
:10885000C007F6D12B2D02D02D2D18D0641E4A460C
:108860003946204600F034F827B13968A14201D1D9
:10887000C7F8008071054FF002040BD54042002874
:1088800003DD0BF0B3FB0460A007BDE8F08746F4FE
:108890008066E4E70028F8DA0BF0A8FB04606FF0CC
:1088A0000040F2E7064C074D06E0E06840F00103A7
:1088B00094E8070098471034AC42F6D3FFF770FCF9
:1088C000CCAD0308ECAD03080048704778AD030851
:1088D0002DE9F05F82460078002715468B460AF1A5
:1088E0000104B946302801D09DB113E014F8010B02
:1088F0000127782803D0582801D045B10AE00DB1EE
:10890000102D07D10027102514F8010B02E00825CF
:1089100000E00A250026B0460EE005FB080005FB36
:1089200006F1012701EB10461FFA80F8B6F5803FEB
:1089300000D3B94614F8010B294600F018F80028B6
:10894000EBDABBF1000F05D00FB1641E00E0544616
:10895000CBF80040B9F1000F06D00BF047FB022125
:108960000160C81EBDE8F09F48EA0640FAE73A28D1
:1089700000D2303820F02002412A01D3A2F1370082
:10898000884201D34FF0FF30704770B58C1810F853
:10899000015B15F0070301D110F8013B2A1106D144
:1089A00010F8012B03E010F8016B01F8016B5B1E5E
:1089B000F9D12B0705D40023521E0DD401F8013B39
:1089C000FAE710F8013BCB1A921C03E013F8015BA5
:1089D00001F8015B521EF9D5A142D8D3002070BD29
:1089E0002DE9F041DDF81CE0DEF8004030F9026BC3
:1089F00004F5805806EB683808F30F0722F8027B6D
:108A0000B1F90070DEF8045007FB0654CEF80040C0
:108A1000B1F90270DEF8084007FB0645CEF80450B5
:108A2000B1F90470DEF80C5007FB0654CEF808408C
:108A3000B1F90670DEF8104007FB0645CEF80C5081
:108A4000B1F90870DEF8145007FB0654CEF8104058
:108A5000B1F90A70DEF8184007FB0645CEF814504D
:108A6000B1F90C70DEF81C5007FB0654CEF8184024
:108A7000B1F90E70DEF8204007FB0645CEF81C5019
:108A8000B1F91070DEF8245007FB0654CEF82040F0
:108A9000B1F9127007FB06F7CEF824705B1EA3D164
:108AA000BDE8F08170B50546AC6B206C00F050005D
:108AB00050BB206C40F4007020642068806800F097
:108AC0004050E8B9207ED8B92068C06A00F4700030
:108AD00020B12068806800F4806088B92068406810
:108AE00020F0200021684860206C20F48070206411
:108AF000206C00F4805018B9206C40F00100206414
:108B0000204600F07DFC0BE0206C00F0100018B156
:108B1000204600F091FC03E0A06BC16C284688471A
:108B200070BD70B50546AC6B40202064606C40F0B1
:108B300004006064204600F07FFC70BD70B5044600
:108B4000A56B284600F06AFC70BD000055494A68D4
:108B500022F440324A604A6843681A434A60026815
:108B6000526822F4807203685A600268536802698E
:108B700043EA022203685A600268526822F0407297
:108B800003685A600268526883681A4303685A602F
:108B90000268926822F4006203689A600268926830
:108BA000C3681A4303689A603F4B826A9A4218D09E
:108BB0000268926822F0706203689A6002689268A4
:108BC000836A1A4303689A600268926822F04052EE
:108BD00003689A6002689268C36A1A4303689A60DD
:108BE0000BE00268926822F0706203689A60026883
:108BF000926822F0405203689A600268926822F0FC
:108C0000020203689A6002689368027E43EA4202A5
:108C100003689A602022125CA2B10268526842F492
:108C2000006203685A600268526822F46042036876
:108C30005A6002685368426A521E43EA423203682D
:108C40005A6005E00268526822F4006203685A60C4
:108C50000268D26A22F470020368DA620268D36A98
:108C6000828B521E43EA02520368DA6202689268FB
:108C700022F4007203689A600268936890F83020CA
:108C800043EA422203689A600268926822F4806292
:108C900003689A6002689368426943EA8222036823
:108CA0009A607047002301400100000F70470000E8
:108CB00010B504462146024802F0E8FE10BD00004F
:108CC0001803002010B5044802F0F3FE042801D078
:108CD000012010BD0020FCE71803002010B500247F
:108CE00000F014F8012801D0012010BD064803F05F
:108CF00001F8044634B94FF40061034802F08CFDDA
:108D000000B101242046F0E71803002008B5012037
:108D100000909DF8000008BD2DE9F04104460D4685
:108D20001646002733462A462146044803F06AFACD
:108D300000B101273846BDE8F0810000180300208B
:108D40000120014908607047540000202DE9F041DE
:108D500004460D461646002733462A462146044857
:108D600003F02EFC00B101273846BDE8F081000079
:108D700018030020012001490860704750000020BE
:108D800000BFFEE70246002000BF02E000231354AC
:108D9000401C8842FADB704710B5024800F02EFDF7
:108DA00010BD0000B802002010B5024800F026FDFA
:108DB00010BD00009C03002010B5024800F01EFD0D
:108DC00010BD0000FC03002001460878103818236D
:108DD000B0FBF3F20848805CC865032A05D908682F
:108DE0006FF30900001D886503E008686FF3090050
:108DF0008865886D7047000074ED01080146002009
:108E00008A6A8B69CBB932B1012A0DD0022A03D00C
:108E1000032A10D10EE000BFCB6A03F08073B3F1D8
:108E2000807F00D1012007E0CB6AB3F1C07F00D181
:108E3000012001E000E000BF34E08B69B3F5005F82
:108E40001AD132B1012A07D0022A03D0032A11D144
:108E50000AE000BF01200EE0CB6A03F08073B3F19B
:108E6000807F00D1012006E0CB6AB3F1C07F00D142
:108E7000012000E000BF15E032B1012A05D0022A2E
:108E800004D0032A0CD103E000BF00BF012008E09A
:108E9000CB6A03F08073B3F1807F00D1012000E042
:108EA00000BF00BF704730B50468246824F48024F4
:108EB00005682C60046863608468402C04D10468F1
:108EC000A2600468E16003E00468A1600468E260F5
:108ED00030BD704710B5022000F0F8FF10BD70479C
:108EE00030B504460D4600222946204600F002F81F
:108EF00030BD0000F0B50346012500241148407A3A
:108F000001281CDA00200F4E767A0E4FB8553846ED
:108F1000467A001D40F82630001F467A08308255F8
:108F20003E46707A461C7E72044604F1300008709A
:108F30003A2048702F2088700020C87000252846ED
:108F4000F0BD00006063012010B5002201B909E006
:108F5000012901D10A0205E0022901D10A0201E03A
:108F60004FF440720E4B1B6823F440730C4C23608B
:108F700023461B681343236023461B6823F0F80332
:108F8000236023461B68022444EAC0042343044CA4
:108F9000236023461B6843F48033236010BD000028
:108FA000103C02401C48006800F40070B0B11A4840
:108FB000006820F400701849086000BF0846006887
:108FC00040F4006008600846006820F40060086013
:108FD00000BF0846006840F4007008600E48006852
:108FE00000F48060B0B10C48006820F480600A4949
:108FF000086000BF0846006840F4805008600846DA
:10900000006820F48050086000BF0846006840F403
:109010008060086070470000003C02400A4A126805
:1090200022F44072084B1A601A46126842F0040299
:109030001A601A4612684FF4803343EA00231A4339
:10904000014B1A6070470000103C0240074A12684A
:1090500022F44072054B1A601A4612681A601A46CA
:10906000126842F001021A6001707047103C024021
:1090700010B50D49096821F440710B4C216021465F
:10908000096841F4407121602146096841F00101FD
:109090002160026000BF00BF00BFBFF36F8F00BF41
:1090A00000BF00BF436010BD103C0240084A126878
:1090B00022F44072064B1A601A46126842F480721B
:1090C0001A601A46126842F001021A600180704765
:1090D000103C0240084A126822F44072064B1A60A3
:1090E0001A46126842F400721A601A46126842F078
:1090F00001021A6001607047103C02402A48006873
:1091000000F0100040B12948C06940F01000274924
:10911000C8611020244908602348006800F020003E
:1091200040B12248C06940F008002049C8612020B1
:109130001D4908601C48006800F0400040B11B4811
:10914000C06940F004001949C86140201649086010
:109150001548006800F0800040B11448C06940F034
:1091600002001249C86180200F4908600E4800685B
:1091700000F4807048B10D48C06940F001000B490F
:10918000C8614FF48070084908600748006800F023
:10919000020040B10548C06940F020000349C861A1
:1091A00002200149086070470C3C0240F421002075
:1091B00070B50446002500201449C86100F096FFF0
:1091C000054609E0601C38B124B100F08FFF401B58
:1091D000A04201D9032070BD0D48006800F4803022
:1091E0000028EFD10A48006800F0010010B101200A
:1091F000074908600648006800F4F97018B1FFF7E5
:109200007DFF0120E7E70020E5E70000F4210020D2
:109210000C3C024010B501221021024800F05FFF13
:1092200010BD00000000024070B50A480468001D2F
:109230000568001D0668344454B1082206492046DA
:1092400004F024F8042204491031284604F01EF8E2
:1092500070BD0000107AFF1F9600002038B502464E
:109260000020009000BF92F83C00012801D10220AC
:1092700038BD012082F83C0000BF0868092816D9D3
:109280001068C0680C780A3C04EB44050724AC4025
:10929000A0431468E0600C780A3C04EB440488683E
:1092A000A0401468E46820431468E06013E010688C
:1092B00000690C7804EB44050724AC40A043146813
:1092C00020610C7804EB44048868A0401468246989
:1092D0002043146820614868072817D21068406B43
:1092E0000C79641E04EB84051F24AC40A043146871
:1092F0006063088880B20C79641E04EB8404A0408B
:109300001468646B20431468606331E048680D287A
:1093100017D21068006B0C79E41F04EB84051F243E
:10932000AC40A04314682063088880B20C79E41F25
:1093300004EB8404A0401468246B20431468206369
:1093400016E01068C06A0C790D3C04EB84051F24FC
:10935000AC40A0431468E062088880B20C790D3CF0
:1093600004EB8404A0401468E46A20431468E062BB
:109370001E4B1F4C1068A0420AD10868122807D162
:10938000586820F400005860586840F48000586025
:10939000174C1068A04222D1164C0868A04202D097
:1093A000086811281BD1586820F48000586058685C
:1093B00040F4000058600F4C0868A0420FD10E48DE
:1093C00000680E4CB0FBF4F000EB80004000009011
:1093D00002E00098401E009000980028F9D100BFDC
:1093E000002082F83C0000BF00BF41E7002301409D
:1093F0000020014012000010E000002040420F0059
:1094000010B504464FF480620249034815F0EEFBA4
:1094100010BD0000BC2A0020A026002010B5044684
:109420004FF480620249034815F0E0FB10BD0000D4
:10943000BC260020A02600207047000070B504461E
:1094400000250CB9012070BD1549A06A884200D0E2
:1094500000BF206C30B9204600F024F80020606482
:1094600084F83C00206C00F0100088B9206C20F4D7
:10947000885040F0020020642046FFF767FB002080
:109480006064206C20F0020040F00100206400E0E5
:10949000012500BF002084F83C0000BF2846D2E729
:1094A0000100000F10B586B00446142101A8FFF793
:1094B00068F92949206888424CD100BF00200090FB
:1094C0002648006840F48070244908600846006817
:1094D00000F48070009000BF00BF00BF002000902B
:1094E0001E481438006840F001001C491439086017
:1094F0000846006800F00100009000BF00BF022095
:109500000190032002900020039001A9144800F06C
:10951000EBFC144814490860002048600021124800
:109520008160C1604FF4806101614900416189003F
:1095300081614911C1614FF44031016200214162F2
:1095400000F07CFA08B1FFF7CAFC00BF0648A06330
:10955000846300BF06B010BD0020014044380240C3
:109560000000024010640240B8020020F8B5044632
:109570000D4616460020009000BF94F83C000128DC
:1095800001D10220F8BD012084F83C0000BF206812
:10959000806800F00100A0B92068806840F00100F8
:1095A000216888603D4800683D49B0FBF1F000EB60
:1095B0004000009002E00098401E009000980028B3
:1095C000F9D12068806800F00100002864D0206C88
:1095D00040F20161884340F4807020642068406854
:1095E00000F4806028B1206C20F4005040F48050DA
:1095F0002064206C00F48050B0F5805F04D1606C72
:1096000020F00600606401E00020606400BF0020DC
:1096100084F83C0000BF234F2348A16BC863234854
:10962000A16B08642248A16BC8646FF02200216816
:1096300008602068406840F08060216848602068C9
:10964000806840F4807021688860226802F14C01D3
:1096500033462A46A06B00F067FA786800F01F00D6
:1096600058B92068806800F0405028B920688068A8
:1096700040F08040216888600EE00E4920688842F2
:109680000AD12068806800F0405028B920688068BE
:1096900040F0804021688860002073E7E0000020EF
:1096A00040420F0000230140A58A00083D8B0008BE
:1096B000238B00080020014070B50446002500BF40
:1096C00094F83C00012801D1022070BD012084F8EB
:1096D0003C0000BF2068806820F00100216888609D
:1096E0002068806800F00100A8B92068806820F434
:1096F000807021688860A06B00F014F8054620682F
:10970000406820F0806021684860206C20F4885018
:1097100040F00100206400BF002084F83C0000BF3E
:109720002846D2E770B50446A56D00F0DFFC06467A
:1097300094F83500022808D08020606500BF002022
:1097400084F8340000BF012070BD2068006820F05C
:109750001600216808602068406920F080002168B8
:109760004861206C08B9A06C28B12068006820F01E
:109770000800216808602068006820F00100216866
:1097800008600FE000F0B2FC801B05280AD92020F9
:10979000606500BF002084F8340000BF032084F817
:1097A0003500D1E72068006800F001000028E9D109
:1097B00094F85C103F208840A86000BF002084F827
:1097C000340000BF012084F835000020BCE70146CA
:1097D00091F83500022803D08020486501207047A9
:1097E000052081F835000868006820F001000A684B
:1097F00010600020F3E70146486D7047F8B5044655
:10980000002000908C4800684FF41651B0FBF1F72F
:10981000A56D2E6894F85C1008208840304098B1FF
:109820002068006800F0040070B12068006820F033
:1098300004002168086094F85C1008208840A86043
:10984000606D40F00100606594F85C100120884074
:10985000304068B12068406900F0800040B194F861
:109860005C1001208840A860606D40F002006065D7
:1098700094F85C1004208840304068B1206800688B
:1098800000F0020040B194F85C1004208840A86009
:10989000606D40F00400606594F85C101020884012
:1098A000304078B32068006800F0080050B394F8A6
:1098B0005C1010208840A8602068006800F48020B8
:1098C00080B12068006800F4002028B9206CC8B17D
:1098D0002046216C884715E0A06C98B12046A16C09
:1098E00088470FE02068006800F4807028B920687D
:1098F000006820F0080021680860206C10B1204644
:10990000216C884794F85C10202088403040002863
:1099100065D02068006800F0100000285FD094F83F
:109920005C1020208840A86094F83500052828D1D4
:109930002068006820F016002168086020684069EF
:1099400020F0800021684861206C08B9A06C28B123
:109950002068006820F008002168086094F85C1016
:109960003F208840A86000BF002084F8340000BF7A
:10997000012084F83500206D10B12046216D884704
:10998000F8BD2068006800F4802080B1206800687D
:1099900000F4002028B9606C10B12046616C884743
:1099A0001DE0E06BD8B12046E16B884717E02068E6
:1099B000006800F4807068B92068006820F010002A
:1099C0002168086000BF002084F8340000BF012037
:1099D00084F83500E06B10B12046E16B8847606D7C
:1099E00038B3606D00F00100F0B1052084F8350057
:1099F0002068006820F001002168086000BF00981E
:109A0000401C0090B84200D905E02068006800F0D2
:109A100001000028F3D100BF00BF002084F834000B
:109A200000BF012084F83500E06C10B12046E16CE5
:109A3000884700BFA4E70000E00000202DE9F041C6
:109A40000446002500F052FB074614B90120BDE88A
:109A5000F081606A00B100BF00BF002084F83400CC
:109A600000BF022084F835002068006820F0010063
:109A7000216808600AE000F039FBC01B052805D901
:109A800020206065032084F83500E0E72068006846
:109A900000F001000028EED120680568214805404B
:109AA000D4E901010843E168084321690843616979
:109AB0000843A1690843E1690843216A0843054353
:109AC000606A042803D1D4E90B01084305432068E8
:109AD00005602068456925F00705606A0543606AEE
:109AE00004280DD1A06A0543E06A48B12046FFF77B
:109AF00085F928B140206065012084F83500A6E78B
:109B0000206845612046FFF75FF9064694F85C102F
:109B10003F208840B06000206065012084F8350057
:109B2000002094E73F8010F02DE9F04704460D46F1
:109B300016461F464FF00008D4F8589000BF94F81E
:109B40003400012802D10220BDE8F087012084F80A
:109B5000340000BF94F83500012825D1022084F894
:109B60003500002060653B46324629462046FFF717
:109B70009AF994F85C103F208840C9F808002068E2
:109B8000006840F0160021680860206C28B1206849
:109B9000006840F00800216808602068006840F014
:109BA00001002168086006E000BF002084F834004E
:109BB00000BF4FF002084046C6E7000070B50446FB
:109BC00000F094FA06462546681C10B10448007857
:109BD000054400BF00F08AFA801BA842FAD370BD8A
:109BE000DC0000202DE9F04104460E460127002547
:109BF00000BF2548007E012802D10220BDE8F08187
:109C000001202149087600BF4CF25030FFF7D0FA0E
:109C10000746002F31D1401E3060206801280FD147
:109C2000207C6168FFF7FAF94CF25030FFF7C0FA78
:109C300007461648006820F00400144908601AE03E
:109C4000A56812E0217C2846FFF77EF94CF25030DF
:109C5000FFF7AEFA07460D48006820F0FA000B49FE
:109C600008600FB1356005E06D1CD4E902100844AE
:109C7000A842E7D800BFFFF795F900BF00200249CE
:109C8000087600BF3846B9E7F4210020103C0240B6
:109C90000348006840F00040014908600020704718
:109CA000103C02402DE9F04106460F4614461D4681
:109CB0004FF0010800BF1F48007E012802D102209A
:109CC000BDE8F08101201B49087600BF4CF25030FE
:109CD000FFF76EFA8046B8F1000F23D126B9E1B242
:109CE0003846FFF7B3F912E0012E04D1A1B238468D
:109CF000FFF7DCF90BE0022E04D121463846FFF7CE
:109D0000E9F904E022462B463846FFF7B1F94CF258
:109D10005030FFF74DFA80460748006820F00100F8
:109D20000549086000BF00200249087600BF404690
:109D3000C6E70000F4210020103C02400020094941
:109D4000096801F0004159B10749064A0C3A11600F
:109D5000064911600349096801F0004101B1012081
:109D600070470000103C024023016745AB89EFCDEE
:109D7000F0B50C46002500220023002181E00126D9
:109D800006FA01F504EA0502AA4279D13F4E8F088E
:109D900056F827308E07370F0F26BE4033403C4E13
:109DA000B04201D1002614E03A4EB04201D1012662
:109DB0000FE0394EB04201D102260AE0374EB042E0
:109DC00001D1032605E0364EB04201D1042600E061
:109DD00007268F073F0FBE409E4222D1314E366884
:109DE0009643304F3E603E1D366896433F1D3E60B1
:109DF0003E1D366896433F1D3E603E1D36689643C5
:109E00003F1D3E608E07370F0F2606FA07F31F4EE1
:109E10008F0856F827609E431C4F4FEA910C47F875
:109E20002C6006684FEA410C032707FA0CF7BE4383
:109E30000660CF0800F1200656F827604F074FEA6A
:109E4000D76C0F2707FA0CF7BE434FEAD10C00F18D
:109E5000200747F82C60C6684FEA410C032707FA31
:109E60000CF7BE43C660466801278F40BE4346607C
:109E700086684FEA410C032707FA0CF7BE43866059
:109E8000491C1029FFF47BAFF0BD000008380140E9
:109E9000000002400004024000080240000C0240A2
:109EA00000100240003C014010B50446054800780F
:109EB000012806D100220121034800F010F900BF5B
:109EC000FEE710BD000000200004024010B504466B
:109ED00004480068204020B1024804602046FFF793
:109EE000E3FF10BD143C0140F8B503460A460025C7
:109EF000002400200021CDE0012606FA01F51668B5
:109F000006EA0504AC4273D15668012E08D05668A3
:109F1000022E05D05668112E02D05668122E13D18B
:109F200098684F000326BE40B0434F00D668BE403D
:109F300030439860586801268E40B0431679C6F3C6
:109F400000168E4030435860D8684F000326BE404C
:109F5000B0434F009668BE403043D8605668022E2A
:109F600002D05668122E13D1CF0803F1200656F8FE
:109F700027004E07F70E0F26BE40B0434F07FF0ED7
:109F80001669BE403043CF0803F1200646F827008B
:109F900018684F000326BE40B043167906F003064A
:109FA0004F00BE4030431860566806F08056B6F148
:109FB000805F6ED100BF00260096384E366846F4AA
:109FC0008046364F3E603E46366806F48046009630
:109FD00000BF00BF324E8F0856F827008E07370F9C
:109FE0000F26BE40B0432F4EB34202D1002615E0EB
:109FF0004FE02D4EB34201D101260FE02B4EB3426C
:10A0000001D102260AE02A4EB34201D1032605E01F
:10A01000284EB34201D1042600E007268F073F0FE8
:10A02000BE4030431E4E8F0846F82700224E30684F
:10A03000A043566806F48036B6F5803F00D1204331
:10A040001D4E3060361D3068A043566806F4003659
:10A05000B6F5003F00D12043174E361D3060361D47
:10A060003068A043566806F48016B6F5801F00D10C
:10A070002043114E08363060361D3068A0435668C4
:10A0800006F40016B6F5001F00D120430A4E0C3628
:10A090003060491C1029FFF42FAFF8BD443802404E
:10A0A000083801400000024000040240000802405D
:10A0B000000C024000100240003C014002461369BF
:10A0C0000B400BB1012000E00020704742690A40BC
:10A0D0008A4202D10A04826100E0816170470AB1BC
:10A0E000816101E00B048361704700000148006852
:10A0F00070470000D400002001480068704700004D
:10A10000107AFF1F0148006870470000147AFF1F93
:10A110000148006870470000187AFF1F0348006874
:10A12000034909780844014908607047D4000020B9
:10A13000DC00002010B50D48006840F400700B49A9
:10A1400008600846006840F48060086008460068BF
:10A1500040F480700860032000F0C4F8002000F094
:10A1600007F800F02BF8002010BD0000003C024072
:10A1700070B504460E4800784FF47A71B1FBF0F0E8
:10A180000C490968B1FBF0F5284602F082FC08B1E1
:10A19000012070BD102C07D200222146501E00F075
:10A1A00063F80548046001E00120F2E70020F0E7D1
:10A1B000DC000020E0000020D800002008B500BF2F
:10A1C000002000900E48006840F480400C49086070
:10A1D0000846006800F48040009000BF00BF00BF48
:10A1E00000200090081F006840F08050091F0860A0
:10A1F0000846006800F08050009000BF00BF08BD16
:10A200004438024010B501460846002817DB00F02C
:10A210001F0301229A400B4B440943F8242000BF3E
:10A2200000BF00BFBFF34F8F00BF00BF00BF00BF24
:10A2300000BF00BFBFF36F8F00BF00BF00BF00BFF4
:10A2400010BD000080E100E001460846002809DB5F
:10A2500000F01F0301229A4043099B0003F1E02311
:10A26000C3F8002100BF70472DE9F05F80460D461E
:10A270001646002709F09EFE074639462A46334611
:10A2800001F00700C0F1070ABAF1040F02D94FF03C
:10A29000040A01E0C0F1070AD14600F1040ABAF14C
:10A2A000070F02D24FF0000A01E0A0F1030AD446E2
:10A2B0004FF0010A0AFA09FAAAF1010A0AEA020AA7
:10A2C0000AFA0CFA4FF0010B0BFA0CFBABF1010B85
:10A2D0000BEA030B4AEA0B042146404609F072FEE2
:10A2E000BDE8F09F00BF00F00702064B19684FF66B
:10A2F000FF031940044B0B4343EA0221014B196051
:10A3000000BF70470CED00E00000FA057047024600
:10A310001068416200207047F0B503461546186882
:10A32000446A21B944EA05401E68B06219E0186821
:10A33000806A04EB1044002208E0186800F582707F
:10A3400050F8220004EB1044501CC2B2481E904248
:10A35000F3D844EA0547186800F582704E1E40F8AD
:10A3600026700020F0BD10B50446D4F8040408F0AF
:10A3700077F810BD70B504460D46C5EBC50304F172
:10A380003C0101EB8301CA682946D4F8040407F0B4
:10A390009CFF70BD70B504460D46C5EBC50304F5C2
:10A3A000FE7101EB8301CA682946D4F8040407F062
:10A3B000FFFF70BD10B504460CB9012010BD03208D
:10A3C00084F8BD03206809F019FD08B10120F5E704
:10A3D000204600F003FD002084F8BD0300BFEDE738
:10A3E00010B50446D4F8040408F03DF810BD70B56B
:10A3F00004460E4606F0800080280AD106F00F00C1
:10A40000C0EBC00104F13C0000EB81050120687045
:10A4100009E006F00F00C0EBC00104F5FE7000EB90
:10A4200081050020687006F00F00287000BF94F8C6
:10A43000BC03012801D1022070BD012084F8BC03B7
:10A4400000BF2946206808F071FE00BF002084F894
:10A45000BC0300BF00BFEFE770B504460E4606F030
:10A460000F006168884201D9012070BD06F08000AC
:10A4700080280AD106F00F00C0EBC00104F13C00B7
:10A4800000EB81050120687009E006F00F00C0EBC9
:10A49000C00104F5FE7000EB81050020687000200B
:10A4A000A87006F00F00287000BF94F8BC030128C4
:10A4B00001D10220D9E7012084F8BC0300BF29465E
:10A4C000206809F019F900BF002084F8BC0300BF20
:10A4D00000BFCAE770B504460D4600BF94F8BC0340
:10A4E000012801D1022070BD012084F8BC0300BF07
:10A4F00005F08000802805D105F00F01206809F0E3
:10A500004FFB02E0206809F035FB00BF002084F813
:10A51000BC0300BF00BFE6E7024601F00F00C0EB3E
:10A52000C00302F5FE7000EB8300806970472DE9DF
:10A53000F04705460E4690461F464FF0000906F0CC
:10A54000800080280AD106F00F00C0EBC00105F1A1
:10A550003C0000EB81040120607009E006F00F0070
:10A56000C0EBC00105F5FE7000EB810400206070B7
:10A5700006F00F002070C4F80880E770607808B11A
:10A580002078E080022F01D10020207100BF95F8D3
:10A59000BC03012802D10220BDE8F087012085F824
:10A5A000BC0300BF2146286808F0DCFC00BF002087
:10A5B00085F8BC0300BF4846EEE72DE9F0410446AC
:10A5C0000E461746984606F00F00C0EBC00104F592
:10A5D000FE7000EB8105EF60C5F814800020A861D3
:10A5E000687006F00F0028702069012800D12F61E3
:10A5F00006F00F0028B9227C2946206808F058FF91
:10A6000004E0227C2946206809F00AF90020BDE810
:10A61000F08170B504460D4605F00F006168884270
:10A6200001D9012070BD05F0800080280AD105F015
:10A630000F00C0EBC00104F13C0000EB81060120DB
:10A64000707007E0C5EBC50104F5FE7000EB8106F4
:10A65000002070700120B07005F00F00307000BF56
:10A6600094F8BC03012801D10220DBE7012084F823
:10A67000BC0300BF3146206809F085F805F00F00E3
:10A6800028B9217C04F57172206808F0FDFF00BF35
:10A69000002084F8BC0300BF00BFC3E72DE9F041F0
:10A6A00004460E461746984606F00F00C0EBC00160
:10A6B00004F13C0000EB8105EF60C5F81480002038
:10A6C000A8610120687006F00F0028702069012839
:10A6D00000D12F6106F00F0028B9227C294620689E
:10A6E00008F0E6FE04E0227C2946206809F098F88C
:10A6F0000020BDE8F0812DE9FE4F0446206802905D
:10A70000029D206809F077FA00287DD1206809F0C1
:10A71000B1FA08B9BDE8FE8F206809F0ABFA00F085
:10A720000200022805D12068406900F0020021687B
:10A730004861206809F09EFA00F01000102846D108
:10A740002068806920F01000216888610298D0F8A4
:10A75000209009F00F00C0EBC00104F5FE7000EB83
:10A76000810BC9F3434002281AD147F6F07009EA79
:10A77000000030B3C9F30A12DBF80C10029809F09C
:10A780007EFAC9F30A11DBF80C000844CBF80C0080
:10A79000C9F30A11DBF818000844CBF8180010E0E0
:10A7A000C9F3434006280CD1082204F571710298C0
:10A7B00009F065FAC9F30A11DBF818000844CBF870
:10A7C00018002068806940F01000216888612068C6
:10A7D00009F050FA00F40020B0F5002F52D1002605
:10A7E000206809F017FA824649E00AF00100E8B350
:10A7F000F1B2206809F031FA804608F0010058B142
:10A80000012105F5306000E021E200EB4610816097
:10A810003146204603F0DEFB08F00800082809D185
:10A82000082105F5306000EB461081603146204676
:10A8300003F09EFB08F01000102805D1102105F54B
:10A84000306000EB4610816008F02000202805D120
:10A85000202105F5306000EB4610816008F40050BF
:10A86000B0F5005F08D14FF4005100E004E005F5B9
:10A87000306000EB46108160761C4FEA5A0ABAF14C
:10A88000000FB2D1206809F0F5F900F48020B0F58E
:10A89000802F7ED1206809F0B3F98246002683E03C
:10A8A0000AF0010000287CD0F1B2206809F0BCF960
:10A8B000804608F00100F0B306F00F010120884047
:10A8C000019040F634004159019821EA000040F619
:10A8D00034014851012105F5106000EB46108160FC
:10A8E0002069012824D1C6EBC60104F13C0000EB2D
:10A8F0008100C6EBC602C16804F13C0000EB820097
:10A9000080680144C6EBC60204F13C0000EB820003
:10A91000C1606EB9C6EBC60104F13C0000EB8100DA
:10A92000406928B904F571720121206808F0ACFE75
:10A93000F1B2204600E001E0FFF71CFD08F008003E
:10A94000082805D1082105F5106000EB461081604C
:10A9500008F01000102805D1102105F5106000EB5B
:10A960004610816008F04000402805D1402105F5DF
:10A97000106000EB4610816008F00200022805D14B
:10A98000022105F5106000EB4610816008F08000A0
:10A9900001E00DE005E0802803D13146204603F0B8
:10A9A000D7FB761C4FEA5A0ABAF1000F7FF478AF52
:10A9B000206809F05FF900F00040B0F1004F1CD1B1
:10A9C00040F60400405920F0010140F604004151D6
:10A9D00094F8F403012807D1002084F8F40300213F
:10A9E0002046FFF793FC02E0204600F077FA20684B
:10A9F000406900F0004021684861206809F03AF998
:10AA000000F40060B0F5006F0ED140F60800405928
:10AA100000F0010010B1204600F0E0FA2068406923
:10AA200000F4006021684861206809F023F900F40F
:10AA30008050B0F5805F7DD140F60400405920F091
:10AA4000010140F6040041511021206809F0A8F8E6
:10AA500000273EE04FF67F3105F5106000EB471010
:10AA6000816005F5106000EB4710006820F40011CC
:10AA700005F5106000EB4710016005F5106000EB74
:10AA80004710006840F0006105F5106000EB4710CA
:10AA900001604FF67F3105F5306000EB47108160B3
:10AAA00005F5306000EB4710006820F4001105F553
:10AAB000306000EB4710016005F5306000EB471097
:10AAC000006840F0006105F5306000EB4710016060
:10AAD0007F1C6068B842BDD840F61C00405940F069
:10AAE000011140F61C004151206B70B1D5F884086B
:10AAF00040F00B01C5F8841840F64400405940F07E
:10AB00000B0140F6440041510FE040F6140040595B
:10AB100042F22B01084340F614014851081F4059E6
:10AB200040F00B014FF401604151D5F8000820F4CA
:10AB3000FE6000E00DE0C5F80008217C04F57172AC
:10AB4000206808F0A1FD2068406900F48050216869
:10AB50004861206809F08EF800F40050B0F5005FFD
:10AB600017D1206808F066FA206809F031F8E06033
:10AB700000F08AFB0090227B2068009909F0CAF857
:10AB8000204600F099F92068406900F400502168DF
:10AB90004861206809F06EF800F00800082808D124
:10ABA000204600F0A2F92068406900F00800216802
:10ABB0004861206809F05EF800F48010B0F5801F4D
:10ABC0000AD100263146204600F043F8206840694B
:10ABD00000F4801021684861206809F04BF800F407
:10ABE0000010B0F5001F0AD100263146204600F0C3
:10ABF00039F82068406900F4001021684861206835
:10AC000009F038F800F08040B0F1804F08D12046BC
:10AC1000FFF7A9FB2068406900F080402168486187
:10AC2000206809F027F800F0040004280FD12068FC
:10AC3000D0F8049009F00400042802D12046FFF760
:10AC4000CFFB2068406840EA09002168486000BFE7
:10AC500060E570B504460D462946D4F8040407F0B3
:10AC60007FFC70BD70B504460D462946D4F8040437
:10AC700007F079FC70BD70B58AB0044614B90120A4
:10AC80000AB070BD266894F8BD0328B9002084F886
:10AC9000BC03204600F0BCF8032084F8BD03F06B31
:10ACA00000F4807008B900212161206808F0F8FBE9
:10ACB000282204F110016846FDF73CFD94E80F00DE
:10ACC00008F0CCF920B1022084F8BD030120D7E7B9
:10ACD0000021206808F0E4FF002531E00121C5EBE8
:10ACE000C50204F13C0000EB82004170C5EBC501D8
:10ACF00004F13C0000F82150C5EBC50100EB8100D8
:10AD0000C5800021C5EBC50204F13C0000EB8200C8
:10AD1000C170C5EBC50204F13C0000EB820081600C
:10AD2000C5EBC50204F13C0000EB8200C160C5EB3D
:10AD3000C50204F13C0000EB82004161681CC5B211
:10AD40006068A842CAD800252AE00021C5EBC502E8
:10AD500004F5FE7000EB82004170C5EBC50104F5FF
:10AD6000FE7000F821500021C5EBC50200EB820007
:10AD7000C170C5EBC50204F5FE7000EB8200816076
:10AD8000C5EBC50204F5FE7000EB8200C160C5EBA7
:10AD9000C50204F5FE7000EB82004161681CC5B27B
:10ADA0006068A842D1D8282204F110016846FDF756
:10ADB000C1FC94E80F0008F083FA20B1022084F867
:10ADC000BD0301205CE7002084F83800012084F8EE
:10ADD000BD03206808F062FA002051E710B5044670
:10ADE0002068B0F1A04F0DD10748006820F0800026
:10ADF000054908604FF4C0510448FEF7B9FF4320ED
:10AE0000FFF700FA10BD0000343802400000024095
:10AE100010B586B00446142101A8FDF7B2FC2068E5
:10AE2000B0F1A04F42D100BF002000902048006840
:10AE300040F001001E4908600846006800F001006B
:10AE4000009000BF00BF4FF4C0500190022002905C
:10AE500000200390032004900A20059001A91548C2
:10AE6000FFF742F800BF1248001D006840F0800064
:10AE70000F49091D086000BF002000900C481430E5
:10AE8000006840F480400A491431086008460068B0
:10AE900000F48040009000BF00BF00BF00221146B8
:10AEA0004320FFF7E1F94320FFF7CEF906B010BDCC
:10AEB000303802400000024070B504460125E068C9
:10AEC000022801D0FEF70BF82946D4F8040407F055
:10AED000C6FBD4F8040407F079FB70BD10B5044636
:10AEE000D4F8040407F09FFB10BD10B50446D4F855
:10AEF000040407F0A3FB10BD70B504460D4600BF67
:10AF000094F8BC03012801D1022070BD012084F80F
:10AF1000BC0300BF84F838502946206808F0DBFEE7
:10AF200000BF002084F8BC0300BF00BFEDE710B5F0
:10AF3000044604F57171D4F8040407F0A7FB10BDB2
:10AF400070B50446256800BF94F8BC03012801D100
:10AF5000022070BD012084F8BC0300BFA06A012854
:10AF600006D1A069012803D0A86B40F48030A86303
:10AF7000206808F0F7FD206808F07EF900BF002087
:10AF800084F8BC0300BF00BFE3E770B50446256842
:10AF900000BF94F8BC03012801D1022070BD01203C
:10AFA00084F8BC0300BF206808F07AFA206808F033
:10AFB00075F91021206808F0F3FDA06A012806D178
:10AFC000A069012803D0A86B20F48030A86300BFDB
:10AFD000002084F8BC0300BF00BFDFE710B50446C3
:10AFE000D4F8040407F0BEFB2068D0F8000E40F04F
:10AFF00001002168C1F8000E206A28B103480068EA
:10B0000040F006000149086010BD000010ED00E0AE
:10B010002A49096821F0E00102681143274A1160BA
:10B020002749096821F48031254A1160111F0968F8
:10B0300021F48031121F11602149091D096821F492
:10B0400080311F4A121D1160111D096821F48031E1
:10B05000121D1160416801F48031B1F5803F07D1C4
:10B060001749091F096841F48031154A121F116000
:10B07000416801F40031B1F5003F05D1104909687C
:10B0800041F480310E4A1160017901F0010139B1BA
:10B090000B49091D096841F48031094A121D1160EC
:10B0A000017901F00201022907D105490831096837
:10B0B00041F48031024A083211607047007000404C
:10B0C000043C0140012001490861704700000E4224
:10B0D00010B54FF400410248FEF7F8FF10BD000024
:10B0E0000008024010B50648006800F4803028B11E
:10B0F000FFF7EEFF4FF480300149086010BD0000FB
:10B10000143C014070B504460D460CB9012070BDD9
:10B110005848006800F00F00A84209D255490D7048
:10B120000846006800F00F00A84201D00120EEE7B9
:10B13000207800F0020002281DD1207800F00400E1
:10B14000042805D14C48006840F4E0504A490860A2
:10B15000207800F00800082805D14748006840F42E
:10B160006040454908604448006820F0F000A1684C
:10B17000084341490860207800F00100A8B36068E6
:10B18000012807D13C4808380068C0F34040B8B9EE
:10B190000120BCE76068022802D06068032807D15C
:10B1A000354808380068C0F3406048B90120AEE770
:10B1B000314808380068C0F3400008B90120A6E70C
:10B1C0002D48006820F00300616808432A490860A0
:10B1D000FEF78CFF064609E0FEF788FF801B41F270
:10B1E0008831884202D9032091E707E022480068AD
:10B1F00000F00C006168B0EB810FEDD11D480068D4
:10B2000000F00F00A84209D91A490D7008460068DD
:10B2100000F00F00A84201D0012078E7207800F06C
:10B220000400042807D11448006820F4E050E168C5
:10B23000084311490860207800F00800082808D168
:10B240000D48006820F46040216940EAC1000A49C5
:10B25000086000F03FF808490968C1F30311074A84
:10B26000515CC8400649086006480068FEF780FF48
:10B2700000204CE7003C0240083802407CED010809
:10B28000E0000020D800002001480068704700005E
:10B29000E000002000B5FFF7F7FF04490968C1F39B
:10B2A0008221034A515CC84000BD000008380240BA
:10B2B0008CED010800B5FFF7E7FF04490968C1F309
:10B2C0004231034A515CC84000BD000008380240CA
:10B2D0008CED01082DE9F047002400250026A14649
:10B2E0002548006800F00C0020B1042805D008288B
:10B2F0003AD105E0DFF8849039E0DFF8849036E059
:10B300001D48001F006800F03F041B48001F006834
:10B3100000F4800078B11A481749091F0968C1F381
:10B320008811A0FB01700146224600233846FDF734
:10B33000BDF905460EE011480F49091F0968C1F320
:10B340008811A0FB01700146224600233846FDF714
:10B35000ADF905460848001F0068C0F30140401CD5
:10B360004600B5FBF6F902E0DFF8109000BF00BF21
:10B370004846BDE8F0870000083802400024F40089
:10B3800000127A00F8B504460CB90120F8BD207807
:10B3900000F00100002874D0F948006800F00C00AB
:10B3A00004280DD0F648006800F00C00082813D1DE
:10B3B000F348001F006800F48000B0F5800F0BD147
:10B3C000EF4808380068C0F34040002859D0606852
:10B3D000002856D10120D9E700BF6068B0F5803F52
:10B3E00008D1E7480838006840F48030E44908395B
:10B3F00008601EE06068B0F5A02F0DD1E048083865
:10B40000006840F48020DE4908390860084600687A
:10B4100040F4803008600CE0D9480838006820F417
:10B420008030D749083908600846006820F4802039
:10B43000086000BF606890B1FEF758FE054606E060
:10B44000FEF754FE401B642801D903209EE7CC4838
:10B4500008380068C0F340400028F1D011E0FEF742
:10B4600045FE054606E0FEF741FE401B642801D973
:10B4700003208BE7C24808380068C0F3404000282A
:10B48000F1D1207800F0020002285FD1BC480068AA
:10B4900000F00C0058B1BA48006800F00C00082811
:10B4A0001CD1B748001F006800F48000B0B9B44850
:10B4B00008380068C0F3400020B1E068012801D0DE
:10B4C000012063E7AE480838006820F0F8002169E1
:10B4D00040EAC100AA490839086037E0E06800B3D3
:10B4E0000120A8490860FEF701FE054606E0FEF7C8
:10B4F000FDFD401B022801D9032047E7A04808387A
:10B500000068C0F340000028F1D09D48083800686A
:10B5100020F0F800216940EAC10099490839086023
:10B5200014E0002097490860FEF7E0FD054606E0BC
:10B53000FEF7DCFD401B022801D9032026E79048D6
:10B5400008380068C0F340000028F1D1207800F0EE
:10B55000080008282CD16069A8B101208A49086038
:10B56000FEF7C4FD054606E0FEF7C0FD401B0228BD
:10B5700001D903200AE782486C300068C0F340001C
:10B580000028F1D014E000207F490860FEF7AEFDEE
:10B59000054606E0FEF7AAFD401B022801D903205C
:10B5A000F4E677486C300068C0F340000028F1D121
:10B5B000207800F00400042870D10027704838304B
:10B5C000006800F0805090B900BF002000906C48E7
:10B5D0003830006840F080506949383108600846CA
:10B5E000006800F08050009000BF00BF012767484E
:10B5F000006800F48070B0B96448006840F480705E
:10B6000062490860FEF772FD054606E0FEF76EFD32
:10B61000401B022801D90320B8E65C48006800F40A
:10B6200080700028F2D000BFA068012808D15448DB
:10B630006830006840F001005149683108601DE041
:10B64000A06805280DD14E486830006840F004001D
:10B650004B49683108600846006840F00100086006
:10B660000CE047486830006820F001004449683128
:10B6700008600846006820F00400086000BFA06869
:10B68000A8B1FEF733FD054609E0FEF72FFD401B8C
:10B6900041F28831884202D9032077E626E0384813
:10B6A00068300068C0F340000028EED013E0FEF7D9
:10B6B0001DFD054608E0FEF719FD401B41F28831EB
:10B6C000884201D9032061E62D4868300068C0F344
:10B6D00040000028EFD1012F07D1294838300068F9
:10B6E00020F0805026493831086000BFA06900284A
:10B6F00045D02348006800F00C0008285DD0A06900
:10B70000022845D100201F490866FEF7EFFC0546D8
:10B7100006E0FEF7EBFC401B022801D9032035E6CA
:10B72000174808380068C0F340600028F1D1D4E918
:10B7300007010843616A40EA81110122A06AC2EB55
:10B74000500041EA00412C20005D41EA00600C49B4
:10B75000091F086001200B490866FEF7C7FC054673
:10B7600006E0FEF7C3FC401B022801D903200DE6CA
:10B77000034808380068C0F340600028F1D03FE07B
:10B780000838024000004742800E474200700040E7
:10B7900000201C490866FEF7A9FC054606E0FEF7F6
:10B7A000A5FC401B022801D90320EFE516480068DC
:10B7B000C0F340600028F2D122E0A069012800D146
:10B7C000E4E51148001D066806F48001E069814245
:10B7D00014D106F03F01206A81420FD147F6C070B4
:10B7E0003040616A884209D106F44031A06A814242
:10B7F00004D106F07061E06A814201D00120C5E504
:10B800000020C3E5000047420038024010B504465E
:10B81000FDF74CFA10BD000070B58AB004460D4625
:10B82000032084F83400606C032820D0B5F5805FD5
:10B8300004D1A06B40F08050A0631CE0B5F5006F10
:10B8400007D1204604F0B9FF0646A06B3043A06341
:10B8500011E03DB9204604F07CFF0646A06B304362
:10B86000A06308E0A06B40F00060A06303E0A06B61
:10B8700040F08050A063A06B38B110482168886305
:10B88000012084F834000AB070BD60680490A0689C
:10B890000590E0680690079560690890A069099096
:10B8A00007A807C88DE80700206804A90EC904F09E
:10B8B000BFF8012084F834000020E4E7FF054000D1
:10B8C0007047000010B50246506E800F0870506E31
:10B8D000C0F383604870506EC0F301608870506E92
:10B8E000000CC870B2F86400000A087192F8640095
:10B8F0004871906E000DC880906EC0F303400872CE
:10B900006820805AC0F3C03048726820805AC0F363
:10B91000803088726820805AC0F34030C872682036
:10B92000805AC0F30030087300204873506C002820
:10B9300036D16820805A8005030DD06E43EA90709E
:10B940000861D06EC0F3C2600875D06EC0F30260AB
:10B950004875D06EC0F342508875D06EC0F38240F7
:10B96000C875D06EC0F3C23008760869401C5065B7
:10B970000B7E506D03F007039B1C01249C40604329
:10B980005065087A00F00F03012098409065D2E9D5
:10B9900015035B0A5843D0654FF40073136621E02A
:10B9A000506C012813D16820805C8006830AD06E19
:10B9B00043EA104008610869401C83025365536DD7
:10B9C000D3654FF400739365936D13660AE02E48B8
:10B9D00013689863906B40F080509063012082F868
:10B9E000340010BD6C20805AC0F3803001F8190F6C
:10B9F0006C20805AC0F3C61048706C20805C00F048
:10BA00007F008870106FC00FC870106FC0F3417056
:10BA10000871106FC0F382604871106FC0F38350DB
:10BA20008871106FC0F34050C87100200872106F09
:10BA3000C0F3004048727020805AC0F3C030887252
:10BA40007020805AC0F38030C8727020805AC0F3D2
:10BA5000403008737020805AC0F300304873702063
:10BA6000805AC0F3812088737020805AC0F301206F
:10BA7000C8737020805CC0F34600087401204874CD
:10BA800019390020ADE70000FF0540000246506C68
:10BA90000860906C4860D06C8860106DC860506D14
:10BAA0000861906D4861D06D8861106EC86100209A
:10BAB0007047F8B50446002000906946204604F01F
:10BAC00030FE054615B1A06B2843A0630098C0F373
:10BAD00043263046F8BD000070B50446256B20684B
:10BAE000406BC0F3C03030B105F0080018B12046FB
:10BAF00004F0F2FDF8E02068406BC0F3002000285D
:10BB000062D04FF48070216888632068C06B4CF26B
:10BB10003A3188432168C8632068C06A20F0010078
:10BB20002168C86205F0080038B305F0020010B9BA
:10BB300005F0200050B1206804F03AF906462EB115
:10BB4000A06B3043A0632046FFF7BAFE40F23A50A4
:10BB500021688863012084F834000020206305F008
:10BB6000010010B905F0020018B1204600F0F4FB06
:10BB7000BAE0204600F0F5FBB6E005F080000028B2
:10BB8000B8D005F0200050B1206804F011F9064645
:10BB90002EB1A06B3043A0632046FFF791FE05F065
:10BBA00001000028A6D105F002000028A2D12068DB
:10BBB000C06A20F008002168C862012084F83400BF
:10BBC000204600F0CEFB8FE02068406BC0F3803051
:10BBD00030B105F0080018B1204604F022FE83E0E1
:10BBE0002068406B40F23A21084008B1012000E093
:10BBF0000020002878D02068406BC0F3400018B1C6
:10BC0000A06B40F00200A0632068406BC0F3C0004E
:10BC100018B1A06B40F00800A0632068406BC0F32F
:10BC2000401018B1A06B40F02000A0632068406B6A
:10BC3000C0F3001018B1A06B40F01000A0632068A2
:10BC4000406BC0F3402018B1A06B40F00800A06327
:10BC500040F23A70216888632068C06B40F23A3144
:10BC600088432168C863206804F0A2F8A16B0843E8
:10BC7000A06305F0080040B1012084F834000020E2
:10BC800020632046FFF71CFE2EE005F0800000B385
:10BC900005F0100010B905F0200050B11348E16B19
:10BCA0000865E06BFDF793FD98B1E06B04F06FFB66
:10BCB0001AE005F0010010B905F0020050B10C487F
:10BCC000216C0865206CFDF782FD10B1206C04F03A
:10BCD00031FB09E00020A063012084F8340000203B
:10BCE00020632046FFF792FD70BD00008F0301081E
:10BCF0003503010810B504460CB9012010BD94F8B5
:10BD0000340020B900202077204600F053F80320AB
:10BD100084F83400204600F00BF808B10120EDE76C
:10BD20000020A0632063012084F834000020E5E7B0
:10BD300070B58AB0044600200490059006900790E4
:10BD400008907620099007A807C88DE807002068AA
:10BD500004A90EC903F06CFE064616B101200AB014
:10BD600070BD002012490860206803F07BFE0120AE
:10BD70000F49A039C1F8A000204604F047FC054651
:10BD80003DB1012084F83400A06B2843A06301205A
:10BD9000E5E7204604F0B9FB05463DB1012084F8F3
:10BDA0003400A06B2843A0630120D8E70020D6E729
:10BDB000A080254210B586B00446142101A8FCF7E6
:10BDC000E0FC5949206888427ED100BF00200090E5
:10BDD0005648006840F4006054490860084600680E
:10BDE00000F40060009000BF00BF00BF0020009082
:10BDF0004E481438006840F001004C49143908607E
:10BE00000846006800F00100009000BF00BF00BFBE
:10BE1000002000900846006840F0020008600846D4
:10BE2000006800F00200009000BF00BF4FF45070A7
:10BE300001900220029000200390032004900C2027
:10BE4000059001A93A48FEF74FF848F2A00001908A
:10BE50000220029000200390032004900C20059003
:10BE600001A93448FEF740F83348344908604FF0E0
:10BE700000604860002131488160C1604FF48061FA
:10BE8000016189004161890081612021C1614FF414
:10BE90004031016204214162032181624FF40001BB
:10BEA000C16289100163FDF7C9FD08B1FDF717F8FC
:10BEB00000BF22482064846300BF1F4848302049E7
:10BEC00008604FF0006000E02CE0486040211C4812
:10BED00081600021C1604FF480610161890041618E
:10BEE000890081612021C1614FF440310162042148
:10BEF0004162032181624FF40001C1628910016334
:10BF0000FDF79CFD08B1FCF7EAFF00BF0C48E063B9
:10BF1000846300BF002211463120FEF7A5F93120CD
:10BF2000FEF792F906B010BD002C014044380240E3
:10BF30000000024000040240586402409C030020BC
:10BF4000FC0300202DE9FF4F89B004468B4699463B
:10BF5000DDF858A0FEF7CAF802900B9800905D46F5
:10BF6000BBF1000F07D1A06B40F00060A06301207F
:10BF70000DB0BDE8F08F94F8340001287ED1002088
:10BF8000A063009800EB0901E06D814205D9A06B28
:10BF900040F00070A0630120EAE7032084F8340039
:10BFA00000202168C862606C012802D0009840021D
:10BFB00000904FF40071206803F0B6FD8046B8F1A0
:10BFC000000F0AD08E4821688863A06B40EA080001
:10BFD000A063012084F83400CAE74FF0FF300390DB
:10BFE0004FEA4920049090200590022006900020FE
:10BFF00007900120089003A9206803F0ECFCB9F138
:10C00000010F07D9022020632068009903F0F4FD96
:10C01000804606E0012020632068009903F008FEB6
:10C020008046B8F1000F0DD0754821688863A06B79
:10C0300040EA0800A063012084F834000020206357
:10C04000012095E7049E3AE02068406B00F4004030
:10C05000F0B1EEB10020019017E0206803F00BFD75
:10C0600007462F706D1C761E380A28706D1C761ED0
:10C07000380C28706D1C761E380E00E0BAE028706F
:10C080006D1C761E0198401C019001980828E4D38D
:10C09000FEF72CF80299401A504502D2BAF1000F6F
:10C0A0000DD1574821688863A06B40F00040A06321
:10C0B000012084F8340000202063032058E7206822
:10C0C000406B40F22A3108400028BDD02068406B08
:10C0D00000F48070D0B1B9F1010F17D9606C03285A
:10C0E00014D0206803F064FE8046B8F1000F0DD034
:10C0F000434821688863A06B40EA0800A0630120E0
:10C1000084F8340000202063012031E72068406B70
:10C1100000F0080068B13A4821688863A06B40F0DD
:10C120000800A063012084F834000020206301206F
:10C130001EE72068406B00F0020068B130482168BB
:10C140008863A06B40F00200A063012084F83400F3
:10C150000020206301200BE72068406B00F02000E6
:10C1600068B1274821688863A06B40F02000A06375
:10C17000012084F83400002020630120F8E629E043
:10C18000206803F078FC07462F706D1C761E380A75
:10C1900028706D1C761E380C28706D1C761E380EAB
:10C1A00028706D1C761EFDF7A1FF0299401A5045BC
:10C1B00002D2BAF1000F0DD1114821688863A06B3B
:10C1C00040F00040A063012084F834000020206388
:10C1D0000120CDE62068406B00F4001008B1002E6D
:10C1E000CED140F23A5021688863012084F83400AF
:10C1F0000020BDE6A06B40F00050A0630120B7E630
:10C20000FF0540002DE9F04387B004460F469146F4
:10C210001E46C8463FB9A06B40F00060A0630120F5
:10C2200007B0BDE8F08394F83400012871D10020F4
:10C23000A06308EB0601E06D814205D9A06B40F0D8
:10C240000070A0630120EBE7032084F83400002095
:10C250002168C8622068C06B40F22A310843216817
:10C26000C8633948216CC8633848216CC864002011
:10C27000216C086572029308226802F180013A4637
:10C28000206CFDF751FC80B12068C06B20F49570E4
:10C290002168C8632E4821688863A06B40F0804005
:10C2A000A063012084F83400BAE70120294908601E
:10C2B000606C012801D04FEA48284FF400712068D3
:10C2C00003F032FC05464DB1214821688863A06B1C
:10C2D0002843A063012084F83400A1E74FF0FF3029
:10C2E00001907002029090200390022004900020A0
:10C2F00005900120069001A9206803F06CFB012E37
:10C3000008D9822020634146206803F075FC054669
:10C3100007E016E0812020634146206803F088FC96
:10C32000054665B10A4821688863A06B2843A0636D
:10C33000012084F8340000202063012070E70020F1
:10C340006EE702206CE70000ED02010879020108A7
:10C35000FF0540008C85254210B50446FCF7F0FC33
:10C3600010BD10B50446FCF705FD10BD2DE9F04FDA
:10C3700089B00446894693469846FDF7B7FE029079
:10C38000DA464E46B9F1000F07D1A06B40F00060CD
:10C39000A063012009B0BDE8F08F94F834000128B3
:10C3A0007ED10020A0630AEB0801E06D814205D92F
:10C3B000A06B40F00070A0630120EBE7032084F83D
:10C3C000340000202168C862606C012801D04FEA67
:10C3D0004A2A4FF40071206803F0A6FB05464DB1D0
:10C3E000764821688863A06B2843A063012084F805
:10C3F0003400CFE74FF0FF3003904FEA482004901D
:10C40000902005900020069007900120089003A935
:10C41000206803F0E0FAB8F1010F07D9202020636B
:10C420005146206803F0E2FC054606E01020206338
:10C430005146206803F0F6FC054665B15F48216867
:10C440008863A06B2843A063012084F83400002097
:10C45000206301209EE7049F43E02068406B00F4C6
:10C46000804040B33FB30020019021E0307800903D
:10C47000761C7F1E3078009941EA00200090761CDF
:10C480007F1E3078009941EA00400090761C7F1EA4
:10C490003078009941EA00600090761C7F1E00E031
:10C4A00085E06946206803F0FEFA0198401C01907F
:10C4B00001980828DAD3FDF719FE0299411A12985B
:10C4C000814201D2129860B93C4821688863A06B10
:10C4D0002843A063012084F8340000202063032057
:10C4E00058E72068406B40F21A3108400028B4D069
:10C4F0002068406B00F48070B8B1B8F1010F14D916
:10C50000606C032811D0206803F052FC054665B129
:10C510002A4821688863A06B2843A063012084F81F
:10C52000340000202063012034E72068406B00F0D5
:10C53000080068B1214821688863A06B40F00800BA
:10C54000A063012084F8340000202063012021E74B
:10C550002068406B00F0020068B1184821688863C9
:10C56000A06B40F00200A063012084F8340000209A
:10C57000206301200EE72068406B00F0100068B1D6
:10C580000E4821688863A06B40F01000A063012072
:10C5900084F83400002020630120FBE640F23A508A
:10C5A00021688863012084F834000020F2E6A06B43
:10C5B00040F00050A0630120ECE60000FF054000C1
:10C5C0002DE9F04387B00446884691461E464F4603
:10C5D000B8F1000F07D1A06B40F00060A06301200C
:10C5E00007B0BDE8F08394F83400012877D100202B
:10C5F000A063B919E06D814205D9A06B40F00070CD
:10C60000A0630120ECE7032084F8340000202168B7
:10C61000C8622068C06B40F21A2108432168C863D1
:10C620003948E16BC8633948E16BC8640020E16BAD
:10C630000865606C012800D07F024FF4007120680B
:10C6400003F072FA05464DB1314821688863A06B4A
:10C650002843A063012084F83400C1E7012E07D9E4
:10C66000A02020633946206803F0C0FB054606E0A1
:10C67000902020633946206803F0D4FB054665B15D
:10C68000234821688863A06B2843A063012084F8B5
:10C690003400002020630120A2E701201D4908602A
:10C6A00071028B08216801F180024146E06BFDF7C1
:10C6B0003BFAA8B12068C06B40F21A218843216878
:10C6C000C863134821688863A06B40F08040A06372
:10C6D000012084F8340000202063012080E711E06D
:10C6E0004FF0FF30019070020290902003900020E4
:10C6F000049005900120069001A9206803F06BF9D1
:10C7000000206DE702206BE77D0301087902010834
:10C71000FF0540008C85254210B504460CB9012068
:10C7200010BD606A00B900BF0021A16294F85100F9
:10C7300028B9002084F85000204600F033F8022089
:10C7400084F851002068006820F0400021680860EB
:10C75000D4E901010843E16808432169084361699C
:10C760000843218B01F400710843E1690843216A01
:10C770000843A16A0843216808600421A06901EA0E
:10C780001040616A0843216848602068C06920F44D
:10C7900000602168C86100206065012084F85100B4
:10C7A0000020BDE710B586B00446142101A8FBF7B0
:10C7B000E8FF2949206888424CD100BF0020009042
:10C7C0002648006840F48050244908600846006804
:10C7D00000F48050009000BF00BF00BF0020009018
:10C7E0001E481438006840F001001C4914390860E4
:10C7F0000846006800F00100009000BF00BF00BFC5
:10C80000002000900846006840F0020008600846DA
:10C81000006800F00200009000BF00BFA02001905F
:10C820000220029000200390032004900520059030
:10C8300001A90B48FDF758FB10200190022002903F
:10C8400000200390032004900520059001A90548CD
:10C85000FDF74AFB06B010BD0030014044380240ED
:10C8600000000240000402402DE9FF5F04468846B4
:10C8700091461D460E9E012002900020019000BFAF
:10C8800094F85000012803D1022004B0BDE8F09FC5
:10C89000012084F8500000BFFDF728FC074694F8FB
:10C8A00051B060680390AA46BBF1010F0BD003980A
:10C8B000B0F5827F04D1A06810B9BBF1040F02D09B
:10C8C00002200190DBE0B8F1000F03D0B9F1000FB6
:10C8D00000D015B901200190D1E094F8510004284E
:10C8E00002D0052084F8510000206065C4F838901B
:10C8F000E587A587C4F83080E586A5862064606456
:10C900002068006800F04000402805D020680068DA
:10C9100040F0400021680860E068B0F5006F4AD13F
:10C92000606810B1BAF1010F09D1206B008821684D
:10C93000C860206B801C2063E08E401EE08633E0E0
:10C940002068806800F00200022810D1E08E70B1EB
:10C95000029801280BD1206B00882168C860206BE9
:10C96000801C2063E08E401EE0860020029020683C
:10C97000806800F0010068B1E08F58B12068C0689D
:10C98000A16B0880A06B801CA063E08F401EE08735
:10C9900001200290FDF7AAFBC01BB04204D3701C1B
:10C9A00010B1032001906AE0E08E0028C8D1E08F2A
:10C9B0000028C5D14AE0606810B1BAF1010F09D171
:10C9C000206B007821680873206B401C2063E08E88
:10C9D000401EE08634E02068806800F002000228F3
:10C9E00010D1E08E70B1029801280BD1206B007835
:10C9F00021680873206B401C2063E08E401EE08697
:10CA0000002002902068806800F0010068B1E08F8B
:10CA100058B12068C068A16B0870A06B401CA0636F
:10CA2000E08F401EE08701200290FDF75FFBC01BF6
:10CA3000B04201D3701C00B916B9032001901EE06A
:10CA4000E08E0028C7D1E08F0028C4D13A46314695
:10CA5000204604F011F820B10120019020206065EB
:10CA60000DE0A06850B900BF002000902068C068A9
:10CA7000009020688068009000BF00BF00BF0120C8
:10CA800084F8510000BF002084F8500000BF0198D6
:10CA9000FBE670B504462546681EB0F1807F01D3E1
:10CAA00001200FE0681E4FF0E02148610F214FF098
:10CAB000FF3007F087FA00204FF0E021886107205F
:10CAC0000861002070BD70477047000030B5024615
:10CAD0000B4600BF92F83C00012801D1022030BD76
:10CAE000012082F83C0000BF022082F83D0010685F
:10CAF00044681068816824F0700418680443106862
:10CB00004460144D1068A84213D01068B0F1804FF3
:10CB10000FD0114D1068A8420BD0104D1068A842DC
:10CB200007D00F4D1068A84203D00E4D1068A842E0
:10CB300005D121F08001586801431068816001200F
:10CB400082F83D0000BF002082F83C0000BF00BF1B
:10CB5000C5E700000000014000040040000800405C
:10CB6000000C00400040014010B504460CB9012003
:10CB700010BD94F83D0028B9002084F83C00204600
:10CB800000F00CF8022084F83D00211D206804F01C
:10CB9000FBFC012084F83D000020E9E738B504469D
:10CBA0002068B0F1804F18D100BF002000901948D4
:10CBB000006840F00100174908600846006800F06E
:10CBC0000100009000BF00BF002201211C20FDF7E2
:10CBD0004BFB1C20FDF738FB1BE00F492068884207
:10CBE00017D100BF002000900A48006840F0020002
:10CBF000084908600846006800F00200009000BF85
:10CC000000BF002211461D20FDF72EFB1D20FDF761
:10CC10001BFB38BD403802400004004001460220A2
:10CC200081F83D000868806800F00702062A05D0F8
:10CC30000868006840F001000B681860012081F866
:10CC40003D000020704701460868C06840F00100C0
:10CC50000B68D8600868806800F00702062A05D0D3
:10CC60000868006840F001000B68186000207047F9
:10CC70000146022081F83D0000BF0868006A41F2C9
:10CC80001112104050B90868006A9210104028B97B
:10CC90000868006820F001000A68106000BF0120E9
:10CCA00081F83D00002070472DE9F04104460D4613
:10CCB00000BF94F83C00012802D10220BDE8F081B9
:10CCC000012084F83C0000BF022084F83D00206869
:10CCD000866826F0770626F47F46206886602868F6
:10CCE000502833D00CDC202850D004DC00284BD056
:10CCF000102851D149E0302849D040284CD139E0A2
:10CD000060282DD0702807D0B0F5805F03D0B0F533
:10CD1000005F41D10DE040E0D5E902136A68206868
:10CD200004F084FC2068866846F0770620688660F8
:10CD300033E0D5E902136A68206804F077FC2068C4
:10CD4000806840F480402168886026E0EA6869686D
:10CD5000206804F07FFC5021206804F072FC1CE085
:10CD6000EA686968206804F088FC6021206804F0A3
:10CD700068FC12E0EA686968206804F06BFC4021F6
:10CD8000206804F05EFC08E000BF00BF00BF296817
:10CD9000206804F056FC00E000BF00BF012084F8CA
:10CDA0003D0000BF002084F83C0000BF00BF85E7C5
:10CDB000704710B5044620680069C0F34000D8B140
:10CDC0002068C068C0F34000B0B16FF00200216875
:10CDD0000861012020772068806900F0030018B105
:10CDE0002046FFF7E5FF05E0204600F0ADF82046BD
:10CDF00000F0ABF80020207720680069C0F38000C5
:10CE0000D8B12068C068C0F38000B0B16FF00400F2
:10CE100021680861022020772068806900F4407052
:10CE200018B12046FFF7C4FF05E0204600F08CF85B
:10CE3000204600F08AF80020207720680069C0F3BF
:10CE4000C000D8B12068C068C0F3C000B0B16FF0B6
:10CE5000080021680861042020772068C06900F07C
:10CE6000030018B12046FFF7A3FF05E0204600F0BD
:10CE70006BF8204600F069F80020207720680069F0
:10CE8000C0F30010D8B12068C068C0F30010B0B182
:10CE90006FF0100021680861082020772068C069C1
:10CEA00000F4407018B12046FFF782FF05E02046ED
:10CEB00000F04AF8204600F048F80020207720686B
:10CEC000006900F0010058B12068C06800F001005E
:10CED00030B16FF0010021680861204600F036F89B
:10CEE00020680069C0F3C01058B12068C068C0F362
:10CEF000C01030B16FF08000216808612046FFF754
:10CF0000E2FD20680069C0F3801058B12068C06855
:10CF1000C0F3801030B16FF04000216808612046F6
:10CF200000F058F820680069C0F3401058B120683C
:10CF3000C068C0F3401030B16FF020002168086174
:10CF40002046FFF7C1FD10BD704770470168B1F181
:10CF5000804F34D11A4909686431194A1160114669
:10CF60000968B1F57A7F2AD311460968A1F57A716B
:10CF7000116014490978491C124A11701146097848
:10CF80003C291CDB002111700F490978491C0E4A0D
:10CF90001170114609783C2911DB002111700B49F1
:10CFA0000978491C094A117011460978182906DBCD
:10CFB0000021117006490978491C054A1170704713
:10CFC00008000020060000200500002004000020CA
:10CFD00003000020704710B504460CB9012010BDB5
:10CFE000242084F839002068C06820F400502168AB
:10CFF000C860204600F046F80020E06384F839005D
:10D0000084F83A0000BF84F8380000BF00BFE6E7AC
:10D0100010B504460CB9012010BDA06900B100E0B4
:10D0200000BF94F8390028B9002084F83800204661
:10D0300000F042F8242084F839002068C06820F409
:10D0400000502168C860204604F044FB2068006955
:10D0500020F49040216808612068406920F02A008F
:10D06000216848612068C06840F400502168C860A9
:10D070000020E063202084F8390084F83A00002082
:10D08000CAE7000010B504460849206888420CD160
:10D090000748006820F40030054908600C21054865
:10D0A000FCF766FE2620FDF7ADF810BD00440040F9
:10D0B000403802400000024010B586B004461421FA
:10D0C00001A8FBF75EFB1B49206888422FD100BFF7
:10D0D000002000901848006840F4003016490860AD
:10D0E0000846006800F40030009000BF00BF00BF99
:10D0F0000020009010481038006840F001000E49F0
:10D10000103908600846006800F00100009000BF78
:10D1100000BF0C2001900220029000200390032009
:10D1200004900720059001A90448FCF7DDFE06B035
:10D1300010BD0000004400404038024000000240A2
:10D1400010B5034693F83A0020282FD101B10AB94F
:10D15000012010BD00BF93F83800012801D1022042
:10D16000F7E7012083F8380000BF99629A85DA85D5
:10D170000020D863222083F83A0000BF002083F803
:10D18000380000BF1868C06840F480701C68E06018
:10D190001868406940F001001C6860611868C06848
:10D1A00040F020001C68E0600020D2E70220D0E7B9
:10D1B0002DE9F84304460D4616461F464FF0000978
:10D1C00094F8390020285DD105B116B90120BDE8D9
:10D1D000F88300BF94F83800012801D10220F6E757
:10D1E000012084F8380000BF0020E063212084F88B
:10D1F0003900FCF77BFF8146A684E68400BF00204F
:10D2000084F8380000BF2BE0E08C401EE084A0686A
:10D21000B0F5805F16D14B46002280212046009752
:10D2200004F04CFC08B10320D1E7A846B8F8000090
:10D23000C0F3080021684860206908B9AD1C0FE000
:10D240006D1C0DE04B46002280212046009704F023
:10D2500035FC08B10320BAE715F8010B21684860D6
:10D26000E08C0028D0D14B46002240212046009778
:10D2700004F024FC08B10320A9E7202084F8390039
:10D280000020A4E70220A2E700BFFEE730B50B466E
:10D29000002100BF16E00A24B4EB107F05D930242A
:10D2A00004EB107403F8114005E0412404EB107402
:10D2B0000A3C03F81140000100254C00641C1D5578
:10D2C0004C1CE1B29142E6DB30BD70B50546D5F8A5
:10D2D000BC424FF40770005D48B94FF40670005926
:10D2E00028B1607A18B90121284605F00AFA81218F
:10D2F000284605F006FA607A022807D181212846DF
:10D3000005F0FFF90121284605F0FBF970BD00008A
:10D3100070B50546D5F8BC424FF4057001594FF47D
:10D320000D7001514FF4067001594FF40E70015108
:10D330000121284605F0BAF81F2812D12B49D4F84C
:10D34000100288420DD140F21D20005D012808D84E
:10D3500040F21E20005D20B140F21E20005D10282A
:10D360000DD940F21D20015D20230522284602F040
:10D3700032F9022060722846FFF7A7FF33E040F23F
:10D380001D20015D04F21F22284601F081FD0028C6
:10D390000BDA207A052804D10121284600F0CCF8C8
:10D3A00021E02846FFF791FF1DE0207A022819D0DE
:10D3B000207A012816D0207A032813D0E06830B1F3
:10D3C00004F110012846E26800F0D4F80BE0E068B0
:10D3D00020B90021284600F0AFF804E02846FFF706
:10D3E00074FF00E070BD00BFFCE7000055534243EE
:10D3F00070B506460C46D6F8BC52687A022808D1A9
:10D400008121304605F07DF90121304605F079F99A
:10D410000CE004F08000802807D1687A012804D04D
:10D420000121304600F088F800E070BD00BFFCE745
:10D4300070B505460E46D5F8BC42207A022804D0C5
:10D44000032812D0042815D10EE040F21D20015D02
:10D4500004F21F22284601F01BFD002803DA0121F7
:10D46000284600F069F806E000BF0021284600F0D9
:10D4700063F800E000BF00BF70BD70B505460E4602
:10D48000D5F8BC42207A10B1012813D103E0284618
:10D49000FFF73EFF0FE040F21D20015D04F21F2266
:10D4A000284601F0F5FC002803DA0121284600F0A7
:10D4B00043F800E000BF00BF70BDD0F8BC120022EE
:10D4C0000A72704770B50546D5F8BC42002020723C
:10D4D000607284F8610284F8600284F86202D5F810
:10D4E000C0020168002088470121284604F0CBFFD4
:10D4F0008121284604F0C7FF1F2304F5047201218F
:10D50000284605F04BF870BD70B50546D5F8BC420D
:10D5100000202072012060728121284604F0AFFEB5
:10D520000121284604F0ABFE1F2304F504720121FB
:10D53000284605F033F870BD70B505460E46D5F89F
:10D54000BC420B48C4F830024FF40F70065500205F
:10D5500020720D2304F50C728121284605F00CF988
:10D560001F2304F504720121284605F017F870BD49
:10D57000555342532DE9F04106460F461546D6F85D
:10D58000BC424FF406700059A84203D24FF4067013
:10D59000005900E0284680464FF40E700059411BA8
:10D5A0004FF40E7001510021001D0155042020721E
:10D5B00043463A468121304605F0DEF8BDE8F08169
:10D5C0001FB5002000900190029003901548164965
:10D5D00008604FF480304860002113488160016189
:10D5E000017680F820104FF08051C16249108162AD
:10D5F0000021C1600121C16180F830104161FBF759
:10D600001DFF08B1FBF76BFC01200090019000208A
:10D61000029069460448FBF721FE08B1FBF75FFC66
:10D620001FBD0000002001407002002008B500BFAF
:10D63000002000901248006840F480001049086003
:10D640000846006800F48000009000BF00BF002280
:10D6500011463820FCF708FE3820FCF7F5FD0022C3
:10D6600011463B20FCF700FE3B20FCF7EDFD0022BD
:10D6700011464520FCF7F8FD4520FCF7E5FD08BD07
:10D680003038024010B507490748FBF729FC074925
:10D69000087001220349064808F0E2FD03490870BA
:10D6A00010BD0000590000203CED0108580000208A
:10D6B0009814002000B587B0142102A8FBF761F888
:10D6C00000BF002001905E48006840F004005C4903
:10D6D00008600846006800F00400019000BF00BF29
:10D6E00000BF002001900846006840F080000860FC
:10D6F0000846006800F08000019000BF00BF00BF36
:10D70000002001900846006840F0010008600846CB
:10D71000006800F00100019000BF00BF00BF0020C2
:10D7200001900846006840F0020008600846006862
:10D7300000F00200019000BF00BF00224FF46041E2
:10D740004048FCF7CCFC012210213F48FCF7C7FC05
:10D75000002246F209013D48FCF7C1FC01224FF4CA
:10D76000E8613A48FCF7BBFC00224FF40041364820
:10D77000FCF7B5FC4FF460400290012003900020BC
:10D780000490059002A92F48FCF7AEFB01200290FF
:10D79000002003900120049002A92B48FCF7A4FB71
:10D7A0001020029001200390002004900320059097
:10D7B00002A92548FCF798FB46F2090002900120D7
:10D7C000039000200490059002A92048FCF78CFBF0
:10D7D000022002901E4803900120049002A91B48D9
:10D7E000FCF782FB41F2040002900020039001202C
:10D7F000049002A91548FCF777FB4FF4E86002900B
:10D800000120039004900320059002A90F48FCF723
:10D810006BFB4FF400400290012003900020049025
:10D82000059002A90848FCF75FFB0022114607207B
:10D83000FCF71AFD0720FCF707FD07B000BD00004C
:10D84000303802400008024000000240000402405C
:10D850000000111010B5002201212620FCF704FD64
:10D860002620FCF7F1FC10BD06480749086000209F
:10D870004860002104488160C160016141618161AB
:10D8800070470000002C01401803002010B50E481E
:10D890000E4908604FF48270486000210B48816097
:10D8A000C160016141614FF4007181613821C16142
:10D8B00000210162416281620A21C162FEF72CFFF0
:10D8C00008B1FBF70CFB10BD003001405C040020E8
:10D8D00000B587B000200390049005900690019059
:10D8E00002904FF080401449086042F27F50486037
:10D8F00000211148816040F2E731C16000210161DF
:10D900008161FFF731F908B1FBF7E9FA4FF4805074
:10D91000039003A90848FFF7C7F908B1FBF7DFFA3E
:10D9200000200190029001A90348FFF7CFF808B149
:10D93000FBF7D5FA07B000BDB404002000B587B0EE
:10D9400000200390049005900690019002901548E5
:10D95000154908600020486000211348816042F6A4
:10D96000DF61C160002101618161FFF7FDF808B14D
:10D97000FBF7B5FA4FF48050039003A90A48FFF76C
:10D9800093F908B1FBF7ABFA202001900020029038
:10D9900001A90548FFF79AF808B1FBF7A0FA07B00C
:10D9A00000BD000000040040F404002010B503484E
:10D9B00004F0FAF908B1FBF792FA10BDFC18002048
:10D9C00010B500220D490E4804F037FC08B1FBF7F2
:10D9D00086FA0C490A4805F039F808B1FBF77FFAD6
:10D9E0000949074804F06DFF08B1FBF778FA0448CD
:10D9F00005F00AF908B1FBF772FA10BD60000020CB
:10DA0000FC18002078010020B000002000BFFEE7D5
:10DA1000704700001CB511A103C9CDE9000103F056
:10DA200021F805226946302000F0B0F80522694649
:10DA3000102000F055F8002406E01DF80400A52889
:10DA400000D003E0601CC4B2052CF6DB00BF052C3F
:10DA500001D001201CBD0020FCE70000A5A5A5A564
:10DA6000A500000010B500224FF480610448FCF7C7
:10DA700036FB012240210248FCF731FB10BD0000BB
:10DA80000004024010B500224FF480611248FCF7F8
:10DA900026FB052211492A2000F078F801212120D7
:10DAA00000F096F80121222000F092F8282125208C
:10DAB00000F08EF82021312000F08AF80F21262076
:10DAC00000F086F80F21202000F082F80122910258
:10DAD0000148FCF704FB10BD00040240D5F5010825
