:020000040800F2
:1000000040F5012089060008B55D0008235100086D
:10001000B15D0008FD0D000859BC0008000000009B
:10002000000000000000000000000000D58B000868
:100030004F0F000800000000096600086B930008DD
:10004000A3060008AF650008A3060008A306000881
:10005000A3060008A3060008A3060008510F000825
:10006000A3060008A3060008A3060008A3060008CC
:10007000A3060008A3060008A3060008A3060008BC
:10008000A3060008A3060008A3060008000000005D
:10009000000000000000000000000000A3060008AF
:1000A000A3060008A3060008A3060008A30600088C
:1000B0008994000899940008A3060008A306000884
:1000C000A3060008A3060008A3060008A30600086C
:1000D000A3060008A3060008C99900080000000054
:1000E000A3060008A3060008A306000800000000FD
:1000F000000000000000000000000000A30600084F
:1001000000000000D1780008A3060008A30600083C
:1001100000000000000000000000000000000000DF
:10012000150E0008A3060008A3060008250E000807
:10013000A30600080000000000000000000000000E
:10014000000000000000000000000000DD62000868
:10015000A3060008350E0008A3060008A306000841
:10016000A3060008A306000800000000000000002D
:10017000000000000000000000000000000000007F
:1001800000000000A30600080000000000000000BE
:10019000A3060008A3060008DFF80CD000F0C0FB9F
:1001A000004800471D10010840F501202DE9F05FCF
:1001B000DDF828C0DDF830E0DEF8004030F902ABB1
:1001C00004F580590AEB693909F30F0B23F802BBD8
:1001D000CBF1000B0FFA8BFBB1F90070DEF8045085
:1001E00007FB0A55B2F9008008FB0B54CEF800401B
:1001F000B1F90270DEF8084007FB0A44B2F9028048
:1002000008FB0B45CEF80450B1F90470DEF80C5031
:1002100007FB0A55B2F9048008FB0B54CEF80840DE
:10022000B1F90670DEF8104007FB0A44B2F9068007
:1002300008FB0B45CEF80C50B1F90870DEF81450ED
:1002400007FB0A55B2F9088008FB0B54CEF81040A2
:10025000B1F90A70DEF8184007FB0A44B2F90A80C7
:1002600008FB0B45CEF81450B1F90C70DEF81C50A9
:1002700007FB0A55B2F90C8008FB0B54CEF8184066
:10028000B1F90E70DEF8204007FB0A44B2F90E8087
:1002900008FB0B45CEF81C50B1F91070DEF8245065
:1002A00007FB0A55B2F9108008FB0B54CEF820402A
:1002B000B1F9127007FB0AF7B2F9128008FB0BF8CC
:1002C000B844CEF82480BCF1010C7FF475AFBDE8D2
:1002D000F09F2DE9F041DDF81CE0DEF8005030F928
:1002E000028B05F5805708EB673808F30F0622F8F4
:1002F000026BC6F1000636B2B1F90070DEF80440B8
:1003000007FB0645CEF80050B1F90270DEF8085040
:1003100007FB0654CEF80440B1F90470DEF80C4037
:1003200007FB0645CEF80850B1F90670DEF810500C
:1003300007FB0654CEF80C40B1F90870DEF8144003
:1003400007FB0645CEF81050B1F90A70DEF81850D8
:1003500007FB0654CEF81440B1F90C70DEF81C40CF
:1003600007FB0645CEF81850B1F90E70DEF82050A4
:1003700007FB0654CEF81C40B1F91070DEF824409B
:1003800007FB0645CEF82050B1F9127007FB06F7BF
:10039000CEF824705B1EA0D1BDE8F0812DE9F041BC
:1003A0004FF000064FF0000330F9024B31F9027BA9
:1003B00004FB073330F9025B31F9028B05FB08338C
:1003C00030F9024B31F9027B04FB073330F9025B51
:1003D00031F9028B05FB083306EBA3164FF000033F
:1003E00030F9024B31F9027B04FB073330F9025B31
:1003F00031F9028B05FB083330F9024B31F9027BEE
:1004000004FB073330F9025B31F9028B05FB08333B
:1004100006EBA3164FF0000330F9024B31F9027BD3
:1004200004FB073330F9025B31F9028B05FB08331B
:1004300030F9024B31F9027B04FB073330F9025BE0
:1004400031F9028B05FB083306EBA3164FF00003CE
:1004500030F9024B31F9027B04FB073330F9025BC0
:1004600031F9028B05FB083330F9024B31F9027B7D
:1004700004FB073330F9025B31F9028B05FB0833CB
:1004800006EBA3164FF0000330F9024B31F9027B63
:1004900004FB073330F9025B31F9028B05FB0833AB
:1004A00030F9024B31F9027B04FB073330F9025B70
:1004B00031F9028B05FB083306EBA3164FF000035E
:1004C00030F9024B31F9027B04FB073330F9025B50
:1004D00031F9028B05FB083330F9024B31F9027B0D
:1004E00004FB073330F9025B31F9028B05FB08335B
:1004F00006EBA3164FF0000330F9024B31F9027BF3
:1005000004FB073330F9025B31F9028B05FB08333A
:1005100030F9024B31F9027B04FB073330F9025BFF
:1005200031F9028B05FB083306EBA3164FF00003ED
:1005300030F9024B31F9027B04FB073330F9025BDF
:1005400031F9028B05FB083330F9024B31F9027B9C
:1005500004FB073330F9025B31F9028B05FB0833EA
:1005600006EBA3164FF0000330F9024B31F9027B82
:1005700004FB073330F9025B31F9028B05FB0833CA
:1005800030F9024B31F9027B04FB073330F9025B8F
:1005900031F9028B05FB083306EBA3164FF000037D
:1005A00030F9024B31F9027B04FB073330F9025B6F
:1005B00031F9028B05FB083330F9024B31F9027B2C
:1005C00004FB073330F9025B31F9028B05FB08337A
:1005D00006EBA3163046BDE8F08100002DE9F04798
:1005E0004FF00006089A31F9027B31F9028BB0F91D
:1005F0000040B0F9025004FB07F305FB083331F962
:10060000027BB0F9044031F9028BB0F9065004FBCB
:10061000073305FB083331F9027BB0F9084031F9A3
:10062000028BB0F90A5004FB073305FB083331F99C
:10063000027BB0F90C4031F9028BB0F90E5004FB8B
:10064000073305FB083331F9027BB0F9104031F96B
:10065000028BB0F9125004FB073305FB083352F844
:10066000044BC3EB6403012EAEBF73459E46B246F6
:10067000761C202EB7DB0A9BC3F800A00B9BC3F8A7
:1006800000E0BDE8F08700000648804706480047C4
:10069000FEE7FEE7FEE7FEE7FEE7FEE7FEE7FEE732
:1006A000FEE7FEE725940008990100082DE9F05FB8
:1006B0000546002092469B468846064681464024D1
:1006C0001BE0284641464746224600F0E0F85346E4
:1006D0005A46C01A914110D311461846224600F0DE
:1006E000C7F82D1A67EB01084F462246012000216A
:1006F00000F0BEF817EB00094E41201EA4F10104E2
:10070000DFDC484631462A464346BDE8F09F2DE9E6
:10071000F0410024061B254671F1000605DA01248C
:100720000027D0EB070067EB0101161E73F10006EE
:1007300005DA0027D2EB0702012567EB0303FFF779
:10074000B5FF86460E4617469C46AC4204D00025AF
:10075000D0EB050E65EB010624B10020D2EB0007BB
:1007600060EB030C704631463A466346BDE8F081C3
:100770000649074A0868504343F2390210440860AA
:10078000400870470149086070470000540200208B
:100790006D4EC64110B5431A934209D2831888188A
:1007A00003E010F8011D03F8011D521EF9D210BD1F
:1007B00040EA01039B0703D009E008C9121F08C0E3
:1007C000042AFAD203E011F8013B00F8013B521E63
:1007D000F9D210BDD2B201E000F8012B491EFBD2C4
:1007E00070470022F6E710B513460A46044619463C
:1007F000FFF7F0FF204610BD30B505462A460B46F0
:1008000012F8010B13F8014B08B1A042F8D01CB14B
:10081000002802D06D1CF1E7284630BD421C10F8BC
:10082000011B0029FBD1801A704730B50446002017
:10083000034600E05B1C934203D2E05CCD5C401BAE
:10084000F8D030BD034611F8012B00F8012B002A27
:10085000F9D11846704770B506460BF0A9FA04683E
:1008600005460A220021304600F021F82C6070BDB8
:10087000202A04DB203A00FA02F100207047914060
:10088000C2F1200320FA03F3194390407047202A55
:1008900004DB203A21FA02F00021704721FA02F32A
:1008A000D040C2F1200291400843194670472DE91B
:1008B000F04791460F4680460446002614F8015B37
:1008C0002DB100F03FF80068405DC007F6D12B2D38
:1008D00002D02D2D18D0641E4A463946204600F01D
:1008E00035F827B13968A14201D1C7F800807105F8
:1008F0004FF002040BD54042002803DD0BF058FAFC
:100900000460A007BDE8F08746F48066E4E70028AD
:10091000F8DA0BF04DFA04606FF00040F2E70000E7
:10092000064C074D06E0E06840F0010394E807003C
:1009300098471034AC42F6D3FFF732FC6C5A0308E8
:100940008C5A030800487047C85903082DE9F05F26
:1009500082460078002715468B460AF10104B94605
:10096000302801D09DB113E014F8010B012778283D
:1009700003D0582801D045B10AE00DB1102D07D1A0
:100980000027102514F8010B02E0082500E00A25D5
:100990000026B0460EE005FB080005FB06F1012726
:1009A00001EB10461FFA80F8B6F5803F00D3B94638
:1009B00014F8010B294600F018F80028EBDABBF117
:1009C000000F05D00FB1641E00E05446CBF8004084
:1009D000B9F1000F06D00BF0EBF902210160C81E3F
:1009E000BDE8F09F48EA0640FAE73A2800D23038DE
:1009F00020F02002412A01D3A2F13700884201D31E
:100A00004FF0FF30704770B58C1810F8015B15F08F
:100A1000070301D110F8013B2A1106D110F8012B70
:100A200003E010F8016B01F8016B5B1EF9D12B0795
:100A300005D40023521E0DD401F8013BFAE710F84B
:100A4000013BCB1A921C03E013F8015B01F8015B38
:100A5000521EF9D5A142D8D3002070BD2DE9F04136
:100A6000DDF81CE0DEF8004030F9026B04F5805838
:100A700006EB683808F30F0722F8027BB1F9007023
:100A8000DEF8045007FB0654CEF80040B1F90270BE
:100A9000DEF8084007FB0645CEF80450B1F90470B3
:100AA000DEF80C5007FB0654CEF80840B1F906708A
:100AB000DEF8104007FB0645CEF80C50B1F908707F
:100AC000DEF8145007FB0654CEF81040B1F90A7056
:100AD000DEF8184007FB0645CEF81450B1F90C704B
:100AE000DEF81C5007FB0654CEF81840B1F90E7022
:100AF000DEF8204007FB0645CEF81C50B1F9107017
:100B0000DEF8245007FB0654CEF82040B1F91270ED
:100B100007FB06F7CEF824705B1EA3D1BDE8F08179
:100B200070B50546AC6B206C00F0500050BB206CDB
:100B300040F4007020642068806800F04050E8B9FC
:100B4000207ED8B92068C06A00F4700020B1206807
:100B5000806800F4806088B92068406820F0200038
:100B600021684860206C20F480702064206C00F4C0
:100B7000805018B9206C40F001002064204600F03D
:100B800075FC0BE0206C00F0100018B1204600F05E
:100B900089FC03E0A06BC16C2846884770BD70B526
:100BA0000546AC6B40202064606C40F0040060643B
:100BB000204600F077FC70BD70B50446A56B284652
:100BC00000F062FC70BD000055494A6822F44032D2
:100BD0004A604A6843681A434A600268526822F4CD
:100BE000807203685A6002685368026943EA02220D
:100BF00003685A600268526822F0407203685A60C3
:100C00000268526883681A4303685A6002689268EF
:100C100022F4006203689A6002689268C3681A430B
:100C200003689A603F4B826A9A4218D002689268C1
:100C300022F0706203689A6002689268836A1A43BD
:100C400003689A600268926822F0405203689A60D2
:100C500002689268C36A1A4303689A600BE00268EC
:100C6000926822F0706203689A600268926822F0CB
:100C7000405203689A600268926822F00202036898
:100C80009A6002689368027E43EA420203689A60AF
:100C90002022125CA2B10268526842F4006203682A
:100CA0005A600268526822F4604203685A6002681F
:100CB0005368426A521E43EA423203685A6005E0B2
:100CC0000268526822F4006203685A600268D26ABD
:100CD00022F470020368DA620268D36A828B521EC1
:100CE00043EA02520368DA620268926822F40072F0
:100CF00003689A600268936890F8302043EA4222C1
:100D000003689A600268926822F4806203689A60BD
:100D100002689368426943EA822203689A607047D6
:100D2000002301400100000F7047000010B5044689
:100D30002146024802F0BAFE10BD00001003002058
:100D400010B5044802F0C5FE042801D0012010BDF2
:100D50000020FCE71003002010B5002400F014F878
:100D6000012801D0012010BD064802F0C7FF04464B
:100D700034B94FF40061034802F04BFD00B1012487
:100D80002046F0E71003002008B5012000909DF8F0
:100D9000000008BD2DE9F04104460D461646002727
:100DA00033462A462146044803F0F4F900B10127EE
:100DB0003846BDE8F0810000100300200120014901
:100DC00008607047540000202DE9F04104460D46AC
:100DD0001646002733462A462146044803F07AFB8C
:100DE00000B101273846BDE8F08100001003002063
:100DF00001200149086070475000002000BFFEE755
:100E00000246002000BF02E000231354401C884229
:100E1000FADB704710B5024800F024FD10BD000059
:100E2000B002002010B5024800F01CFD10BD00000B
:100E30009403002010B5024800F014FD10BD00001E
:100E4000F40300200146087810381823B0FBF3F2B1
:100E50000848805CC865032A05D908686FF3090053
:100E6000001D886503E008686FF309008865886DD8
:100E700070470000688D0108014600208A6A8B696E
:100E8000CBB932B1012A0DD0022A03D0032A10D1E6
:100E90000EE000BFCB6A03F08073B3F1807F00D116
:100EA000012007E0CB6AB3F1C07F00D1012001E04F
:100EB00000E000BF34E08B69B3F5005F1AD132B1B6
:100EC000012A07D0022A03D0032A11D10AE000BF69
:100ED00001200EE0CB6A03F08073B3F1807F00D174
:100EE000012006E0CB6AB3F1C07F00D1012000E011
:100EF00000BF15E032B1012A05D0022A04D0032A2E
:100F00000CD103E000BF00BF012008E0CB6A03F072
:100F10008073B3F1807F00D1012000E000BF00BFEB
:100F2000704730B50468246824F4802405682C6078
:100F3000046863608468402C04D10468A26004687B
:100F4000E16003E00468A1600468E26030BD7047BE
:100F500010B5022000F0F4FF10BD704730B5044614
:100F60000D4600222946204600F002F830BD000060
:100F7000F0B50346012500241148407A01281CDA07
:100F800000200F4E767A0E4FB8553846467A001D2F
:100F900040F82630001F467A083082553E46707A67
:100FA000461C7E72044604F1300008703A204870F6
:100FB0002F2088700020C87000252846F0BD000052
:100FC0003065012010B5002201B909E0012901D1E5
:100FD0000A0205E0022901D10A0201E04FF4407241
:100FE0000E4B1B6823F440730C4C236023461B6894
:100FF0001343236023461B6823F0F8032360234632
:101000001B68022444EAC0042343044C23602346A3
:101010001B6843F48033236010BD0000103C024085
:101020001C48006800F40070B0B11A48006820F451
:1010300000701849086000BF0846006840F400606E
:1010400008600846006820F40060086000BF084699
:10105000006840F4007008600E48006800F480608A
:10106000B0B10C48006820F480600A49086000BFF5
:101070000846006840F4805008600846006820F484
:101080008050086000BF0846006840F48060086037
:1010900070470000003C02400A4A126822F4407285
:1010A000084B1A601A46126842F004021A601A4687
:1010B00012684FF4803343EA00231A43014B1A604D
:1010C00070470000103C0240074A126822F4407248
:1010D000054B1A601A4612681A601A46126842F0E6
:1010E00001021A6001707047103C024010B50949B6
:1010F000096821F44071074C21602146096841F4D8
:10110000407121602146096841F0010121600260BF
:10111000436010BD103C0240084A126822F440723D
:10112000064B1A601A46126842F480721A601A4618
:10113000126842F001021A6001807047103C0240C0
:10114000084A126822F44072064B1A601A46126866
:1011500042F400721A601A46126842F001021A60E4
:1011600001607047103C02402A48006800F01000FF
:1011700040B12948C06940F010002749C8611020DB
:10118000244908602348006800F0200040B122484C
:10119000C06940F008002049C86120201D4908604E
:1011A0001C48006800F0400040B11B48C06940F096
:1011B00004001949C86140201649086015480068B4
:1011C00000F0800040B11448C06940F002001249AC
:1011D000C86180200F4908600E48006800F48070E4
:1011E00048B10D48C06940F001000B49C8614FF497
:1011F0008070084908600748006800F0020040B1AC
:101200000548C06940F020000349C8610220014937
:10121000086070470C3C0240B823002070B50446BB
:10122000002500201449C86100F09AFF054609E036
:10123000601C38B124B100F093FF401BA04201D9DB
:10124000032070BD0D48006800F480300028EFD105
:101250000A48006800F0010010B101200749086049
:101260000648006800F4F97018B1FFF77DFF01200F
:10127000E7E70020E5E70000B82300200C3C02402F
:1012800010B501221021024800F063FF10BD0000DC
:101290000000024070B50A480468001D0568001D82
:1012A0000668344454B108220649204604F0A0F8E8
:1012B000042204491031284604F09AF870BD000059
:1012C000107AFF1F9600002038B5024600200090DB
:1012D00000BF92F83C00012801D1022038BD012056
:1012E00082F83C0000BF0868092816D91068C06859
:1012F0000C780A3C04EB44050724AC40A043146876
:10130000E0600C780A3C04EB44048868A040146850
:10131000E46820431468E06013E0106800690C780A
:1013200004EB44050724AC40A043146820610C780A
:1013300004EB44048868A0401468246920431468BE
:1013400020614868072817D21068406B0C79641E2A
:1013500004EB84051F24AC40A04314686063088834
:1013600080B20C79641E04EB8404A0401468646BA2
:1013700020431468606331E048680D2817D2106874
:10138000006B0C79E41F04EB84051F24AC40A043E0
:1013900014682063088880B20C79E41F04EB84048D
:1013A000A0401468246B20431468206316E0106882
:1013B000C06A0C790D3C04EB84051F24AC40A043AB
:1013C0001468E062088880B20C790D3C04EB840458
:1013D000A0401468E46A20431468E0621E4B1F4C6E
:1013E0001068A0420AD10868122807D1586820F472
:1013F00000005860586840F480005860174C10682E
:10140000A04222D1164C0868A04202D008681128D8
:101410001BD1586820F480005860586840F40000E0
:1014200058600F4C0868A0420FD10E4800680E4C5F
:10143000B0FBF4F000EB80004000009002E0009868
:10144000401E009000980028F9D100BF002082F8CB
:101450003C0000BF00BF41E70023014000200140E5
:1014600012000010E000002040420F0010B50446BA
:101470004FF480620249034817F0B2FB10BD000030
:10148000802C00206428002010B504464FF48062B0
:101490000249034817F0A4FB10BD0000802800207B
:1014A000642800207047000070B5044600250CB980
:1014B000012070BD1549A06A884200D000BF206C91
:1014C00030B9204600F024F80020606484F83C0025
:1014D000206C00F0100088B9206C20F4885040F097
:1014E000020020642046FFF76FFB00206064206C40
:1014F00020F0020040F00100206400E0012500BF60
:10150000002084F83C0000BF2846D2E70100000F0D
:1015100010B586B00446142101A8FFF762F92949E5
:10152000206888424CD100BF002000902648006807
:1015300040F48070244908600846006800F4807018
:10154000009000BF00BF00BF002000901E4814386C
:10155000006840F001001C49143908600846006822
:1015600000F00100009000BF00BF022001900320A6
:1015700002900020039001A9144800F0EFFC1448E9
:101580001449086000204860002112488160C16051
:101590004FF4806101614900416189008161491115
:1015A000C1614FF4403101620021416200F07AFADA
:1015B00008B1FFF7D2FC00BF0648A063846300BFF8
:1015C00006B010BD00200140443802400000024037
:1015D00010640240B0020020F8B504460D461646DD
:1015E0000020009000BF94F83C00012801D10220A7
:1015F000F8BD012084F83C0000BF2068806800F03E
:101600000100A0B92068806840F00100216888606E
:101610003D4800683D49B0FBF1F000EB4000009010
:1016200002E00098401E009000980028F9D1206840
:10163000806800F00100002864D0206C40F2016155
:10164000884340F4807020642068406800F4806023
:1016500028B1206C20F4005040F480502064206CAD
:1016600000F48050B0F5805F04D1606C20F006007B
:10167000606401E00020606400BF002084F83C004A
:1016800000BF234F2348A16BC8632348A16B0864A4
:101690002248A16BC8646FF02200216808602068AE
:1016A000406840F08060216848602068806840F4AD
:1016B000807021688860226802F14C0133462A4616
:1016C000A06B00F065FA786800F01F0058B9206838
:1016D000806800F0405028B92068806840F0804061
:1016E000216888600EE00E49206888420AD120688F
:1016F000806800F0405028B92068806840F0804041
:1017000021688860002073E7E000002040420F005D
:1017100000230140210B0008B90B00089F0B0008B3
:101720000020014070B50446002500BF94F83C003D
:10173000012801D1022070BD012084F83C0000BFC7
:101740002068806820F00100216888602068806837
:1017500000F00100A8B92068806820F4807021683A
:101760008860A06B00F014F805462068406820F0FF
:10177000806021684860206C20F4885040F00100AF
:10178000206400BF002084F83C0000BF2846D2E758
:1017900070B50446A56D00F0E3FC064694F83500EC
:1017A000022808D08020606500BF002084F8340043
:1017B00000BF012070BD2068006820F0160021687D
:1017C00008602068406920F0800021684861206C32
:1017D00008B9A06C28B12068006820F008002168D2
:1017E00008602068006820F00100216808600FE0B0
:1017F00000F0B6FC801B05280AD92020606500BFD8
:10180000002084F8340000BF032084F83500D1E7BD
:101810002068006800F001000028E9D194F85C100D
:101820003F208840A86000BF002084F8340000BF3B
:10183000012084F835000020BCE7014691F835000E
:10184000022803D08020486501207047052081F8D8
:1018500035000868006820F001000A681060002068
:10186000F3E70000F8B50446002000908C480068BB
:101870004FF41651B0FBF1F7A56D2E6894F85C108B
:1018800008208840304098B12068006800F00400CB
:1018900070B12068006820F004002168086094F8A6
:1018A0005C1008208840A860606D40F00100606511
:1018B00094F85C1001208840304068B1206840698D
:1018C00000F0800040B194F85C1001208840A860CE
:1018D000606D40F00200606594F85C100420884060
:1018E000304068B12068006800F0020040B194F810
:1018F0005C1004208840A860606D40F004006065C2
:1019000094F85C1010208840304078B3206800685C
:1019100000F0080050B394F85C1010208840A860D4
:101920002068006800F4802080B12068006800F41E
:10193000002028B9206CC8B12046216C884715E0EA
:10194000A06C98B12046A16C88470FE02068006821
:1019500000F4807028B92068006820F00800216831
:101960000860206C10B12046216C884794F85C1008
:10197000202088403040002865D02068006800F0B2
:10198000100000285FD094F85C1020208840A860E8
:1019900094F83500052828D12068006820F016004A
:1019A000216808602068406920F080002168486153
:1019B000206C08B9A06C28B12068006820F00800ED
:1019C0002168086094F85C103F208840A86000BF40
:1019D000002084F8340000BF012084F83500206D19
:1019E00010B12046216D8847F8BD2068006800F4DA
:1019F000802080B12068006800F4002028B9606C65
:101A000010B12046616C88471DE0E06BD8B12046DC
:101A1000E16B884717E02068006800F4807068B9BF
:101A20002068006820F010002168086000BF0020D6
:101A300084F8340000BF012084F83500E06B10B159
:101A40002046E16B8847606D38B3606D00F001009F
:101A5000F0B1052084F835002068006820F001000E
:101A60002168086000BF0098401C0090B84200D96F
:101A700005E02068006800F001000028F3D100BFF5
:101A800000BF002084F8340000BF012084F8350036
:101A9000E06C10B12046E16C884700BFA4E700006D
:101AA000E00000202DE9F0410446002500F058FB3D
:101AB000074614B90120BDE8F081606A00B100BF9B
:101AC00000BF002084F8340000BF022084F83500F5
:101AD0002068006820F00100216808600AE000F03A
:101AE0003FFBC01B052805D920206065032084F832
:101AF0003500E0E72068006800F001000028EED122
:101B00002068056821480540D4E901010843E168DF
:101B100008432169084361690843A1690843E169F1
:101B20000843216A08430543606A042803D1D4E9C5
:101B30000B0108430543206805602068456925F0CE
:101B40000705606A0543606A04280DD1A06A054351
:101B5000E06A48B12046FFF78FF928B14020606560
:101B6000012084F83500A6E7206845612046FFF78C
:101B700069F9064694F85C103F208840B060002068
:101B80006065012084F83500002094E73F8010F064
:101B90002DE9F04704460D4616461F464FF0000853
:101BA000D4F8589000BF94F83400012802D10220E4
:101BB000BDE8F087012084F8340000BF94F83500B8
:101BC00001282BD1022084F83500002060653B46B7
:101BD000324629462046FFF7A4F994F85C103F20CE
:101BE0008840C9F808002068006840F016002168A5
:101BF00008602068406940F0800021684861206CDE
:101C000028B12068006840F008002168086020685A
:101C1000006840F001002168086006E000BF002075
:101C200084F8340000BF4FF002084046C0E70000CF
:101C300070B5044600F094FA06462546681C10B1BB
:101C400004480078054400BF00F08AFA801BA842CF
:101C5000FAD370BDDC0000202DE9F04104460E46A9
:101C60000127002500BF2548007E012802D102205F
:101C7000BDE8F08101202149087600BF4CF25030C8
:101C8000FFF7CCFA0746002F31D1401E30602068A4
:101C900001280FD1207C6168FFF7FEF94CF250302B
:101CA000FFF7BCFA07461648006820F00400144904
:101CB00008601AE0A56812E0217C2846FFF782F947
:101CC0004CF25030FFF7AAFA07460D48006820F0A2
:101CD000FA000B4908600FB1356005E06D1CD4E9CE
:101CE00002100844A842E7D800BFFFF799F900BFE7
:101CF00000200249087600BF3846B9E7B823002023
:101D0000103C02400348006840F000400149086070
:101D100000207047103C02402DE9F04106460F4676
:101D200014461D464FF0010800BF1F48007E0128E1
:101D300002D10220BDE8F08101201B49087600BFD6
:101D40004CF25030FFF76AFA8046B8F1000F23D109
:101D500026B9E1B23846FFF7B7F912E0012E04D1F7
:101D6000A1B23846FFF7D8F90BE0022E04D1214684
:101D70003846FFF7E5F904E022462B463846FFF7E0
:101D8000B5F94CF25030FFF749FA80460748006831
:101D900020F001000549086000BF002002490876D4
:101DA00000BF4046C6E70000B8230020103C0240B8
:101DB00000200949096801F0004159B10749064A64
:101DC0000C3A1160064911600349096801F00041AD
:101DD00001B1012070470000103C0240230167451B
:101DE000AB89EFCDF0B50C46002500220023002181
:101DF00081E0012606FA01F504EA0502AA4279D13A
:101E00003F4E8F0856F827308E07370F0F26BE40FB
:101E100033403C4EB04201D1002614E03A4EB0426D
:101E200001D101260FE0394EB04201D102260AE06D
:101E3000374EB04201D1032605E0364EB04201D103
:101E4000042600E007268F073F0FBE409E4222D1A6
:101E50008E07370F0F2606FA07F3294E8F0856F81C
:101E600027609E43264F4FEA910C47F82C602A4E7C
:101E700036689643284F3E603E1D366896433F1DA8
:101E80003E603E1D366896433F1D3E603E1D3668EF
:101E900096433F1D3E6006684FEA410C032707FA50
:101EA0000CF7BE430660CF0800F1200656F8276005
:101EB0004F074FEAD76C0F2707FA0CF7BE434FEADC
:101EC000D10C00F1200747F82C6086684FEA410CDE
:101ED000032707FA0CF7BE438660466801278F4048
:101EE000BE434660C6684FEA410C032707FA0CF769
:101EF000BE43C660491C1029FFF47BAFF0BD000053
:101F0000083801400000024000040240000802407E
:101F1000000C024000100240003C014010B5044695
:101F200005480078012806D100220121034800F06D
:101F300010F900BFFEE710BD0000002000040240C1
:101F400010B5044604480068204020B102480460EF
:101F50002046FFF7E3FF10BD143C0140F8B50346EF
:101F60000A460025002400200021CDE0012606FAC3
:101F700001F5166806EA0504AC4273D15668022ED4
:101F800002D05668122E13D1CF0803F1200656F85E
:101F900027004E07F70E0F26BE40B0434F07FF0E37
:101FA0001669BE403043CF0803F1200646F82700EB
:101FB00018684F000326BE40B043167906F00306AA
:101FC0004F00BE40304318605668012E08D0566856
:101FD000022E05D05668112E02D05668122E13D14B
:101FE00098684F000326BE40B0434F00D668BE40FD
:101FF00030439860586801268E40B0431679C6F386
:1020000000168E4030435860D8684F000326BE400B
:10201000B0434F009668BE403043D860566806F023
:102020008056B6F1805F6ED100BF00260096384E14
:10203000366846F48046364F3E603E46366806F4C3
:102040008046009600BF00BF324E8F0856F827002A
:102050008E07370F0F26BE40B0432F4EB34202D13A
:10206000002615E04FE02D4EB34201D101260FE0CE
:102070002B4EB34201D102260AE02A4EB34201D1CF
:10208000032605E0284EB34201D1042600E00726CE
:102090008F073F0FBE4030431E4E8F0846F8270083
:1020A000224E3068A043566806F48036B6F5803F6D
:1020B00000D120431D4E3060361D3068A043566865
:1020C00006F40036B6F5003F00D12043174E361D0A
:1020D0003060361D3068A043566806F48016B6F5A9
:1020E000801F00D12043114E08363060361D306805
:1020F000A043566806F40016B6F5001F00D1204331
:102100000A4E0C363060491C1029FFF42FAFF8BD81
:1021100044380240083801400000024000040240F8
:1021200000080240000C024000100240003C014048
:10213000024613690B400BB1012000E000207047FC
:1021400042690A408A4202D10A04826100E0816148
:1021500070470AB1816101E00B04836170470000A0
:102160000148006870470000D40000200148006862
:1021700070470000107AFF1F014800687047000098
:10218000147AFF1F0148006870470000187AFF1F8B
:10219000034800680349097808440149086070470A
:1021A000D4000020DC00002010B50D48006840F489
:1021B00000700B4908600846006840F480600860C1
:1021C0000846006840F480700860032000F0C4F8FE
:1021D000002000F007F800F02BF8002010BD0000F0
:1021E000003C024070B504460E4800784FF47A7106
:1021F000B1FBF0F00C490968B1FBF0F5284602F09C
:10220000BAFB08B1012070BD102C07D20022214674
:10221000501E00F063F80548046001E00120F2E779
:102220000020F0E7DC000020E0000020D8000020C3
:1022300008B500BF002000900E48006840F48040C0
:102240000C4908600846006800F48040009000BF18
:1022500000BF00BF00200090081F006840F08050C1
:10226000091F08600846006800F08050009000BF19
:1022700000BF08BD4438024010B50146084600289A
:1022800017DB00F01F0301229A400B4B440943F86F
:10229000242000BF00BF00BFBFF34F8F00BF00BFAF
:1022A00000BF00BF00BF00BFBFF36F8F00BF00BF04
:1022B00000BF00BF10BD000080E100E001460846FD
:1022C000002809DB00F01F0301229A4043099B000C
:1022D00003F1E023C3F8002100BF70472DE9F05F50
:1022E00080460D461646002709F046FD074639464A
:1022F0002A46334601F00700C0F1070ABAF1040F7D
:1023000002D94FF0040A01E0C0F1070AD14600F1FA
:10231000040ABAF1070F02D24FF0000A01E0A0F15F
:10232000030AD4464FF0010A0AFA09FAAAF1010A8F
:102330000AEA020A0AFA0CFA4FF0010B0BFA0CFB3C
:10234000ABF1010B0BEA030B4AEA0B0421464046B2
:1023500009F01AFDBDE8F09F00BF00F00702064B30
:1023600019684FF6FF031940044B0B4343EA02215F
:10237000014B196000BF70470CED00E00000FA054A
:10238000704702461068416200207047F0B503466E
:1023900015461868446A21B944EA05401E68B062CF
:1023A00019E01868806A04EB1044002208E01868FD
:1023B00000F5827050F8220004EB1044501CC2B2A9
:1023C000481E9042F3D844EA0547186800F5827029
:1023D0004E1E40F826700020F0BD10B50446D4F81B
:1023E000040407F032FF10BD70B504460D46C5EB7E
:1023F000C50304F13C0101EB8301CA682946D4F806
:10240000040407F040FE70BD70B504460D46C5EBF0
:10241000C50304F5FE7101EB8301CA682946D4F8AF
:10242000040407F0B0FE70BD10B504460CB90120DD
:1024300010BD032084F8BD03204600F0CAFD2046ED
:1024400000F0F4FC002084F8BD0300BFF0E710B5F5
:102450000446D4F8040407F0FBFE10BD70B5044632
:102460000E4606F0800080280AD106F00F00C0EB6F
:10247000C00104F13C0000EB81050120687009E017
:1024800006F00F00C0EBC00104F5FE7000EB810503
:102490000020687006F00F00287000BF94F8BC039D
:1024A000012801D1022070BD012084F8BC0300BFC7
:1024B0002946206808F05AFD00BF002084F8BC03BC
:1024C00000BF00BFEFE770B504460E4606F00F00F0
:1024D0006168884201D9012070BD06F08000802823
:1024E0000AD106F00F00C0EBC00104F13C0000EB84
:1024F00081050120687009E006F00F00C0EBC00103
:1025000004F5FE7000EB8105002068700020A870C3
:1025100006F00F00287000BF94F8BC03012801D119
:102520000220D9E7012084F8BC0300BF29462068B7
:1025300008F0C4FF00BF002084F8BC0300BF00BF48
:10254000CAE770B504460D4600BF94F8BC030128E5
:1025500001D1022070BD012084F8BC0300BF05F04A
:102560008000802805D105F00F01206809F0FAF9F4
:1025700002E0206809F0E0F900BF002084F8BC0305
:1025800000BF00BFE6E7024601F00F00C0EBC0034A
:1025900002F5FE7000EB8300806970472DE9F0477B
:1025A00005460E4690461F464FF0000906F0800093
:1025B00080280AD106F00F00C0EBC00105F13C00F5
:1025C00000EB81040120607009E006F00F00C0EB11
:1025D000C00105F5FE7000EB81040020607006F07C
:1025E0000F002070C4F80880E770607808B1207888
:1025F000E080022F01D10020207100BF95F8BC03BC
:10260000012802D10220BDE8F087012085F8BC0333
:1026100000BF2146286808F0B5FB00BF002085F800
:10262000BC0300BF4846EEE72DE9F04104460E46E4
:102630001746984606F00F00C0EBC00104F5FE7087
:1026400000EB8105EF60C5F814800020A861687078
:1026500006F00F0028702069012800D12F6106F0D4
:102660000F0028B9227C2946206808F003FE04E008
:10267000227C2946206808F0B5FF0020BDE8F081E3
:1026800070B504460D4605F00F006168884201D917
:10269000012070BD05F0800080280AD105F00F00F0
:1026A000C0EBC00104F13C0000EB8106012070701A
:1026B00007E0C5EBC50104F5FE7000EB81060020C4
:1026C00070700120B07005F00F00307000BF94F8FA
:1026D000BC03012801D10220DBE7012084F8BC0300
:1026E00000BF3146206808F030FF05F00F0028B920
:1026F000217C04F57172206808F0A8FE00BF00205C
:1027000084F8BC0300BF00BFC3E72DE9F0410446D5
:102710000E461746984606F00F00C0EBC00104F1C4
:102720003C0000EB8105EF60C5F814800020A86133
:102730000120687006F00F0028702069012800D180
:102740002F6106F00F0028B9227C2946206808F086
:1027500091FD04E0227C2946206808F043FF002018
:10276000BDE8F0812DE9FE4F044620680290029EEC
:10277000206809F022F900287DD1206809F05CF971
:1027800008B9BDE8FE8F206809F056F900F0020094
:10279000022805D12068406900F0020021684861E4
:1027A000206809F049F900F40020B0F5002F58D155
:1027B0000025206809F010F982464FE00AF0010078
:1027C000002848D0E9B2206809F029F9804608F0CD
:1027D000010048B1012106F5306000EB4510816031
:1027E0002946204603F0C8FD08F00800082809D152
:1027F0002946204603F07AFD082106F5306000EBFB
:102800004510816008F01000102805D1102106F550
:10281000306000EB4510816008F0200020280ED1C8
:102820002069012805D104F571720121206808F0A2
:102830000DFE202106F5306000EB4510816008F4A4
:102840000050B0F5005F06D14FF4005106F530603E
:1028500000EB451081606D1C4FEA5A0ABAF1000F77
:10286000ACD1206809F0E8F800F48020B0F5802FA2
:102870007ED1206800E012E209F0A4F8824600252B
:1028800086E00AF0010000287FD0E9B2206809F054
:10289000ADF8804608F00100E8B305F00F01012013
:1028A0008840019040F634008159019821EA0000E7
:1028B00040F634018851012106F5106000EB451007
:1028C00081602069012815D1C5EBC50104F13C00E8
:1028D00000EB8100C5EBC502C16804F13C0000EBD0
:1028E000820080680144C5EBC50204F13C0000EBA6
:1028F0008200C160E9B22046FFF776FD2069012819
:1029000010D145B9C5EBC50104F13C0000EB8100D5
:10291000406900B900E005E004F57172012120680A
:1029200008F094FD08F00800082805D1082106F5F4
:10293000106000EB4510816008F01000102805D1F0
:10294000102106F5106000EB4510816008F0400092
:10295000402805D1402106F5106000EB451081604C
:1029600008F00200022808D1022106F5106001E0FB
:1029700012E00AE000EB4510816008F0800080283A
:1029800003D12946204603F0B7FD6D1C4FEA5A0AD1
:10299000BAF1000F7FF475AF206809F04DF800F030
:1029A0000040B0F1004F1CD140F60400805920F0E7
:1029B000010140F60400815194F8F403012807D185
:1029C000002084F8F40300212046FFF7D9FC02E040
:1029D000204600F0A7FA2068406900F00040216816
:1029E0004861206809F028F800F40060B0F5006F35
:1029F0000ED140F60800805900F0010010B12046C9
:102A000000F00CFB2068406900F400602168486118
:102A1000206809F011F800F48050B0F5805F72D1A1
:102A200040F60400805920F0010140F60400815175
:102A30001021206808F096FF002726E04FF67F312E
:102A400006F5106000EB4710816006F5106000EBA2
:102A50004710006820F4001106F5106000EB4710E5
:102A600001604FF67F3106F5306000EB4710816062
:102A700006F5306000EB4710006820F4001106F501
:102A8000306000EB471001607F1C6068B842D5D809
:102A900040F61C00805940F0011140F61C008151A5
:102AA000206B70B1D6F8840840F00B01C6F884188A
:102AB00040F64400805940F00B0140F6440081513B
:102AC0000FE040F61400805942F22B01084340F613
:102AD00014018851081F805940F00B014FF4016028
:102AE0008151D6F8000820F4FE60C6F80008217C69
:102AF00004F57172206808F0A9FC2068406900F4B0
:102B0000805021684861206808F096FF00F400506A
:102B1000B0F5005F17D1206808F09CF9206808F034
:102B200039FFE06000F0CEFB0090227B2068009926
:102B300008F0D2FF204600F0E3F92068406900F475
:102B4000005021684861206808F076FF00F010000E
:102B5000102846D12068806920F010002168886123
:102B60000298D0F8209009F00F00C0EBC00104F5E6
:102B7000FE7000EB810BC9F3434002281AD147F6DF
:102B8000F07009EA000030B3C9F30A12DBF80C1048
:102B9000029808F056FFC9F30A11DBF80C0008444C
:102BA000CBF80C00C9F30A11DBF818000844CBF885
:102BB000180010E0C9F3434006280CD1082204F5A0
:102BC0007171029808F03DFFC9F30A11DBF8180093
:102BD0000844CBF818002068806940F01000216894
:102BE0008861206808F028FF00F00800082808D154
:102BF000204600F09EF92068406900F00800216836
:102C00004861206808F018FF00F48010B0F5801FBC
:102C10000AD100252946204600F043F82068406983
:102C200000F4801021684861206808F005FF00F476
:102C30000010B0F5001F0AD100252946204600F0FB
:102C400039F82068406900F4001021684861206864
:102C500008F0F2FE00F08040B0F1804F08D120462D
:102C6000FFF7BBFB2068406900F0804021684861A5
:102C7000206808F0E1FE00F0040004280FD120686D
:102C8000D0F8049009F00400042802D12046FFF790
:102C9000DEFB2068406840EA09002168486000BF08
:102CA0006FE570B504460D462946D4F8040407F0D4
:102CB00049FB70BD70B504460D462946D4F804049E
:102CC00007F043FB70BD70B58AB0044614B901200B
:102CD0000AB070BD266894F8BD0328B9002084F8B6
:102CE000BC03204600F0BCF8032084F8BD03F06B61
:102CF00000F4807008B900212161206808F0B2FA60
:102D0000282204F110016846FDF744FD94E80F0005
:102D100008F0C4F820B1022084F8BD030120D7E7F1
:102D20000021206808F09EFE002531E00121C5EB5E
:102D3000C50204F13C0000EB82004170C5EBC50107
:102D400004F13C0000F82150C5EBC50100EB810007
:102D5000C5800021C5EBC50204F13C0000EB8200F8
:102D6000C170C5EBC50204F13C0000EB820081603C
:102D7000C5EBC50204F13C0000EB8200C160C5EB6D
:102D8000C50204F13C0000EB82004161681CC5B241
:102D90006068A842CAD800252AE00021C5EBC50218
:102DA00004F5FE7000EB82004170C5EBC50104F52F
:102DB000FE7000F821500021C5EBC50200EB820037
:102DC000C170C5EBC50204F5FE7000EB82008160A6
:102DD000C5EBC50204F5FE7000EB8200C160C5EBD7
:102DE000C50204F5FE7000EB82004161681CC5B2AB
:102DF0006068A842D1D8282204F110016846FDF786
:102E0000C9FC94E80F0008F033F920B1022084F8DF
:102E1000BD0301205CE7002084F83800012084F81D
:102E2000BD03206808F014F9002051E710B50446EE
:102E30002068B0F1A04F0DD10748006820F0800055
:102E4000054908604FF4C0510448FEF7CBFF43200A
:102E5000FFF712FA10BD00003438024000000240B3
:102E600010B586B004462068B0F1A04F42D100BF33
:102E7000002000902048006840F001001E490860D2
:102E80000846006800F00100009000BF00BF4FF44A
:102E9000C050019002200290002003900320049073
:102EA0000A20059001A91548FFF758F800BF1248FD
:102EB000001D006840F080000F49091D086000BF38
:102EC000002000900C481430006840F480400A490B
:102ED000143108600846006800F48040009000BF8C
:102EE00000BF00BF002211464320FFF7F7F943203F
:102EF000FFF7E4F906B010BD303802400000024090
:102F000070B504460125E068022801D0FEF725F8D7
:102F10002946D4F8040407F091FAD4F8040407F021
:102F200047FA70BD10B50446D4F8040407F06EFAF1
:102F300010BD10B50446D4F8040407F06EFA10BDB5
:102F400070B504460D4600BF94F8BC03012801D1BA
:102F5000022070BD012084F8BC0300BF84F8385003
:102F60002946206808F099FD00BF002084F8BC03C2
:102F700000BF00BFEDE710B5044604F57171D4F849
:102F8000040407F072FA10BD70B50446256800BF4E
:102F900094F8BC03012801D1022070BD012084F8FF
:102FA000BC0300BFA06A012806D1A069012803D094
:102FB000A86B40F48030A863206808F039F82068D6
:102FC00008F0B2FC00BF002084F8BC0300BF00BFC3
:102FD000E3E710B5044600BF94F8BC03012801D113
:102FE000022010BD012084F8BC0300BF206808F057
:102FF00039F9206808F0E4FD30B100BF002084F802
:10300000BC0300BF0120ECE7206808F021F800BFF6
:10301000002084F8BC0300BF00BFE2E710B50446FF
:10302000D4F8040407F089FA2068D0F8000E40F0C4
:1030300001002168C1F8000E206A28B10348006829
:1030400040F006000149086010BD000010ED00E0EE
:103050002A49096821F0E00102681143274A1160FA
:103060002749096821F48031254A1160111F096838
:1030700021F48031121F11602149091D096821F4D2
:1030800080311F4A121D1160111D096821F4803121
:10309000121D1160416801F48031B1F5803F07D104
:1030A0001749091F096841F48031154A121F116040
:1030B000416801F40031B1F5003F05D110490968BC
:1030C00041F480310E4A1160017901F0010139B1FA
:1030D0000B49091D096841F48031094A121D11602C
:1030E000017901F00201022907D105490831096877
:1030F00041F48031024A083211607047007000408C
:10310000043C0140012001490861704700000E4263
:1031100010B54FF400410248FFF712F810BD00004F
:103120000008024010B50648006800F4803028B15D
:10313000FFF7EEFF4FF480300149086010BD00003A
:10314000143C014070B504460D460CB9012070BD19
:103150005848006800F00F00A84209D255490D7088
:103160000846006800F00F00A84201D00120EEE7F9
:10317000207800F0020002281DD1207800F0040021
:10318000042805D14C48006840F4E0504A490860E2
:10319000207800F00800082805D14748006840F46E
:1031A0006040454908604448006820F0F000A1688C
:1031B000084341490860207800F00100A8B3606826
:1031C000012807D13C4808380068C0F34040B8B92E
:1031D0000120BCE76068022802D06068032807D19C
:1031E000354808380068C0F3406048B90120AEE7B0
:1031F000314808380068C0F3400008B90120A6E74C
:103200002D48006820F00300616808432A490860DF
:10321000FEF7A6FF064609E0FEF7A2FF801B41F27B
:103220008831884202D9032091E707E022480068EC
:1032300000F00C006168B0EB810FEDD11D48006813
:1032400000F00F00A84209D91A490D70084600681D
:1032500000F00F00A84201D0012078E7207800F0AC
:103260000400042807D11448006820F4E050E16805
:10327000084311490860207800F00800082808D1A8
:103280000D48006820F46040216940EAC1000A4905
:10329000086000F03DF808490968C1F30311074AC6
:1032A000515CC840064908600020FEF79BFF0020E3
:1032B0004DE70000003C024008380240708D0108D4
:1032C000E00000200148006870470000E000002096
:1032D00000B5FFF7F7FF04490968C1F38221034AEB
:1032E000515CC84000BD000008380240808D0108D4
:1032F00000B5FFF7E7FF04490968C1F34231034A0B
:10330000515CC84000BD000008380240808D0108B3
:103310002DE9F047002400250026A1462548006835
:1033200000F00C0020B1042805D008283AD105E0AF
:10333000DFF8849039E0DFF8849036E01D48001F04
:10334000006800F03F041B48001F006800F4800084
:1033500078B11A481749091F0968C1F38811A0FB01
:1033600001700146224600233846FDF79FF90546C5
:103370000EE011480F49091F0968C1F38811A0FB2D
:1033800001700146224600233846FDF78FF90546B5
:103390000848001F0068C0F30140401C4600B5FB10
:1033A000F6F902E0DFF8109000BF00BF4846BDE824
:1033B000F0870000083802400024F40000127A0070
:1033C000F8B504460CB90120F8BD207800F00100E2
:1033D000002874D0F948006800F00C0004280DD0D3
:1033E000F648006800F00C00082813D1F348001FCD
:1033F000006800F48000B0F5800F0BD1EF4808386A
:103400000068C0F34040002859D06068002856D1B9
:103410000120D9E700BF6068B0F5803F08D1E748D8
:103420000838006840F48030E449083908601EE03C
:103430006068B0F5A02F0DD1E0480838006840F46E
:103440008020DE49083908600846006840F4803072
:1034500008600CE0D9480838006820F48030D7496B
:10346000083908600846006820F48020086000BF22
:10347000606890B1FEF774FE054606E0FEF770FE48
:10348000401B642801D903209EE7CC480838006817
:10349000C0F340400028F1D011E0FEF761FE054680
:1034A00006E0FEF75DFE401B642801D903208BE790
:1034B000C24808380068C0F340400028F1D12078A5
:1034C00000F0020002285FD1BC48006800F00C0048
:1034D00058B1BA48006800F00C0008281CD1B74861
:1034E000001F006800F48000B0B9B44808380068D4
:1034F000C0F3400020B1E068012801D0012063E75B
:10350000AE480838006820F0F800216940EAC100A0
:10351000AA490839086037E0E06800B30120A849EB
:103520000860FEF71DFE054606E0FEF719FE401B8B
:10353000022801D9032047E7A04808380068C0F3F3
:1035400040000028F1D09D480838006820F0F800BD
:10355000216940EAC10099490839086014E0002057
:1035600097490860FEF7FCFD054606E0FEF7F8FD0A
:10357000401B022801D9032026E79048083800683C
:10358000C0F340000028F1D1207800F0080008289E
:103590002CD16069A8B101208A490860FEF7E0FDDE
:1035A000054606E0FEF7DCFD401B022801D903209A
:1035B0000AE782486C300068C0F340000028F1D070
:1035C00014E000207F490860FEF7CAFD054606E0CA
:1035D000FEF7C6FD401B022801D90320F4E6774818
:1035E0006C300068C0F340000028F1D1207800F072
:1035F0000400042870D1002670483830006800F0BC
:10360000805090B900BF002000906C4838300068AE
:1036100040F080506949383108600846006800F081
:103620008050009000BF00BF01266748006800F48A
:103630008070B0B96448006840F4807062490860E6
:10364000FEF78EFD054606E0FEF78AFD401B0228C8
:1036500001D90320B8E65C48006800F480700028B7
:10366000F2D000BFA068012808D154486830006833
:1036700040F001005149683108601DE0A06805284C
:103680000DD14E486830006840F004004B49683165
:1036900008600846006840F0010008600CE04748F8
:1036A0006830006820F0010044496831086008462D
:1036B000006820F00400086000BFA068A8B1FEF711
:1036C0004FFD054609E0FEF74BFD401B41F28831F6
:1036D000884202D9032077E626E03848683000683F
:1036E000C0F340000028EED013E0FEF739FD054698
:1036F00008E0FEF735FD401B41F28831884201D9D0
:10370000032061E62D4868300068C0F340000028BF
:10371000EFD1012E07D129483830006820F08050C1
:1037200026493831086000BFA069B8B32348006853
:1037300000F00C0008285ED0A069022846D10020C5
:103740001F490866FEF70CFD054606E0FEF708FD7A
:10375000401B022801D9032036E6184808380068C3
:10376000C0F340600028F1D1D4E907010843616A41
:1037700040EA81110122A06AC2EB500041EA0041F7
:103780002C20005D41EA00600C49091F08600120FF
:103790000B490866FEF7E4FC054607E02DE0FEF75E
:1037A000DFFC401B022801D903200DE6034808383E
:1037B0000068C0F340600028F1D01EE008380240E5
:1037C00000004742800E47420070004000200C4934
:1037D0000866FEF7C5FC054606E0FEF7C1FC401B87
:1037E000022801D90320EFE506480068C0F34060D5
:1037F0000028F2D101E00120E6E50020E4E5000028
:10380000000047420038024010B50446FDF78CFA2C
:1038100010BD70B58AB004460D460026032084F81A
:103820003400606C032820D0B5F5805F04D1A06B14
:1038300040F08050A0631CE0B5F5006F07D1204632
:1038400004F0F3FE0646A06B3043A06311E03DB9DF
:10385000204604F0B5FE0646A06B3043A06308E0A6
:10386000A06B40F00060A06303E0A06B40F08050CC
:10387000A063A06B40B140F2FF5021688863012033
:1038800084F834000AB070BD60680490A0680590A8
:10389000E0680690079560690890A069099007A8FC
:1038A00007C88DE80700206804A90EC904F018F8BD
:1038B000012084F834000020E4E7704730B5034667
:1038C0000022586E020E90090870C2F383004870FF
:1038D00002F003008870586EC0F30742CA70B3F854
:1038E0006400C0F307220A7193F864204A71986E4D
:1038F000020E4FF6FF7000EA0210C880986EC0F307
:103900000742C88840EA1210C88002F00F0008720F
:103910006820C05AC0F30722D0094872C2F3801051
:103920008872C2F34010C872C2F3001008730020FE
:103930004873586C00283ED19007000D086168203C
:10394000C25C086940EA82000861D86E020E08690C
:1039500040EA92100861C2F3C200087502F0070045
:103960004875D86EC0F3074250098875C2F38200CB
:10397000C8759007400F08766C20C05AC0F3072224
:10398000087E40EAD21008760869401C58650C7E13
:10399000586DA41C0125A540684358650C7A012088
:1039A000A0409865D3E91504640A6043D8654FF4D4
:1039B00000741C6630E0586C012821D16820C25C7C
:1039C0009006800A0861D86E020E086940EA02205B
:1039D0000861D86EC0F307420869104308616C2083
:1039E000C05AC0F307220869441C4FF48060A4FB4E
:1039F00000045865D8654FF400749C651C660BE0A4
:103A000040F2FF501C68A063986B40F080509863B0
:103A1000012083F8340030BDC2F3801001F8190F83
:103A20009006400E48706C20C25C487840EAD21084
:103A3000487002F07F008870186F020ED009C870BD
:103A4000C2F341100871C2F3820048719007000F61
:103A50008871186FC0F30742887940EA9210887124
:103A6000C2F34010C8710020087202F001004872D1
:103A70007020C05AC0F30722D0098872C2F38010A8
:103A8000C872C2F340100873C2F300104873C2F347
:103A90008100887302F00300C8737020C25C500874
:103AA00008740120487419390020B4E70246506CAC
:103AB0000860906C4860D06C8860106DC860506D74
:103AC0000861906D4861D06D8861106EC8610020FA
:103AD0007047F8B50446042600250020009069468A
:103AE000204604F054FD054615B1A06B2843A063A1
:103AF0000098C0F343263046F8BD000070B5044678
:103B000000252068406BC0F30020002863D04FF4EC
:103B10008070216888632068C06B40F23A31884326
:103B20002168C863206B00F0080048B3206B00F0E8
:103B3000020018B9206B00F0200050B1206804F09A
:103B400097F805462DB1A06B2843A0632046FFF7E8
:103B5000B4FE40F2FF5021688863012084F83400ED
:103B6000206B00F0010018B9206B00F0020018B1C2
:103B7000204600F0A3FBBCE0204600F0A4FBB8E028
:103B8000206B00F080000028F5D0206B00F02000B2
:103B900050B1206804F06CF805462DB1A06B2843A5
:103BA000A0632046FFF789FE206B00F0010000288B
:103BB000E1D1206B00F002000028DCD12068C06A4F
:103BC00020F008002168C862012084F834002046F3
:103BD00000F079FB8DE02068406BC0F3803038B195
:103BE0004FF4804021688863204604F053FD80E054
:103BF0002068406BC0F3C03038B14FF400402168FA
:103C00008863204604F0B0FC73E02068406B40F20B
:103C10003A21084008B1012000E00020002868D0C7
:103C20002068406BC0F3400018B1A06B40F0020068
:103C3000A0632068406BC0F3C00018B1A06B40F0D7
:103C40000800A0632068406BC0F3401018B1A06B5F
:103C500040F02000A0632068406BC0F3001018B152
:103C6000A06B40F01000A0632068406BC0F34020C0
:103C700018B1A06B40F00800A06340F2FF7021680B
:103C800088632068C06B40F23A3188432168C8637A
:103C9000206B00F0800010B3206C50B11548216CEF
:103CA0000865206CFDF7C9FD10B1206C04F0ABFA7B
:103CB0001FE0E06B50B11048E16B0865E06BFDF769
:103CC000BCFDB0B1E06B04F06FFA12E00020A0631D
:103CD000012084F834002046FFF796FD09E0206BB0
:103CE00000F0080028B1012084F834002046FFF7D6
:103CF000E4FD70BD07820008A981000810B50446E4
:103D00000CB9012010BD94F8340020B900202077B0
:103D1000204600F051F8032084F83400204600F0DB
:103D200009F80020A0632063012084F834000020FB
:103D3000E8E7000030B589B0044600250020039074
:103D400004900590069007907620089006A807C872
:103D50008DE80700206803A90EC903F0C1FD00200B
:103D600014490860206803F0D5FD01201149A039ED
:103D7000C1F8A0000220FDF75BFF204604F07DFBA8
:103D8000054645B1012084F83400A06B2843A063A8
:103D9000012009B030BD204604F0F1FA05463DB1DE
:103DA000012084F83400A06B2843A0630120F0E7D1
:103DB0000020EEE7A080254210B586B0044614210D
:103DC00001A8FCF70EFD5949206888427ED100BF4A
:103DD000002000905648006840F400605449086094
:103DE0000846006800F40060009000BF00BF00BFFC
:103DF000002000904E481438006840F001004C4903
:103E0000143908600846006800F00100009000BF07
:103E100000BF00BF002000900846006840F002008C
:103E200008600846006800F00200009000BF00BF74
:103E30004FF4507001900220029000200390032064
:103E400004900C20059001A93A48FEF787F848F243
:103E5000A000019002200290002003900320049013
:103E60000C20059001A93448FEF778F8334834490E
:103E700008604FF000604860002131488160C160F7
:103E80004FF48061016189004161890081612021D5
:103E9000C1614FF44031016204214162032181621A
:103EA0004FF40001C16289100163FDF7FBFD08B109
:103EB000FDF753F800BF2248E063846300BF1F484A
:103EC0004830204908604FF0006000E02CE0486076
:103ED00040211C4881600021C1604FF48061016174
:103EE00089004161890081612021C1614FF4403125
:103EF000016204214162032181624FF40001C16229
:103F000089100163FDF7CEFD08B1FDF726F800BF6B
:103F10000C482064846300BF002211463120FEF764
:103F2000DDF93120FEF7CAF906B010BD002C0140C2
:103F3000443802400000024000040240586402403D
:103F400094030020F40300202DE9F04F87B00446CD
:103F50008A4690461E46DDF840900025FEF700F99F
:103F60000090AB465746BAF1000F07D1A06B40F066
:103F70000060A063012007B0BDE8F08F94F8340022
:103F800001287DD10020A06308EB0601E06D81428D
:103F900005D9A06B40F00070A0630120EBE703207F
:103FA00084F8340000202168C862606C012801D0C8
:103FB0004FEA48284FF40071206803F009FD0546D8
:103FC00055B140F2FF5021688863A06B2843A0637D
:103FD000012084F83400CEE74FF0FF3001907002EA
:103FE0000290902003900220049000200590012070
:103FF000069001A9206803F041FC012E07D9022098
:1040000020634146206803F04FFD054606E001208D
:1040100020634146206803F064FD054655B140F237
:10402000FF5021688863A06B2843A063012084F8B7
:104030003400A0E72AE02068406B00F4004068B13B
:104040004FF0000B06E0206803F069FC47F82B00F6
:104050000BF1010BBBF1080FF5D32037B9F1000FBD
:1040600005D0FEF77DF80099401A48450ED340F27E
:10407000FF5021688863A06B40F00040A06300E01F
:1040800082E0012084F83400032074E72068406B4C
:1040900040F22A3108400028CDD02068406B00F45F
:1040A0008070A0B1012E12D9606C03280FD0206857
:1040B00003F0DEFD054655B140F2FF5021688863EC
:1040C000A06B2843A063012084F8340053E72068E4
:1040D000406B00F0080058B140F2FF50216888633F
:1040E000A06B40F00800A063012084F8340042E790
:1040F0002068406B00F0020058B140F2FF50216888
:104100008863A06B40F00200A063012084F83400B3
:1041100031E72068406B00F0200058B140F2FF50BA
:1041200021688863A06B40F02000A063012084F820
:10413000340020E719E0206803F0F1FB38603F1DF0
:10414000B9F1000F05D0FEF70BF80099401A484569
:104150000BD340F2FF5021688863A06B40F0004011
:10416000A063012084F8340005E72068406B00F468
:1041700000100028DFD140F2FF5021688863012041
:1041800084F834000020F6E6A06B40F00050A063F5
:104190000120F0E62DE9F04186B004468846164637
:1041A0001D460027B8F1000F07D1A06B40F000605A
:1041B000A063012006B0BDE8F08194F83400012826
:1041C00074D10020A0637119E06D814205D9A06B04
:1041D00040F00070A0630120ECE7032084F8340075
:1041E00000202168C8622068C06B40F22A31084371
:1041F0002168C8632E48E16BC8632E48E16BC86430
:104200000020E16B08656A029308226802F18001D0
:104210004246E06BFDF7BCFC012027490860606C5A
:10422000012800D076024FF0FF3000906802019024
:10423000902002900220039000200490012005901D
:104240006946206803F01AFB4FF40071206803F000
:10425000BFFB074657B140F2FF5021688863A06B4F
:104260003843A063012084F83400A3E7012D07D967
:10427000822020633146206803F016FC074606E0E2
:10428000812020633146206803F02BFC07465FB194
:1042900040F2FF5021688863A06B3843A06301207F
:1042A00084F8340086E701E0002083E7022081E7FC
:1042B00063810008078100088C85254210B50446FB
:1042C000FCF77CFD10BD10B50446FCF791FD10BD58
:1042D0002DE9F04F87B00446884617461E46DDF8A4
:1042E00040B00025FDF73CFF0090A946C246B8F15A
:1042F000000F07D1A06B40F00060A063012007B061
:10430000BDE8F08F94F8340001287DD10020A0632F
:10431000B919E06D814205D9A06B40F00070A0632F
:104320000120ECE7032084F8340000202168C862F3
:10433000606C012800D07F024FF40071206803F008
:1043400047FB054655B140F2FF5021688863A06BDA
:104350002843A063012084F83400D0E7012E07D958
:10436000202020633946206803F0A0FC054606E0C3
:10437000102020633946206803F0B5FC054655B18E
:1043800040F2FF5021688863A06B2843A06301209E
:1043900084F83400B3E74FF0FF30019070020290D0
:1043A000902003900020049005900120069001A920
:1043B000206803F063FA2AE02068406B00F4804034
:1043C00070B14FF0000906E00AEB8901206803F0A4
:1043D000BEFA09F10109B9F1080FF5D30AF1200A73
:1043E000BBF1000F05D0FDF7BBFE0099401A584500
:1043F0000DD340F2FF5021688863A06B2843A0636F
:10440000012084F8340000E05EE0032077E72068B4
:10441000406B40F21A3108400028CDD02068406B34
:1044200000F48070A0B1012E12D9606C03280FD067
:10443000206803F01DFC054655B140F2FF5021688D
:104440008863A06B2843A063012084F8340056E7FA
:104450002068406B00F0080058B140F2FF5021681E
:104460008863A06B40F00800A063012084F834004A
:1044700045E72068406B00F0020058B140F2FF5061
:1044800021688863A06B40F00200A063012084F8DB
:10449000340034E72068406B00F0100058B140F25F
:1044A000FF5021688863A06B40F01000A0630120DA
:1044B00084F8340023E740F2FF502168886301202C
:1044C00084F8340000201AE7A06B40F00050A0638D
:1044D000012014E72DE9F04186B0044688461646CF
:1044E0001D460027B8F1000F07D1A06B40F0006017
:1044F000A063012006B0BDE8F08194F834000128E3
:1045000073D10020A0637119E06D814205D9A06BC1
:1045100040F00070A0630120ECE7032084F8340031
:1045200000202168C8622068C06B40F21A2108434D
:104530002168C8632E48216CC8632E48216CC8646A
:104540000020216C0865606C012800D076024FF4D1
:104550000071206803F03CFA074657B140F2FF5063
:1045600021688863A06B3843A063012084F834007D
:10457000C0E7012D07D9A02020633146206803F051
:1045800095FB074606E0902020633146206803F043
:10459000AAFB074657B140F2FF5021688863A06B21
:1045A0003843A063012084F83400A3E701201249B6
:1045B000086069028B08216801F180024146206C85
:1045C000FDF7E6FA4FF0FF3000906802019090206E
:1045D0000290002003900490012005906946206815
:1045E00003F04CF9002085E7FFE7022082E7000096
:1045F000F5810008078100088C85254210B5044626
:104600000CB9012010BD606A00B900BF0021A16291
:1046100094F8510028B9002084F85000204600F09A
:1046200033F8022084F851002068006820F0400030
:1046300021680860D4E901010843E1680843216961
:10464000084361690843218B01F400710843E16963
:104650000843216A0843A16A0843216808600421CD
:10466000A06901EA1040616A084321684860206837
:10467000C06920F400602168C861002060650120E5
:1046800084F851000020BDE710B586B0044614211F
:1046900001A8FCF7A6F82949206888424CD100BF40
:1046A000002000902648006840F4805024490860AB
:1046B0000846006800F48050009000BF00BF00BFB3
:1046C000002000901E481438006840F001001C498A
:1046D000143908600846006800F00100009000BF2F
:1046E00000BF00BF002000900846006840F00200B4
:1046F00008600846006800F00200009000BF00BF9C
:10470000A02001900220029000200390032004903A
:104710000520059001A90B48FDF720FC1020019011
:1047200002200290002003900320049005200590B1
:1047300001A90548FDF712FC06B010BD003001408C
:104740004438024000000240000402402DE9FF5FAF
:104750000446884691461D460E9E01200290002088
:10476000019000BF94F85000012803D1022004B04A
:10477000BDE8F09F012084F8500000BFFDF7F0FC79
:10478000074694F851B060680390AA46BBF1010F48
:104790000BD00398B0F5827F04D1A06810B9BBF1AB
:1047A000040F02D002200190DBE0B8F1000F03D02B
:1047B000B9F1000F00D015B901200190D1E094F8B3
:1047C0005100042802D0052084F8510000206065C3
:1047D000C4F83890E587A587C4F83080E586A586BB
:1047E000206460642068006800F04000402805D024
:1047F0002068006840F0400021680860E068B0F57B
:10480000006F4AD1606810B1BAF1010F09D1206B75
:1048100000882168C860206B801C2063E08E401EE9
:10482000E08633E02068806800F00200022810D1A2
:10483000E08E70B1029801280BD1206B00882168AE
:10484000C860206B801C2063E08E401EE086002044
:1048500002902068806800F0010068B1E08F58B1D4
:104860002068C068A16B0880A06B801CA063E08FEB
:10487000401EE08701200290FDF772FCC01BB04291
:1048800004D3701C10B1032001906AE0E08E002870
:10489000C8D1E08F0028C5D14AE0606810B1BAF1F4
:1048A000010F09D1206B007821680873206B401C30
:1048B0002063E08E401EE08634E02068806800F0CF
:1048C0000200022810D1E08E70B1029801280BD1AD
:1048D000206B007821680873206B401C2063E08EF9
:1048E000401EE086002002902068806800F00100F1
:1048F00068B1E08F58B12068C068A16B0870A06BE8
:10490000401CA063E08F401EE08701200290FDF76D
:1049100027FCC01BB04201D3701C00B916B903209C
:1049200001901EE0E08E0028C7D1E08F0028C4D19E
:104930003A463146204604F037F820B10120019074
:10494000202060650DE0A06850B900BF00200090F5
:104950002068C068009020688068009000BF00BF99
:1049600000BF012084F8510000BF002084F85000EF
:1049700000BF0198FBE670B504462546681EB0F1FD
:10498000807F01D301200FE0681E4FF0E0214861D5
:104990000F214FF0FF3007F0F7F900204FF0E02132
:1049A000886107200861002070BD7047704710B50E
:1049B000024600BF92F83C00012801D1022010BD40
:1049C000012082F83C0000BF022082F83D00106800
:1049D00043681068846823F070030868034324F078
:1049E00080044868044310684360106884600120B4
:1049F00082F83D0000BF002082F83C0000BF00BFED
:104A0000DDE710B504460CB9012010BD94F83D0057
:104A100028B9002084F83C00204600F00DF8022060
:104A200084F83D00211D206804F03EFD012084F83B
:104A30003D000020E9E7000038B504462068B0F1E9
:104A4000804F18D100BF002000901948006840F046
:104A50000100174908600846006800F00100009056
:104A600000BF00BF002201211C20FDF737FC1C20E5
:104A7000FDF724FC1BE00F492068884217D100BFD6
:104A8000002000900A48006840F0020008490860D1
:104A90000846006800F00200009000BF00BF00223E
:104AA00011461D20FDF71AFC1D20FDF707FC38BD3F
:104AB00040380240000400400146022081F83D00D9
:104AC0000868806800F00702062A05D008680068B8
:104AD00040F001000B681860012081F83D000020C3
:104AE000704701460868C06840F001000B68D86054
:104AF0000868806800F00702062A05D00868006888
:104B000040F001000B681860002070470146022049
:104B100081F83D0000BF0868006A41F211121040A0
:104B200050B90868006A9210104028B908680068F7
:104B300020F001000A68106000BF012081F83D00EC
:104B4000002070472DE9F04104460D4600BF94F85F
:104B50003C00012802D10220BDE8F081012084F848
:104B60003C0000BF022084F83D002068866826F0E3
:104B7000770626F47F46206886602868502833D060
:104B80000CDC202850D004DC00284BD0102851D158
:104B900049E0302849D040284CD139E060282DD058
:104BA000702807D0B0F5805F03D0B0F5005F41D129
:104BB0000DE040E0D5E902136A68206804F0C6FC05
:104BC0002068866846F077062068866033E0D5E97D
:104BD00002136A68206804F0B9FC2068806840F419
:104BE00080402168886026E0EA686968206804F0EF
:104BF000C1FC5021206804F0B4FC1CE0EA6869683C
:104C0000206804F0CAFC6021206804F0AAFC12E0CD
:104C1000EA686968206804F0ADFC4021206804F06F
:104C2000A0FC08E000BF00BF00BF2968206804F0B6
:104C300098FC00E000BF00BF012084F83D0000BFE9
:104C4000002084F83C0000BF00BF85E7704710B526
:104C5000044620680069C0F34000D8B12068C068ED
:104C6000C0F34000B0B16FF002002168086101207C
:104C700020772068806900F0030018B12046FFF714
:104C8000E5FF05E0204600F0ADF8204600F0ABF867
:104C90000020207720680069C0F38000D8B1206828
:104CA000C068C0F38000B0B16FF0040021680861F3
:104CB000022020772068806900F4407018B12046F7
:104CC000FFF7C4FF05E0204600F08CF8204600F016
:104CD0008AF80020207720680069C0F3C000D8B1AE
:104CE0002068C068C0F3C000B0B16FF00800216850
:104CF0000861042020772068C06900F0030018B123
:104D00002046FFF7A3FF05E0204600F06BF82046A1
:104D100000F069F80020207720680069C0F30010D7
:104D2000D8B12068C068C0F30010B0B16FF01000B7
:104D300021680861082020772068C06900F440706D
:104D400018B12046FFF782FF05E0204600F04AF840
:104D5000204600F048F8002020772068006900F025
:104D6000010058B12068C06800F0010030B16FF058
:104D7000010021680861204600F036F820680069CB
:104D8000C0F3C01058B12068C068C0F3C01030B183
:104D90006FF08000216808612046FFF706FE20685A
:104DA0000069C0F3801058B12068C068C0F380105B
:104DB00030B16FF0400021680861204600F058F8DB
:104DC00020680069C0F3401058B12068C068C0F383
:104DD000401030B16FF02000216808612046FFF7D5
:104DE000E5FD10BD704770470168B1F1804F34D1C7
:104DF0001A4909686431194A116011460968B1F508
:104E00007A7F2AD311460968A1F57A711160144995
:104E10000978491C124A1170114609783C291CDB9B
:104E2000002111700F490978491C0E4A1170114672
:104E300009783C2911DB002111700B490978491CC4
:104E4000094A117011460978182906DB00211170F2
:104E500006490978491C054A11707047080000206E
:104E600006000020050000200400002003000020B0
:104E7000704710B504460CB9012010BD242084F8F9
:104E800039002068C06820F400502168C8602046BE
:104E900000F046F80020E06384F8390084F83A0016
:104EA00000BF84F8380000BF00BFE6E710B5044635
:104EB0000CB9012010BDA06900B100E000BF94F85A
:104EC000390028B9002084F83800204600F042F864
:104ED000242084F839002068C06820F4005021683C
:104EE000C860204604F086FB2068006920F49040EA
:104EF000216808612068406920F02A002168486123
:104F00002068C06840F400502168C8600020E06359
:104F1000202084F8390084F83A000020CAE7000015
:104F200010B504460849206888420CD1074800683B
:104F300020F40030054908600C210548FCF752FFB9
:104F40002620FDF799F910BD00440040403802408A
:104F50000000024010B586B00446142101A8FBF7FA
:104F600040FC1B49206888422FD100BF00200090E0
:104F70001848006840F40030164908600846006888
:104F800000F40030009000BF00BF00BF0020009080
:104F900010481038006840F001000E4910390860D0
:104FA0000846006800F00100009000BF00BF0C2020
:104FB000019002200290012003900320049007201A
:104FC000059001A90448FCF7C9FF06B010BD000018
:104FD00000440040403802400000024010B5034643
:104FE00093F83A0020282FD101B10AB9012010BD51
:104FF00000BF93F83800012801D10220F7E7012013
:1050000083F8380000BF99629A85DA850020D8635A
:10501000222083F83A0000BF002083F8380000BF48
:105020001868C06840F480701C68E06018684069C7
:1050300040F001001C6860611868C06840F0200002
:105040001C68E0600020D2E70220D0E72DE9F84399
:1050500004460D4616461F464FF0000994F83900E5
:1050600020285CD105B116B90120BDE8F88300BF46
:1050700094F83800012801D10220F6E7012084F8D5
:10508000380000BF0020E063212084F83900FDF7DC
:1050900067F88146A684E6842BE0E08C401EE0841D
:1050A000A068B0F5805F16D14B46002280212046D3
:1050B000009704F053FC08B10320D6E7A846B8F8DF
:1050C0000000C0F3080021684860206908B9AD1CE1
:1050D0000FE06D1C0DE04B4600228021204600971A
:1050E00004F03CFC08B10320BFE715F8010B216870
:1050F0004860E08C0028D0D14B4600224021204659
:10510000009704F02BFC08B10320AEE7202084F8C0
:10511000390000BF002084F8380000BFA5E7022056
:10512000A3E700BFFEE7000010B500224FF4804166
:105130001248FDF70EF81148006820F040600F4952
:1051400008600846006840F08060086000224FF464
:1051500000510A48FCF7FDFF022008F022F9012265
:1051600091030648FCF7F5FF022008F01AF9002227
:105170004FF480410148FCF7ECFF10BD00040240F1
:1051800010B5012291030448FCF7E3FF012251030B
:105190000148FCF7DEFF10BD0004024010B50022FC
:1051A0004FF480411248FCF7D4FF1148006820F00A
:1051B00040600F4908600846006840F08060086061
:1051C000012251030A48FCF7C4FF022008F0E9F865
:1051D000012291030648FCF7BCFF022008F0E1F829
:1051E00000224FF480410248FCF7B3FF10BD0000DD
:1051F0000004024070B5054600241948006820F0FC
:1052000040601749086008460068086000261CE0F6
:1052100000224FF480411248FCF79BFF022008F067
:10522000C0F8012291030E48FCF793FF6006040EBC
:105230004FF400510A48FCF77BFF08B1601CC4B270
:10524000012008F0AEF8701CC6B2082EE0DB15B9DC
:10525000FFF7A4FF01E0FFF767FF204670BD0000E5
:105260000004024070B504461948006820F0406010
:10527000174908600846006840F080600860002216
:105280004FF480411248FCF764FF00251DE0E2095D
:105290004FF400510E48FCF75CFF6006040E02203C
:1052A00008F07FF8012291030948FCF752FF022021
:1052B00008F077F800224FF480410548FCF749FFD9
:1052C000022008F06EF8681CC5B2082DDFDB70BD47
:1052D0000004024010B51448006820F040601249F4
:1052E00008600846006840F08060086001225103B1
:1052F0000D48FCF72EFF012291030B48FCF729FF14
:10530000042008F04EF800224FF400510648FCF744
:1053100020FF042008F045F800224FF480410248A5
:10532000FCF717FF10BD00000004024010B5144840
:10533000006820F04060124908600846006840F0AC
:105340008060086000224FF480410D48FCF701FFA7
:1053500000224FF400510A48FCF7FBFE042008F03D
:1053600020F8012291030648FCF7F3FE01225103C5
:105370000348FCF7EEFE042008F013F810BD00000F
:105380000004024010B500241848006820F0406076
:105390001649086008460068086001225103134856
:1053A000FCF7D7FE012007F0FCFF012291030F4814
:1053B000FCF7CFFE012007F0F4FF07E0601CC4B249
:1053C000FA2C03DDFFF7B2FF012010BD4FF40051AE
:1053D0000648FCF7ADFE0028F0D100224FF48041D2
:1053E0000248FCF7B6FE0020EFE700000004024090
:1053F00030B50B46002100BF16E00A24B4EB107F45
:1054000005D9302404EB107403F8114005E0412461
:1054100004EB10740A3C03F81140000100254C0015
:10542000641C1D554C1CE1B29142E6DB30BD10B549
:10543000FFF7A6FE80216B2000F0D7F86420FCF770
:10544000F7FB00216B2000F0D0F8032000F08BF870
:10545000002000F080F8322000F0AAF80021382067
:1054600000F0C3F800216A2000F0BFF800212320DB
:1054700000F0BBF88021372000F0B7F8752000F06D
:1054800013F80446682C0BD101216B2000F0ADF815
:1054900000216C2000F0A9F8322000F089F801E02A
:1054A000012010BD0020FCE770B50446FFF712FF95
:1054B000D020FFF7D7FEFFF765FF2046FFF7D2FEAB
:1054C000FFF760FFFFF706FFD120FFF7CBFEFFF7E6
:1054D00059FF0020FFF78EFE0546FFF727FF2846FD
:1054E00070BD2DE9F04106460F4614461D46FFF7F4
:1054F000F1FE002141EA4601C8B2FFF7B3FEFFF713
:1055000041FF20B1FFF712FF0120BDE8F0813846CE
:10551000FFF7A8FEFFF736FFFFF7DCFE012101EBE6
:105520004601C8B2FFF79EFEFFF72CFF0DE0012CED
:1055300004D10020FFF75EFE287003E00120FFF792
:1055400059FE2870601EC4B26D1C002CEFD1FFF70D
:10555000EDFE0020D9E710B50446E006010E1C2040
:1055600000F043F810BD10B50446E006010E1B2004
:1055700000F03BF810BD70B504460025BC2C01DBE3
:10558000012510E0622C01DB02250CE02A2C01DB56
:10559000032508E0142C01DB042504E00A2C01DBC0
:1055A000052500E0062529461A2000F01EF870BDEA
:1055B00070B50446B4F57A7F01DD4FF47A74042C9B
:1055C00000DA04244FF47A7090FBF4F0401EC5B268
:1055D0002946192000F009F80546264604EBD67145
:1055E000C1F34F00FFF7C7FF70BD70B505460C460D
:1055F000FFF770FED020FFF735FEFFF7C3FE18B1AE
:10560000FFF794FE012070BD2846FFF72BFEFFF741
:10561000B9FE2046FFF726FEFFF7B4FE18B1FFF7EC
:1056200085FE0120EFE7FFF781FE0020EBE72DE983
:10563000F04105460E4617469846FFF74BFE0021FF
:1056400041EA4501C8B2FFF70DFEFFF79BFE20B10E
:10565000FFF76CFE0120BDE8F0813046FFF702FE47
:10566000FFF790FE00240CE018F80400FFF7FAFDA5
:10567000FFF788FE18B1FFF759FE0120EBE7601C29
:10568000C4B2BC42F0DBFFF751FE0020E3E770B587
:105690000546D5F890424FF40670005D48B94FF4C6
:1056A0000570005928B1607A18B90121284604F024
:1056B00013FF8121284604F00FFF607A022806D1EB
:1056C0001F2304F503720121284604F059FE70BD22
:1056D00070B50546D5F890424FF4047001594FF467
:1056E0000C7001514FF4057001594FF40D700151C8
:1056F0000121284604F0CCFD1F2810D12A49D4F8F6
:105700000C0288420BD140F21920005D012806D816
:105710004815005D18B14815005D10280DD940F2FC
:105720001920015D20230522284601F0A5FF022053
:1057300060722846FFF7ABFF33E040F21920015DAD
:1057400004F21B22284601F02BFD00280BDA207AF8
:10575000052804D10121284600F0C0F821E02846A0
:10576000FFF795FF1DE0207A022819D0207A012842
:1057700016D0207A032813D0608930B1628904F1F1
:105780000C01284600F0C8F80BE0608920B9002120
:10579000284600F0A3F804E02846FFF778FF00E071
:1057A00070BD00BFFCE700005553424370B506468C
:1057B0000D46D6F89042607A022806D18121304603
:1057C00004F08AFE002060720CE005F08000802862
:1057D00007D1607A012804D00121304600F07EF81C
:1057E00000E070BD00BFFCE770B505460E46D5F879
:1057F0009042207A022804D0032812D0042815D120
:105800000EE040F21920015D04F21B22284601F04F
:10581000C7FC002803DA0121284600F05FF806E003
:1058200000BF0021284600F059F800E000BF00BF8B
:1058300070BD70B505460E46D5F89042207A10B17D
:10584000012813D103E02846FFF742FF0FE040F2A2
:105850001920015D04F21B22284601F0A1FC00285A
:1058600003DA0121284600F039F800E000BF00BF4C
:1058700070BDD0F8901200220A72704770B50546CC
:10588000D5F8904200202072607284F85D0284F89E
:105890005C02D5F89402016800208847012128465F
:1058A00004F0E3FC8121284604F0DFFC1F2304F50B
:1058B00003720121284604F063FD70BD70B50546F2
:1058C000D5F8904200202072012060721F2304F559
:1058D00003720121284604F053FD70BD70B50546E2
:1058E0000E46D5F890420B48C4F82C024FF40E70C7
:1058F0000655002020720D2304F50B7281212846E5
:1059000004F025FE1F2304F503720121284604F04C
:1059100037FD70BD555342532DE9F04106460F4601
:105920001546D6F890424FF405700059A84203D2AC
:105930004FF40570005900E028461FFA80F84FF434
:105940000D700059411B4FF40D7001510021001DD5
:1059500001550420207243463A468121304604F026
:10596000F6FDBDE8F08100001FB500200090019019
:10597000029003901548164908604FF48030486043
:105980000021134881600161017680F820104FF0FA
:105990008051C162491081620021C1600121C16151
:1059A00080F830104161FBF77FFD08B1FBF7D5FAB5
:1059B0000120009001900020029069460448FBF706
:1059C00083FC08B1FBF7C9FA1FBD000000200140AD
:1059D0006802002008B500BF00200090124800684F
:1059E00040F48000104908600846006800F4800018
:1059F000009000BF00BF002211463820FCF76EFC6B
:105A00003820FCF75BFC002211463B20FCF766FCCB
:105A10003B20FCF753FC002211464520FCF75EFCBE
:105A20004520FCF74BFC08BD3038024010B5074953
:105A30000748FBF793FA0749087001220349064813
:105A400009F034F80349087010BD00005900002027
:105A5000308D0108580000209016002000B587B056
:105A6000142102A8FAF7BDFE00BF002001905D4896
:105A7000006840F004005B4908600846006800F0D8
:105A80000400019000BF00BF00BF00200190084645
:105A9000006840F0800008600846006800F0800060
:105AA000019000BF00BF00BF0020019008460068C1
:105AB00040F0010008600846006800F00100019015
:105AC00000BF00BF00BF002001900846006840F002
:105AD000020008600846006800F00200019000BF64
