:020000040800F2
:1000000070D7012089060008E15700081D4C000840
:10001000DD570008D10B0008539D000800000000C8
:1000200000000000000000000000000089770008C8
:10003000230D000800000000AB5D000843780008B5
:10004000A3060008A3060008A3060008A3060008EC
:10005000A3060008A3060008A3060008250D000853
:10006000A3060008A3060008A3060008A3060008CC
:10007000A3060008A3060008A3060008A3060008BC
:10008000A3060008A3060008A3060008000000005D
:10009000000000000000000000000000A3060008AF
:1000A000A3060008A3060008A3060008A30600088C
:1000B0006179000871790008A3060008A30600080A
:1000C000A3060008A3060008A3060008A30600086C
:1000D000A3060008A3060008F97F0008000000003E
:1000E000A3060008A3060008A306000800000000FD
:1000F000000000000000000000000000A30600084F
:100100000000000001660008A3060008A30600081E
:1001100000000000000000000000000000000000DF
:10012000E90B0008A3060008A3060008F90B000865
:10013000A30600080000000000000000000000000E
:10014000000000000000000000000000F95C000852
:10015000A3060008090C0008A3060008A30600086F
:10016000A3060008A306000800000000000000002D
:10017000000000000000000000000000000000007F
:1001800000000000A30600080000000000000000BE
:10019000A3060008A3060008DFF80CD000F060FBFF
:1001A000004800477DDF000870D701202DE9F05F8F
:1001B000DDF828C0DDF830E0DEF8004030F902ABB1
:1001C00004F580590AEB693909F30F0B23F802BBD8
:1001D000CBF1000B0FFA8BFBB1F90070DEF8045085
:1001E00007FB0A55B2F9008008FB0B54CEF800401B
:1001F000B1F90270DEF8084007FB0A44B2F9028048
:1002000008FB0B45CEF80450B1F90470DEF80C5031
:1002100007FB0A55B2F9048008FB0B54CEF80840DE
:10022000B1F90670DEF8104007FB0A44B2F9068007
:1002300008FB0B45CEF80C50B1F90870DEF81450ED
:1002400007FB0A55B2F9088008FB0B54CEF81040A2
:10025000B1F90A70DEF8184007FB0A44B2F90A80C7
:1002600008FB0B45CEF81450B1F90C70DEF81C50A9
:1002700007FB0A55B2F90C8008FB0B54CEF8184066
:10028000B1F90E70DEF8204007FB0A44B2F90E8087
:1002900008FB0B45CEF81C50B1F91070DEF8245065
:1002A00007FB0A55B2F9108008FB0B54CEF820402A
:1002B000B1F9127007FB0AF7B2F9128008FB0BF8CC
:1002C000B844CEF82480BCF1010C7FF475AFBDE8D2
:1002D000F09F2DE9F041DDF81CE0DEF8005030F928
:1002E000028B05F5805708EB673808F30F0622F8F4
:1002F000026BC6F1000636B2B1F90070DEF80440B8
:1003000007FB0645CEF80050B1F90270DEF8085040
:1003100007FB0654CEF80440B1F90470DEF80C4037
:1003200007FB0645CEF80850B1F90670DEF810500C
:1003300007FB0654CEF80C40B1F90870DEF8144003
:1003400007FB0645CEF81050B1F90A70DEF81850D8
:1003500007FB0654CEF81440B1F90C70DEF81C40CF
:1003600007FB0645CEF81850B1F90E70DEF82050A4
:1003700007FB0654CEF81C40B1F91070DEF824409B
:1003800007FB0645CEF82050B1F9127007FB06F7BF
:10039000CEF824705B1EA0D1BDE8F0812DE9F041BC
:1003A0004FF000064FF0000330F9024B31F9027BA9
:1003B00004FB073330F9025B31F9028B05FB08338C
:1003C00030F9024B31F9027B04FB073330F9025B51
:1003D00031F9028B05FB083306EBA3164FF000033F
:1003E00030F9024B31F9027B04FB073330F9025B31
:1003F00031F9028B05FB083330F9024B31F9027BEE
:1004000004FB073330F9025B31F9028B05FB08333B
:1004100006EBA3164FF0000330F9024B31F9027BD3
:1004200004FB073330F9025B31F9028B05FB08331B
:1004300030F9024B31F9027B04FB073330F9025BE0
:1004400031F9028B05FB083306EBA3164FF00003CE
:1004500030F9024B31F9027B04FB073330F9025BC0
:1004600031F9028B05FB083330F9024B31F9027B7D
:1004700004FB073330F9025B31F9028B05FB0833CB
:1004800006EBA3164FF0000330F9024B31F9027B63
:1004900004FB073330F9025B31F9028B05FB0833AB
:1004A00030F9024B31F9027B04FB073330F9025B70
:1004B00031F9028B05FB083306EBA3164FF000035E
:1004C00030F9024B31F9027B04FB073330F9025B50
:1004D00031F9028B05FB083330F9024B31F9027B0D
:1004E00004FB073330F9025B31F9028B05FB08335B
:1004F00006EBA3164FF0000330F9024B31F9027BF3
:1005000004FB073330F9025B31F9028B05FB08333A
:1005100030F9024B31F9027B04FB073330F9025BFF
:1005200031F9028B05FB083306EBA3164FF00003ED
:1005300030F9024B31F9027B04FB073330F9025BDF
:1005400031F9028B05FB083330F9024B31F9027B9C
:1005500004FB073330F9025B31F9028B05FB0833EA
:1005600006EBA3164FF0000330F9024B31F9027B82
:1005700004FB073330F9025B31F9028B05FB0833CA
:1005800030F9024B31F9027B04FB073330F9025B8F
:1005900031F9028B05FB083306EBA3164FF000037D
:1005A00030F9024B31F9027B04FB073330F9025B6F
:1005B00031F9028B05FB083330F9024B31F9027B2C
:1005C00004FB073330F9025B31F9028B05FB08337A
:1005D00006EBA3163046BDE8F08100002DE9F04798
:1005E0004FF00006089A31F9027B31F9028BB0F91D
:1005F0000040B0F9025004FB07F305FB083331F962
:10060000027BB0F9044031F9028BB0F9065004FBCB
:10061000073305FB083331F9027BB0F9084031F9A3
:10062000028BB0F90A5004FB073305FB083331F99C
:10063000027BB0F90C4031F9028BB0F90E5004FB8B
:10064000073305FB083331F9027BB0F9104031F96B
:10065000028BB0F9125004FB073305FB083352F844
:10066000044BC3EB6403012EAEBF73459E46B246F6
:10067000761C202EB7DB0A9BC3F800A00B9BC3F8A7
:1006800000E0BDE8F08700000648804706480047C4
:10069000FEE7FEE7FEE7FEE7FEE7FEE7FEE7FEE732
:1006A000FEE7FEE7FD780008990100082DE9F05FFC
:1006B0000546002092469B468846064681464024D1
:1006C0001BE0284641464746224600F0B8F853460C
:1006D0005A46C01A914110D311461846224600F0DE
:1006E0009FF82D1A67EB01084F4622460120002192
:1006F00000F096F817EB00094E41201EA4F101040A
:10070000DFDC484631462A464346BDE8F09F2DE9E6
:10071000F0410024061B254671F1000605DA01248C
:100720000027D0EB070067EB0101161E73F10006EE
:1007300005DA0027D2EB0702012567EB0303FFF779
:10074000B5FF86460E4617469C46AC4204D00025AF
:10075000D0EB050E65EB010624B10020D2EB0007BB
:1007600060EB030C704631463A466346BDE8F081C3
:100770000649074A0868504343F2390210440860AA
:1007800040087047014908607047000000020020DF
:100790006D4EC64110B5431A934209D2831888188A
:1007A00003E010F8011D03F8011D521EF9D210BD1F
:1007B00040EA01039B0703D009E008C9121F08C0E3
:1007C000042AFAD203E011F8013B00F8013B521E63
:1007D000F9D210BDD2B201E000F8012B491EFBD2C4
:1007E00070470022F6E710B513460A46044619463C
:1007F000FFF7F0FF204610BD421C10F8011B002936
:10080000FBD1801A704730B504460020034600E053
:100810005B1C934203D2E05CCD5C401BF8D030BD42
:10082000202A04DB203A00FA02F1002070479140B0
:10083000C2F1200320FA03F3194390407047202AA5
:1008400004DB203A21FA02F00021704721FA02F37A
:10085000D040C2F120029140084319467047000081
:10086000064C074D06E0E06840F0010394E80700FD
:1008700098471034AC42F6D3FFF792FC20200308CF
:100880004020030870B58C1810F8015B15F00703C1
:1008900001D110F8013B2A1106D110F8012B03E019
:1008A00010F8016B01F8016B5B1EF9D12B0705D421
:1008B0000023521E0DD401F8013BFAE710F8013B6A
:1008C000CB1A921C03E013F8015B01F8015B521E86
:1008D000F9D5A142D8D3002070BD00002DE9F04128
:1008E000DDF81CE0DEF8004030F9026B04F58058BA
:1008F00006EB683808F30F0722F8027BB1F90070A5
:10090000DEF8045007FB0654CEF80040B1F902703F
:10091000DEF8084007FB0645CEF80450B1F9047034
:10092000DEF80C5007FB0654CEF80840B1F906700B
:10093000DEF8104007FB0645CEF80C50B1F9087000
:10094000DEF8145007FB0654CEF81040B1F90A70D7
:10095000DEF8184007FB0645CEF81450B1F90C70CC
:10096000DEF81C5007FB0654CEF81840B1F90E70A3
:10097000DEF8204007FB0645CEF81C50B1F9107098
:10098000DEF8245007FB0654CEF82040B1F912706F
:1009900007FB06F7CEF824705B1EA3D1BDE8F081FB
:1009A00054494A6822F440324A604A6843681A430C
:1009B0004A600268526822F4807203685A600268D2
:1009C0005368026943EA022203685A600268526867
:1009D00022F0407203685A600268526883681A43C2
:1009E00003685A600268926822F4006203689A60A1
:1009F00002689268C3681A4303689A603E4B826A31
:100A00009A4218D00268926822F0706203689A6075
:100A100002689268836A1A4303689A60026892685F
:100A200022F0405203689A6002689268C36A1A43CF
:100A300003689A600BE00268926822F070620368B3
:100A40009A600268926822F0405203689A600268D5
:100A5000926822F0020203689A60026893688269D1
:100A600043EA420203689A60026AA2B102685268CD
:100A700042F4006203685A600268526822F46042DD
:100A800003685A6002685368426A521E43EA42325F
:100A900003685A6005E00268526822F40062036845
:100AA0005A600268D26A22F470020368DA6202684D
:100AB000D36A828B521E43EA02520368DA620268EA
:100AC000926822F4007203689A6002689368026B6D
:100AD00043EA422203689A600268926822F48062C4
:100AE00003689A6002689368426943EA8222036855
:100AF0009A607047002301400100000F704700001A
:100B000010B504462146024802F0C6FC10BD0000A4
:100B1000B802002010B5044802F0D1FC042801D02E
:100B2000012010BD0020FCE7B802002010B5002411
:100B300000F014F8012801D0012010BD064802F091
:100B4000D3FD044634B94FF40061034802F057FB6B
:100B500000B101242046F0E7B802002008B50120CA
:100B600000909DF8000008BD2DE9F04104460D46B7
:100B70001646002733462A462146044803F000F86B
:100B800000B101273846BDE8F0810000B80200201E
:100B900001200149086070473C0000202DE9F04128
:100BA00004460D461646002733462A462146044889
:100BB00003F086F900B101273846BDE8F081000056
:100BC000B802002001200149086070473800002069
:100BD00000BFFEE70246002000BF02E000231354DE
:100BE000401C8842FADB704710B5024800F0A8FBB1
:100BF00010BD00005802002010B5024800F0A0FB14
:100C000010BD00003C03002010B5024800F098FB26
:100C100010BD00009C0300200146087810381823FE
:100C2000B0FBF3F20848805CC865032A05D9086860
:100C30006FF30900001D886503E008686FF3090081
:100C40008865886D70470000B85301080146002090
:100C50008A6A8B69CBB932B1012A0DD0022A03D03E
:100C6000032A10D10EE000BFCB6A03F08073B3F10A
:100C7000807F00D1012007E0CB6AB3F1C07F00D1B3
:100C8000012001E000E000BF34E08B69B3F5005FB4
:100C90001AD132B1012A07D0022A03D0032A11D176
:100CA0000AE000BF01200EE0CB6A03F08073B3F1CD
:100CB000807F00D1012006E0CB6AB3F1C07F00D174
:100CC000012000E000BF15E032B1012A05D0022A60
:100CD00004D0032A0CD103E000BF00BF012008E0CC
:100CE000CB6A03F08073B3F1807F00D1012000E074
:100CF00000BF00BF704730B50468246824F4802426
:100D000005682C60046863608468402C04D1046822
:100D1000A2600468E16003E00468A1600468E26026
:100D200030BD704710B5022000F078FE10BD70474E
:100D300030B504460D4600222946204600F002F850
:100D400030BD0000F0B50346012500241148407A6B
:100D500001281CDA00200F4E767A0E4FB85538461F
:100D6000467A001D40F82630001F467A083082552A
:100D70003E46707A461C7E72044604F130000870CC
:100D80003A2048702F2088700020C870002528461F
:100D9000F0BD00005418002010B5002201B909E090
:100DA000012901D10A0205E0022901D10A0201E06C
:100DB0004FF440720E4B1B6823F440730C4C2360BD
:100DC00023461B681343236023461B6823F0F80364
:100DD000236023461B68022444EAC0042343044CD6
:100DE000236023461B6843F48033236010BD00005A
:100DF000103C02401C48006800F40070B0B11A4872
:100E0000006820F400701849086000BF08460068B8
:100E100040F4006008600846006820F40060086044
:100E200000BF0846006840F4007008600E48006883
:100E300000F48060B0B10C48006820F480600A497A
:100E4000086000BF0846006840F48050086008460B
:100E5000006820F48050086000BF0846006840F435
:100E60008060086070470000003C02400A4A126837
:100E700022F44072084B1A601A46126842F00402CB
:100E80001A601A4612684FF4803343EA00231A436B
:100E9000014B1A6070470000103C0240074A12687C
:100EA00022F44072054B1A601A4612681A601A46FC
:100EB000126842F001021A6001707047103C024053
:100EC00010B50949096821F44071074C2160214699
:100ED000096841F4407121602146096841F001012F
:100EE00021600260436010BD103C0240084A126855
:100EF00022F44072064B1A601A46126842F480725D
:100F00001A601A46126842F001021A6001807047A6
:100F1000103C0240084A126822F44072064B1A60E4
:100F20001A46126842F400721A601A46126842F0B9
:100F300001021A6001607047103C02402A480068B4
:100F400000F0100040B12948C06940F01000274966
:100F5000C8611020244908602348006800F0200080
:100F600040B12248C06940F008002049C8612020F3
:100F70001D4908601C48006800F0400040B11B4853
:100F8000C06940F004001949C86140201649086052
:100F90001548006800F0800040B11448C06940F076
:100FA00002001249C86180200F4908600E4800689D
:100FB00000F4807048B10D48C06940F001000B4951
:100FC000C8614FF48070084908600748006800F065
:100FD000020040B10548C06940F020000349C861E3
:100FE00002200149086070470C3C024014180020A0
:100FF00070B50446002500201449C86100F018FEB1
:10100000054609E0601C38B124B100F011FE401B18
:10101000A04201D9032070BD0D48006800F4803063
:101020000028EFD10A48006800F0010010B101204B
:10103000074908600648006800F4F97018B1FFF726
:101040007DFF0120E7E70020E5E7000014180020FD
:101050000C3C024038B502460020009000BF92F8D8
:101060003C00012801D1022038BD012082F83C005B
:1010700000BF0868092816D91068C0680C780A3CB7
:1010800004EB44050724AC40A0431468E0600C78EE
:101090000A3C04EB44048868A0401468E4682043D8
:1010A0001468E06013E0106800690C7804EB4405F4
:1010B0000724AC40A043146820610C7804EB44047E
:1010C0008868A04014682469204314682061486837
:1010D000072817D21068406B0C79641E04EB840556
:1010E0001F24AC40A04314686063088880B20C7968
:1010F000641E04EB8404A0401468646B20431468ED
:10110000606331E048680D2817D21068006B0C79D5
:10111000E41F04EB84051F24AC40A0431468206343
:10112000088880B20C79E41F04EB8404A0401468A2
:10113000246B20431468206316E01068C06A0C79A1
:101140000D3C04EB84051F24AC40A0431468E0620E
:10115000088880B20C790D3C04EB8404A04014682C
:10116000E46A20431468E0621A4B1B4C1068A042EA
:1011700006D10868122803D1586840F480005860EE
:10118000154C1068A0421ED1144C0868A04202D031
:101190000868112817D1586840F4000058600F4CB7
:1011A0000868A0420FD10E4800680E4CB0FBF4F066
:1011B00000EB80004000009002E00098401E00908C
:1011C00000980028F9D100BF002082F83C0000BF41
:1011D00000BF49E700230140002001401200001039
:1011E000A800002040420F0070B5044600250CB94D
:1011F000012070BD1549A06A884200D000BF206C54
:1012000030B90020606484F83C00204600F020F8EB
:10121000206C00F0100088B9206C20F4885040F059
:10122000020020642046FFF7BBFB00206064206CB6
:1012300020F0020040F00100206400E0012500BF22
:10124000002084F83C0000BF2846D2E70100000FD0
:1012500010B586B00446142101A8FFF7C2FA294947
:10126000206888424CD100BF0020009026480068CA
:1012700040F48070244908600846006800F48070DB
:10128000009000BF00BF00BF002000901E4814382F
:10129000006840F001001C491439086008460068E5
:1012A00000F00100009000BF00BF02200190032069
:1012B00002900020039001A9144800F0BDFB1448DF
:1012C0001449086000204860002112488160C16014
:1012D0004FF48061016149004161890081614911D8
:1012E000C1614FF4403101620021416200F048F9D0
:1012F00008B1FFF71CFD00BF0648A063846300BF70
:1013000006B010BD002001404438024000000240F9
:101310001064024058020020014691F8350002286E
:1013200003D08020486501207047052081F83500F2
:101330000868006820F001000A6810600020F3E7E8
:10134000F8B50446002000908C4800684FF4165110
:10135000B0FBF1F7A56D2E6894F85C10082088406A
:10136000304098B12068006800F0040070B1206837
:10137000006820F004002168086094F85C100820E0
:101380008840A860606D40F00100606594F85C10D2
:1013900001208840304068B12068406900F080003A
:1013A00040B194F85C1001208840A860606D40F066
:1013B0000200606594F85C1004208840304068B1F9
:1013C0002068006800F0020040B194F85C1004202E
:1013D0008840A860606D40F00400606594F85C107F
:1013E00010208840304078B32068006800F0080082
:1013F00050B394F85C1010208840A8602068006802
:1014000000F4802080B12068006800F4002028B932
:10141000206CC8B12046216C884715E0A06C98B1BB
:101420002046A16C88470FE02068006800F48070B7
:1014300028B92068006820F0080021680860206C46
:1014400010B12046216C884794F85C102020884019
:101450003040002865D02068006800F010000028A7
:101460005FD094F85C1020208840A86094F8350084
:10147000052828D12068006820F01600216808603F
:101480002068406920F0800021684861206C08B91C
:10149000A06C28B12068006820F00800216808606E
:1014A00094F85C103F208840A86000BF002084F8BA
:1014B000340000BF012084F83500206D10B12046B3
:1014C000216D8847F8BD2068006800F4802080B155
:1014D0002068006800F4002028B9606C10B1204634
:1014E000616C88471DE0E06BD8B12046E16B88470E
:1014F00017E02068006800F4807068B92068006810
:1015000020F010002168086000BF002084F834003B
:1015100000BF012084F83500E06B10B12046E16B7C
:101520008847606D38B3606D00F00100F0B10520B0
:1015300084F835002068006820F001002168086008
:1015400000BF0098401C0090B84200D905E0206818
:10155000006800F001000028F3D100BF00BF0020A8
:1015600084F8340000BF012084F83500E06C10B12D
:101570002046E16C884700BFA4E70000A8000020D7
:101580002DE9F0410446002500F052FB074614B94E
:101590000120BDE8F081606A00B100BF00BF0020FB
:1015A00084F8340000BF022084F835002068006809
:1015B00020F00100216808600AE000F039FBC01B40
:1015C000052805D920206065032084F83500E0E770
:1015D0002068006800F001000028EED1206805684E
:1015E00021480540D4E901010843E1680843216925
:1015F000084361690843A1690843E1690843216A16
:1016000008430543606A042803D1D4E90B01084369
:101610000543206805602068456925F00705606A74
:101620000543606A04280DD1A06A0543E06A48B109
:101630002046FFF70BFB28B140206065012084F8AD
:101640003500A6E7206845612046FFF7E5FA064623
:1016500094F85C103F208840B06000206065012055
:1016600084F83500002094E73F8010F02DE9F04722
:1016700004460D4616461F464FF00008D4F8589011
:1016800000BF94F83400012802D10220BDE8F087A1
:10169000012084F8340000BF94F8350001282BD1D4
:1016A000022084F83500002060653B46324629461A
:1016B0002046FFF720FB94F85C103F208840C9F8D3
:1016C00008002068006840F0160021680860206863
:1016D000406940F0800021684861206C28B1206892
:1016E000006840F00800216808602068006840F049
:1016F00001002168086006E000BF002084F8340083
:1017000000BF4FF002084046C0E7000070B5044635
:1017100000F08EFA06462546681C10B10448007891
:10172000054400BF00F084FA801BA842FAD370BDC4
:10173000A40000202DE9F04104460E4601270025B3
:1017400000BF2548007E012802D10220BDE8F081BB
:1017500001202149087600BF4CF25030FFF748FCC9
:101760000746002F31D1401E3060206801280FD17C
:10177000207C6168FFF77AFB4CF25030FFF738FCB1
:1017800007461648006820F00400144908601AE073
:10179000A56812E0217C2846FFF7FEFA4CF2503093
:1017A000FFF726FC07460D48006820F0FA000B49B9
:1017B00008600FB1356005E06D1CD4E902100844E3
:1017C000A842E7D800BFFFF715FB00BF0020024981
:1017D000087600BF3846B9E714180020103C0240D4
:1017E0000348006840F0004001490860002070474D
:1017F000103C02402DE9F04106460F4614461D46B6
:101800004FF0010800BF1F48007E012802D10220CE
:10181000BDE8F08101201B49087600BF4CF2503032
:10182000FFF7E6FB8046B8F1000F23D126B9E1B2FD
:101830003846FFF733FB12E0012E04D1A1B238463F
:10184000FFF754FB0BE0022E04D121463846FFF788
:1018500061FB04E022462B463846FFF731FB4CF291
:101860005030FFF7C5FB80460748006820F00100B4
:101870000549086000BF00200249087600BF4046C5
:10188000C6E7000014180020103C0240002009495F
:10189000096801F0004159B10749064A0C3A116044
:1018A000064911600349096801F0004101B10120B6
:1018B00070470000103C024023016745AB89EFCD23
:1018C000F0B50C46002500220023002181E001260E
:1018D00006FA01F504EA0502AA4279D106684FEA40
:1018E000410C032707FA0CF7BE430660CF0800F14E
:1018F000200656F827604F074FEAD76C0F2707FAE4
:101900000CF7BE434FEAD10C00F1200747F82C60DA
:1019100086684FEA410C032707FA0CF7BE4386603E
:10192000476801268E40B7434760C6684FEA410CBE
:10193000032707FA0CF7BE43C660284E8F0856F8F7
:1019400027308E07370F0F26BE403340244EB0425B
:1019500001D1002614E0234EB04201D101260FE050
:10196000214EB04201D102260AE0204EB04201D100
:10197000032605E01E4EB04201D1042600E00726F2
:101980008F073F0FBE409E4222D18E07370F0F2692
:1019900006FA07F3114E8F0856F827609E430F4F43
:1019A0004FEA910C47F82C60124E36689643114F5F
:1019B0003E603E1D366896433F1D3E603E1D3668C4
:1019C00096433F1D3E603E1D366896433F1D3E6078
:1019D000491C1029FFF47BAFF0BD0000083801401E
:1019E000000002400004024000080240000C0240D7
:1019F00000100240003C014010B504460548007844
:101A0000012806D100220121034800F00BF900BF94
:101A1000FEE710BD000000200004024010B504469F
:101A200004480068204020B1024804602046FFF7C7
:101A3000E3FF10BD143C0140F8B503460A460025FB
:101A4000002400200021CDE0012606FA01F51668E9
:101A500006EA0504AC4273D15668022E02D05668DD
:101A6000122E13D1CF0803F1200656F827004E0797
:101A7000F70E0F26BE40B0434F07FF0E1669BE405B
:101A80003043CF0803F1200646F8270018684F00BE
:101A90000326BE40B043167906F003064F00BE4051
:101AA000304318605668012E08D05668022E05D0C3
:101AB0005668112E02D05668122E13D198684F0026
:101AC0000326BE40B0434F00D668BE403043986006
:101AD000586801268E40B0431679C6F300168E4032
:101AE00030435860D8684F000326BE40B0434F00D3
:101AF0009668BE403043D860566806F08056B6F10E
:101B0000805F6ED100BF00260096384E366846F4DE
:101B10008046364F3E603E46366806F48046009664
:101B200000BF00BF324E8F0856F827008E07370FD0
:101B30000F26BE40B0432F4EB34202D1002615E01F
:101B40004FE02D4EB34201D101260FE02B4EB342A0
:101B500001D102260AE02A4EB34201D1032605E054
:101B6000284EB34201D1042600E007268F073F0F1D
:101B7000BE4030431E4E8F0846F82700224E306884
:101B8000A043566806F48036B6F5803F00D1204366
:101B90001D4E3060361D3068A043566806F400368E
:101BA000B6F5003F00D12043174E361D3060361D7C
:101BB0003068A043566806F48016B6F5801F00D141
:101BC0002043114E08363060361D3068A0435668F9
:101BD00006F40016B6F5001F00D120430A4E0C365D
:101BE0003060491C1029FFF42FAFF8BD4438024083
:101BF0000838014000000240000402400008024092
:101C0000000C024000100240003C014002461369F3
:101C10000B400BB1012000E00020704742694A40B0
:101C2000426170470AB1816101E00B048361704732
:101C300001480068704700009C00002005490968C1
:101C400001600449091D09684160024908310968B9
:101C500081607047107AFF1F0348006803490978C4
:101C600008440149086070479C000020A40000203F
:101C700010B50D48006840F400700B490860084634
:101C8000006840F4806008600846006840F4807096
:101C90000860032000F0AEF8002000F007F800F024
:101CA0002BF8002010BD0000003C024070B5044637
:101CB0000E4800784FF47A71B1FBF0F00C490968D6
:101CC000B1FBF0F5284602F044FB08B1012070BDDD
:101CD000102C07D200222146501E00F04CF8054877
:101CE000046001E00120F2E70020F0E7A4000020FA
:101CF000A8000020A000002008B500BF0020009030
:101D00000E48006840F480400C49086008460068AE
:101D100000F48040009000BF00BF00BF0020009092
:101D2000081F006840F08050091F086008460068DE
:101D300000F08050009000BF00BF08BD4438024052
:101D400000BF00F01F0201219140034A430942F8FD
:101D5000231000BF7047000080E100E000BF00F0EA
:101D60001F02012191404209920002F1E022C2F8D3
:101D7000001100BF70472DE9F05F80460D46164602
:101D8000002703F025FE074639462A46334601F070
:101D90000700C0F1070ABAF1040F02D94FF0040A94
:101DA00001E0C0F1070AD14600F1040ABAF1070FB9
:101DB00002D24FF0000A01E0A0F1030AD4464FF02E
:101DC000010A0AFA09FAAAF1010A0AEA020A0AFA57
:101DD0000CFA4FF0010B0BFA0CFBABF1010B0BEA09
:101DE000030B4AEA0B042146404603F0F9FDBDE827
:101DF000F09F000000BF00F00702064B19684FF685
:101E0000FF031940044B0B4343EA0221014B1960C5
:101E100000BF70470CED00E00000FA0502461068B4
:101E2000416200207047F0B50346144600250022A9
:101E30001868426A21B942EA04401E68B06219E09B
:101E40001868806A02EB1042002508E0186800F567
:101E5000827050F8250002EB1042681CC5B2481E83
:101E6000A842F3DC42EA0447186800F582704E1E6F
:101E700040F826700020F0BD10B50446D4F8EC03FD
:101E800006F020FC10BD70B504460D46C5EBC50339
:101E900004F1380101EB8301CA682946D4F8EC0348
:101EA00006F060FB70BD70B504460D46C5EBC5037A
:101EB00004F5FC7101EB8301CA682946D4F8EC03F0
:101EC00006F0BDFB70BD10B50446D4F8EC0306F077
:101ED000FCFB10BD70B504460D4605F0800080285F
:101EE00008D105F07F00C0EBC00104F1380000EB21
:101EF000810607E005F07F00C0EBC00104F5FC702F
:101F000000EB810605F07F00307005F08000C0090D
:101F1000707000BF94F8B803012801D1022070BD91
:101F2000012084F8B80300BF3146206807F0BAF9F1
:101F300000BF002084F8B80300BF00BFEFE770B512
:101F400004460D4605F08000802808D105F07F008A
:101F5000C0EBC00104F1380000EB810605E0C5EBE1
:101F6000C50104F5FC7000EB81060020B07005F09F
:101F70007F003070C5F3C010707000BF94F8B803D4
:101F8000012801D1022070BD012084F8B80300BFF0
:101F90003146206807F0FAFB00BF002084F8B80340
:101FA00000BF00BFEFE770B504460D4600BF94F8D0
:101FB000B803012801D1022070BD012084F8B803C4
:101FC00000BF05F08000802805D105F07F01206862
:101FD00007F0ECFD02E0206807F0D2FD00BF002012
:101FE00084F8B80300BF00BFE6E7024601F00F0027
:101FF000C0EBC00302F5FC7000EB8300008B80B2E5
:1020000070472DE9F04705460E4690461F464FF0B3
:10201000000906F08000802808D106F07F00C0EBA0
:10202000C00105F1380000EB810407E006F07F00F5
:10203000C0EBC00105F5FC7000EB810406F07F00E9
:10204000207006F08000C0096070C4F80880E77056
:10205000607808B12078E080022F01D10020207143
:1020600000BF95F8B803012802D10220BDE8F0872F
:10207000012085F8B80300BF2146286807F030F832
:1020800000BF002085F8B80300BF4846EEE72DE901
:10209000F04104460E461746984606F07F00C0EB16
:1020A000C00104F5FC7000EB8105EF60C5F81480F9
:1020B0000020A861687006F07F0028702069012860
:1020C00000D12F6106F07F0028B9227C29462068C4
:1020D00007F064FA04E0227C2946206807F0E0FB60
:1020E0000020BDE8F08170B504460D4605F0800083
:1020F000802808D105F07F00C0EBC00104F1380052
:1021000000EB810605E0C5EBC50104F5FC7000EBB2
:1021100081060120B07005F07F003070C5F3C0105B
:10212000707000BF94F8B803012801D1022070BD7F
:10213000012084F8B80300BF3146206807F06AFB2D
:1021400005F07F0028B9217C04F56F72206807F044
:10215000FBFA00BF002084F8B80300BF00BFE6E729
:102160002DE9F04104460E461746984606F07F00DA
:10217000C0EBC00104F1380000EB8105EF60C5F849
:1021800014800020A8610120687006F07F0028708C
:102190002069012800D12F6106F07F0028B9227C38
:1021A0002946206807F0FAF904E0227C29462068D5
:1021B00007F076FB0020BDE8F08100002DE9FC5F10
:1021C000044626684FF0000B002001908146002550
:1021D00000908046F74F206807F022FD00286CD160
:1021E000206807F055FD08B9BDE8FC9F206807F09E
:1021F0004FFD00F00200022805D12068406900F080
:10220000020021684861206807F042FD00F40020C8
:10221000B0F5002F7ED10025206807F00FFD01905A
:1022200075E0019800F0010000286CD0E9B2206848
:1022300007F023FD814609F00100E8B3012106F50E
:10224000306000EB45108160206901282BD1C5EB7F
:10225000C50104F5FC7000EB8100816806F5306073
:1022600000EB45100069C0F31200091AC5EBC50266
:1022700004F5FC7000EB82008161C5EBC50104F53B
:10228000FC7000EB8100C5EBC502C16804F5FC7071
:1022900000EB820080680144C5EBC50204F5FC70C8
:1022A00000EB8200C160E9B22046FFF7FCFD206927
:1022B000012811D105B901E00EE0B2E2C5EBC5017C
:1022C00004F5FC7000EB8100406928B904F56F72D9
:1022D0000121206807F038FA09F00800082808D121
:1022E000204600F0E7FB082106F5306000EB4510C2
:1022F000816009F01000102805D1102106F530602A
:1023000000EB451081606D1C019840080190019818
:10231000002800E000E084D1206807F0B9FC00F458
:102320008020B0F5802F7DD1206807F07EFC0190E1
:10233000002585E0019800F0010000287CD0E9B27A
:10234000206807F084FC814609F00100F0B3012009
:10235000A840009040F6340080590099884340F628
:1023600034018851012106F5106000EB45108160B1
:102370002069012815D1C5EBC50104F1380000EB37
:102380008100C5EBC502C16804F1380000EB820092
:1023900080680144C5EBC50204F1380000EB8200FF
:1023A000C160E9B22046FFF76EFD2069012810D117
:1023B00065B9C5EBC50104F1380000EB8100406947
:1023C00020B904F56F720121206800E001E007F0F8
:1023D000BBF909F00800082805D1082106F51060AE
:1023E00000EB4510816009F01000102805D1102184
:1023F00006F5106000EB4510816009F040004028B0
:1024000005D1402106F5106000EB4510816009F010
:102410000200022805D1022106F5106000EB4510EC
:10242000816001E010E007E009F08000802803D11E
:102430002946204603F068FC6D1C01984008019075
:10244000019800287FF476AF206807F021FC00F0A7
:102450000040B0F1004F10D140F60400805920F048
:10246000010140F604008151204600F0FCFA20688A
:10247000406900F0004021684861206807F008FCCE
:1024800000F40060B0F5006F0ED140F608008059EE
:1024900000F0010010B1204600F030FB20684069D8
:1024A00000F4006021684861206807F0F1FB00F447
:1024B0008050B0F5805F5CD140F60400805920F078
:1024C000010140F6040081511021206807F06EFBE5
:1024D0004FF0000B0CE0FF2106F5106000EB4B10F5
:1024E000816006F5306000EB4B1081600BF1010B51
:1024F00060685845EFD84FF0FF3140F61800815121
:10250000001D805940F0011140F61C008151206BE4
:1025100070B1D6F8840840F00B01C6F8841840F674
:102520004400805940F00B0140F6440081510EE018
:1025300040F61400805940F00B0140F61400815120
:10254000001F805940F00B014FF401608151D6F813
:10255000000820F4FE60C6F80008217C04F56F72C4
:10256000206807F0F1F82068406900F48050216885
:102570004861206807F08CFB00F40050B0F5005F64
:102580006FD1206806F00EFE2068C06820F47050FD
:102590002168C860206807F021FB68B90021E1606C
:1025A0004FF4007161612068C06840F410502168E8
:1025B000C86084E00095BA0A0321E16040216161AE
:1025C00000F076FB07469848874209D39748874230
:1025D00006D22068C06840F470502168C8606EE080
:1025E0009248874209D39248874206D22068C06841
:1025F00040F460502168C86061E08D48874209D38B
:102600008C48874206D22068C06840F45050216848
:10261000C86054E08748874209D38748874206D27A
:102620002068C06840F440502168C86047E0824894
:10263000874209D38148874206D22068C06840F4A7
:1026400030502168C8603AE07C4887420AD37C4811
:10265000874207D22068C06840F420502168C860D3
:102660002DE035E07648874209D37648874206D286
:102670002068C06840F410502168C8601FE07148AD
:10268000874209D37048874206D22068C06840F468
:1026900000502168C86012E06B48874209D36B483C
:1026A000874206D22068C06840F4E0502168C860C4
:1026B00005E02068C06840F4C0502168C86020462A
:1026C00000F0B8F92068406900F4005021684861C2
:1026D000206807F0DDFA00F01000102845D12068CE
:1026E000806920F0100021688861D6F8208008F009
:1026F0000F00C0EBC00104F5FC7000EB810AC8F3C9
:10270000434002281AD147F6F07008EA000030B3BF
:10271000C8F30A123046DAF80C1007F0BFFAC8F313
:102720000A11DAF80C000844CAF80C00C8F30A11C0
:10273000DAF818000844CAF8180010E0C8F343405B
:1027400006280CD1082204F56F71304607F0A6FA6E
:10275000C8F30A11DAF818000844CAF8180020680B
:10276000806940F0100021688861206807F090FAC5
:1027700000F00800082808D1204600F07BF9206806
:10278000406900F0080021684861206807F080FA7D
:1027900000F48010B0F5801F09D1E9B2204600F0A6
:1027A00057F82068406900F480102168486120686B
:1027B00007F06EFA00F40010B0F5001F09D1E9B27D
:1027C000204600F04EF82068406900F400102168AF
:1027D0004861206807F05CFA00F08040B0F1804F5B
:1027E00008D12046FFF748FB2068406900F0804090
:1027F00021684861206807F04BFA00F004000428C3
:102800000FD12068D0F8048008F00400042802D119
:102810002046FFF758FB2068406840EA080021681E
:10282000486000BFE0E40000C0ACD800C0E1E400B4
:102830000024F40080730601A0491A01002D310123
:1028400040A44C0100366E0120ABA6010048E8010F
:1028500070B504460D462946D4F8EC0305F0C0FFD8
:1028600070BD70B504460D462946D4F8EC0305F05A
:10287000BAFF70BD30B58BB00446002514B90120F5
:102880000BB030BD032084F8B903204600F094F863
:10289000206806F07BFE282204F110016846FDF74F
:1028A00079FF94E80F0006F09FFC0021206807F0F4
:1028B00006FA002530E00121C5EBC50204F138001D
:1028C00000EB82004170C5EBC50204F1380000F84E
:1028D0002250C5EBC50200EB8200C5800021C5EB8C
:1028E000C50204F1380000EB8200C170C5EBC502DF
:1028F00004F1380000EB82008160C5EBC50204F1F1
:10290000380000EB8200C160C5EBC50204F138005D
:1029100000EB820041616D1C0F2DCCD3002536E009
:102920000021C5EBC50204F5FC7000EB820041708C
:10293000C5EBC50204F5FC7000F82250C5EBC502DA
:1029400004F1380000EB8200C580C5EBC50204F538
:10295000FC7000EB8200C170C5EBC50204F5FC7091
:1029600000EB82008160C5EBC50204F5FC7000EB52
:102970008200C160C5EBC50204F5FC7000EB82006B
:102980004161206800F5827040F825106D1C0F2D04
:10299000C6D3282204F110016846FDF7FBFE94E837
:1029A0000F0006F023FD012084F8B903206806F02B
:1029B0000EFD002064E7000010B586B004462068D4
:1029C000B0F1A04F30D14FF4C050019002200290DE
:1029D00000200390032004900A20059001A91348C9
:1029E000FFF72AF800BF1248006840F08000104945
:1029F000086000BF002000900D481030006840F4CF
:102A000080400B49103108600846006800F480409F
:102A1000009000BF00BF00BF002211464320FFF717
:102A2000AAF94320FFF79AF906B010BD0000024052
:102A30003438024070B504460125E06810B1022820
:102A400004D101E0002503E0012501E0012500BFDC
:102A500000BF2946D4F8EC0305F064FFD4F8EC037A
:102A600005F026FF70BD10B50446D4F8EC0305F060
:102A700041FF10BD10B50446D4F8EC0305F041FF4A
:102A800010BD70B504460D4600BF94F8B803012888
:102A900001D1022070BD012084F8B80300BF29468F
:102AA000206807F024F900BF002084F8B80300BFB5
:102AB00000BFEFE710B5044604F56F71D4F8EC03DE
:102AC00005F056FF10BD10B5044600BF94F8B803DA
:102AD000012801D1022010BD012084F8B80300BFF5
:102AE000206806F065FC206807F042F800BF00206F
:102AF00084F8B80300BF00BFEDE7000010B504463E
:102B0000D4F8EC0305F0ABFF2068D0F8000E40F0DD
:102B100001002168C1F8000E206A28B1034800684E
:102B200040F006000149086010BD000010ED00E013
:102B300070B504460D460CB9012070BD58480068B8
:102B400000F00F00A84209D255490D7008460068F0
:102B500000F00F00A84201D00120EEE7207800F03D
:102B6000020002281DD1207800F00400042805D1BD
:102B70004C48006840F4E0504A490860207800F072
:102B80000800082805D14748006840F460404549DE
:102B900008604448006820F0F000A16808434149FB
:102BA0000860207800F00100A8B36068012807D110
:102BB0003C4808380068C0F34040B8B90120BCE781
:102BC0006068022802D06068032807D135480838B9
:102BD0000068C0F3406048B90120AEE731480838CA
:102BE0000068C0F3400008B90120A6E72D4800683E
:102BF00020F00300616808432A490860FFF718F8CD
:102C0000064609E0FFF714F8801B41F2883188423C
:102C100002D9032091E707E02248006800F00C0089
:102C20006168B0EB810FEDD11D48006800F00F0026
:102C3000A84209D91A490D700846006800F00F0033
:102C4000A84201D0012078E7207800F00400042891
:102C500007D11448006820F4E050E16808431149A6
:102C60000860207800F00800082808D10D480068A6
:102C700020F46040216940EAC1000A49086000F080
:102C80003DF808490968C1F30311074A515CC8407F
:102C9000064908600020FFF709F800204DE7000012
:102CA000003C024008380240C0530108A800002040
:102CB0000148006870470000A800002000B5FFF739
:102CC000F7FF04490968C1F38221034A515CC840F7
:102CD00000BD000008380240D053010800B5FFF7DE
:102CE000E7FF04490968C1F34231034A515CC84017
:102CF00000BD000008380240D05301082DE9F0471C
:102D0000002400250026A1462548006800F00C009C
:102D100020B1042805D008283AD105E0DFF88490D6
:102D200039E0DFF8849036E01D48001F006800F0AD
:102D30003F041B48001F006800F4800078B11A4867
:102D40001749091F0968C1F38811A0FB01700146EA
:102D5000224600233846FDF7A9FC05460EE011483F
:102D60000F49091F0968C1F38811A0FB01700146D2
:102D7000224600233846FDF799FC05460848001F07
:102D80000068C0F30140401C4600B5FBF6F902E0C4
:102D9000DFF8109000BF00BF4846BDE8F087000094
:102DA000083802400024F40000127A00F8B5044606
:102DB0000CB90120F8BD207800F00100002874D083
:102DC000F948006800F00C0004280DD0F6480068AF
:102DD00000F00C00082813D1F348001F006800F42D
:102DE0008000B0F5800F0BD1EF4808380068C0F3C1
:102DF0004040002859D06068002856D10120D9E70A
:102E000000BF6068B0F5803F08D1E7480838006827
:102E100040F48030E449083908601EE06068B0F58D
:102E2000A02F0DD1E0480838006840F48020DE492A
:102E3000083908600846006840F4803008600CE0FB
:102E4000D9480838006820F48030D749083908602C
:102E50000846006820F48020086000BF606890B1D8
:102E6000FEF7E6FE054606E0FEF7E2FE401B64289C
:102E700001D903209EE7CC4808380068C0F34040E1
:102E80000028F1D011E0FEF7D3FE054606E0FEF77C
:102E9000CFFE401B642801D903208BE7C2480838C5
:102EA0000068C0F340400028F1D1207800F0020013
:102EB00002285FD1BC48006800F00C0058B1BA4845
:102EC000006800F00C0008281CD1B748001F0068FB
:102ED00000F48000B0B9B44808380068C0F340007E
:102EE00020B1E068012801D0012063E7AE4808382E
:102EF000006820F0F800216940EAC100AA490839B9
:102F0000086037E0E06800B30120A8490860FEF7D8
:102F10008FFE054606E0FEF78BFE401B022801D916
:102F2000032047E7A04808380068C0F340000028A5
:102F3000F1D09D480838006820F0F800216940EA87
:102F4000C10099490839086014E0002097490860D9
:102F5000FEF76EFE054606E0FEF76AFE401B0228FD
:102F600001D9032026E7904808380068C0F34000E4
:102F70000028F1D1207800F0080008282CD16069E1
:102F8000A8B101208A490860FEF752FE054606E016
:102F9000FEF74EFE401B022801D903200AE78248B3
:102FA0006C300068C0F340000028F1D014E000202D
:102FB0007F490860FEF73CFE054606E0FEF738FE56
:102FC000401B022801D90320F4E677486C300068E2
:102FD000C0F340000028F1D1207800F0040004285C
:102FE00070D1002670483830006800F0805090B9E9
:102FF00000BF002000906C483830006840F08050DE
:103000006949383108600846006800F08050009037
:1030100000BF00BF01266748006800F48070B0B9A7
:103020006448006840F4807062490860FEF700FE62
:10303000054606E0FEF7FCFD401B022801D90320EF
:10304000B8E65C48006800F480700028F2D000BF49
:10305000A068012808D154486830006840F0010099
:103060005149683108601DE0A06805280DD14E481F
:103070006830006840F004004B4968310860084639
:10308000006840F0010008600CE0474868300068C4
:1030900020F001004449683108600846006820F0CB
:1030A0000400086000BFA068A8B1FEF7C1FD054696
:1030B00009E0FEF7BDFD401B41F28831884202D98C
:1030C000032077E626E0384868300068C0F3400007
:1030D0000028EED013E0FEF7ABFD054608E0FEF752
:1030E000A7FD401B41F28831884201D9032061E6E7
:1030F0002D4868300068C0F340000028EFD1012E51
:1031000007D129483830006820F0805026493831EE
:10311000086000BFA069B8B32348006800F00C0045
:1031200008285ED0A069022846D100201F49086601
:10313000FEF77EFD054606E0FEF77AFD401B0228FD
:1031400001D9032036E6184808380068C0F340600B
:103150000028F1D1D4E907010843616A40EA8111EE
:103160000122A06AC2EB500041EA00412C20005D20
:1031700041EA00600C49091F086001200B490866FC
:10318000FEF756FD054607E02DE0FEF751FD401B1A
:10319000022801D903200DE6034808380068C0F36F
:1031A00040600028F1D01EE008380240000047428D
:1031B000800E47420070004000200C490866FEF770
:1031C00037FD054606E0FEF733FD401B022801D916
:1031D0000320EFE506480068C0F340600028F2D104
:1031E00001E00120E6E50020E4E5000000004742A0
:1031F0000038024010B50446FDF780FC10BD70B5E4
:103200008AB004460D460026032084F83400606C22
:10321000032820D0B5F5805F04D1A06B40F080502A
:10322000A0631CE0B5F5006F07D1204604F082F8DA
:103230000646A06B3043A06311E03DB9204604F080
:1032400044F80646A06B3043A06308E0A06B40F052
:103250000060A06303E0A06B40F08050A063A06B0F
:1032600040B140F2FF5021688863012084F83400A7
:103270000AB070BD60680490A0680590E068069090
:10328000079560690890A069099007A807C88DE8AC
:103290000700206804A90EC903F0BAF9012084F8D8
:1032A00034000020E4E7704730B503460022586E32
:1032B000020E90090870C2F38300487002F0030008
:1032C0008870586EC0F30742CA70B3F86400C0F348
:1032D00007220A7193F864204A71986E020E4FF625
:1032E000FF7000EA0210C880986EC0F30742C888D9
:1032F00040EA1210C88002F00F0008726820C05A1D
:10330000C0F30722D0094872C2F380108872C2F35A
:103310004010C872C2F30010087300204873586C44
:1033200000283ED19007000D08616820C25C086942
:1033300040EA82000861D86E020E086940EA9210E5
:103340000861C2F3C200087502F007004875D86E24
:10335000C0F3074250098875C2F38200C875900710
:10336000400F08766C20C05AC0F30722087E40EA5E
:10337000D21008760869401C58650C7E586DA41C54
:103380000125A540684358650C7A0120A040986546
:10339000D3E91504640A6043D8654FF400741C66D1
:1033A00030E0586C012821D16820C25C9006800A68
:1033B0000861D86E020E086940EA02200861D86EE2
:1033C000C0F307420869104308616C20C05AC0F37B
:1033D00007220869441C4FF48060A4FB0004586570
:1033E000D8654FF400749C651C660BE040F2FF50FA
:1033F0001C68A063986B40F080509863012083F8AC
:10340000340030BDC2F3801001F8190F9006400E51
:1034100048706C20C25C487840EAD210487002F0D4
:103420007F008870186F020ED009C870C2F3411077
:103430000871C2F3820048719007000F8871186FFD
:10344000C0F30742887940EA92108871C2F34010B5
:10345000C8710020087202F0010048727020C05A42
:10346000C0F30722D0098872C2F38010C872C2F379
:1034700040100873C2F300104873C2F381008873D0
:1034800002F00300C8737020C25C50080874012069
:10349000487419390020B4E70246506C0860906CFB
:1034A0004860D06C8860106DC860506D0861906D88
:1034B0004861D06D8861106EC86100207047F8B512
:1034C000044604260025002000906946204603F0AB
:1034D000E3FE054615B1A06B2843A0630098C0F336
:1034E00043263046F8BD000070B50446002520682C
:1034F000406BC0F30020002863D04FF48070216837
:1035000088632068C06B40F23A3188432168C86301
:10351000206B00F0080048B3206B00F0020018B9DF
:10352000206B00F0200050B1206803F039FA054606
:103530002DB1A06B2843A0632046FFF7B4FE40F2F4
:10354000FF5021688863012084F83400206B00F06C
:10355000010018B9206B00F0020018B1204600F0FD
:10356000A3FBBCE0204600F0A4FBB8E0206B00F019
:1035700080000028F5D0206B00F0200050B12068BA
:1035800003F00EFA05462DB1A06B2843A063204638
:10359000FFF789FE206B00F001000028E1D1206BCD
:1035A00000F002000028DCD12068C06A20F008008A
:1035B0002168C862012084F83400204600F079FBBD
:1035C0008DE02068406BC0F3803038B14FF480400C
:1035D00021688863204603F0E2FE80E02068406BAB
:1035E000C0F3C03038B14FF40040216888632046F2
:1035F00003F03FFE73E02068406B40F23A21084040
:1036000008B1012000E00020002868D02068406B4D
:10361000C0F3400018B1A06B40F00200A063206826
:10362000406BC0F3C00018B1A06B40F00800A0636D
:103630002068406BC0F3401018B1A06B40F0200030
:10364000A0632068406BC0F3001018B1A06B40F07D
:103650001000A0632068406BC0F3402018B1A06B3D
:1036600040F00800A06340F2FF7021688863206882
:10367000C06B40F23A3188432168C863206B00F088
:10368000800010B3206C50B11548216C0865206C87
:10369000FDF742FE10B1206C03F03AFC1FE0E06B36
:1036A00050B11048E16B0865E06BFDF735FEB0B135
:1036B000E06B03F0FEFB12E00020A063012084F821
:1036C00034002046FFF796FD09E0206B00F008006B
:1036D00028B1012084F834002046FFF7E4FD70BDD6
:1036E000116F0008B36E000810B504460CB9012034
:1036F00010BD94F8340020B900202077204600F057
:1037000051F8032084F83400204600F009F8002026
:10371000A0632063012084F834000020E8E7000063
:1037200030B589B004460025002003900490059030
:10373000069007907620089006A807C88DE8070035
:10374000206803A90EC902F063FF00201449086035
:10375000206802F077FF01201149A039C1F8A000CC
:103760000220FDF7D3FF204603F00CFD054645B1CE
:10377000012084F83400A06B2843A063012009B025
:1037800030BD204603F080FC05463DB1012084F8A1
:103790003400A06B2843A0630120F0E70020EEE78F
:1037A000A080254210B586B00446142101A8FDF77B
:1037B00018F85949206888427ED100BF0020009047
:1037C0005648006840F400605449086008460068A4
:1037D00000F40060009000BF00BF00BF0020009018
:1037E0004E481438006840F001004C491439086014
:1037F0000846006800F00100009000BF00BF00BF55
:10380000002000900846006840F00200086008466A
:10381000006800F00200009000BF00BF4FF450703D
:1038200001900220029000200390032004900C20BD
:10383000059001A93A48FEF7FFF848F2A000019070
:103840000220029000200390032004900C20059099
:1038500001A93448FEF7F0F83348344908604FF0C6
:1038600000604860002131488160C1604FF4806190
:10387000016189004161890081612021C1614FF4AA
:103880004031016204214162032181624FF4000151
:10389000C16289100163FDF773FE08B1FDF747FAB5
:1038A00000BF2248E063846300BF1F4848302049BE
:1038B00008604FF0006000E02CE0486040211C48A8
:1038C00081600021C1604FF4806101618900416124
:1038D000890081612021C1614FF4403101620421DE
:1038E0004162032181624FF40001C16289100163CA
:1038F000FDF746FE08B1FDF71AFA00BF0C48206438
:10390000846300BF002211463120FEF734FA3120D3
:10391000FEF724FA06B010BD002C014044380240E6
:103920000000024000040240586402403C030020B2
:103930009C0300202DE9F04F87B004468A4690464C
:103940001E46DDF840900025FEF772F90090AB4668
:103950005746BAF1000F07D1A06B40F00060A0639A
:10396000012007B0BDE8F08F94F8340001287DD124
:103970000020A06308EB0601E06D814205D9A06B31
:1039800040F00070A0630120EBE7032084F83400CE
:1039900000202168C862606C012801D04FEA4828E5
:1039A0004FF40071206802F0ABFE054655B140F2BD
:1039B000FF5021688863A06B2843A063012084F82E
:1039C0003400CEE74FF0FF3001907002029090205B
:1039D000039002200490002005900120069001A988
:1039E000206802F0E3FD012E07D902202063414642
:1039F000206802F0F1FE054606E001202063414602
:103A0000206802F006FF054655B140F2FF502168DC
:103A10008863A06B2843A063012084F83400A0E7EA
:103A20002AE02068406B00F4004068B14FF0000BC2
:103A300006E0206802F00BFE47F82B000BF1010BAB
:103A4000BBF1080FF5D32037B9F1000F05D0FEF711
:103A5000EFF80099401A48450ED340F2FF50216814
:103A60008863A06B40F00040A06300E082E001208A
:103A700084F83400032074E72068406B40F22A3158
:103A800008400028CDD02068406B00F48070A0B1C1
:103A9000012E12D9606C03280FD0206802F080FF3D
:103AA000054655B140F2FF5021688863A06B28435A
:103AB000A063012084F8340053E72068406B00F0D5
:103AC000080058B140F2FF5021688863A06B40F0B5
:103AD0000800A063012084F8340042E72068406BAE
:103AE00000F0020058B140F2FF5021688863A06BDB
:103AF00040F00200A063012084F8340031E7206820
:103B0000406B00F0200058B140F2FF5021688863FC
:103B1000A06B40F02000A063012084F8340020E76F
:103B200019E0206802F093FD38603F1DB9F1000FE5
:103B300005D0FEF77DF80099401A48450BD340F2B6
:103B4000FF5021688863A06B40F00040A063012013
:103B500084F8340005E72068406B00F4001000286A
:103B6000DFD140F2FF5021688863012084F83400DF
:103B70000020F6E6A06B40F00050A0630120F0E6C4
:103B80002DE9F04186B00446884616461D460027BA
:103B9000B8F1000F07D1A06B40F00060A0630120D6
:103BA00006B0BDE8F08194F83400012873D10020FC
:103BB000A0637119E06D814205D9A06B40F00070DF
:103BC000A0630120ECE7032084F834000020216882
:103BD000C8622068C06B40F495702168C8632F48A4
:103BE000E16BC8632E48E16BC8640020E16B086597
:103BF0006A029308226802F180014246E06BFDF7F9
:103C000035FD012027490860606C012800D076024C
:103C10004FF0FF3000906802019090200290022047
:103C2000039000200490012005906946206802F06E
:103C3000BDFC4FF40071206802F062FD074657B1E9
:103C400040F2FF5021688863A06B3843A0630120D5
:103C500084F83400A4E7012D07D98220206331467F
:103C6000206802F0B9FD074606E081202063314656
:103C7000206802F0CEFD07465FB140F2FF50216898
:103C80008863A06B3843A063012084F8340087E781
:103C900001E0002084E7022082E700006D6E00084A
:103CA000116E00088C85254210B50446FCF770FFA4
:103CB00010BD10B50446FCF785FF10BD2DE9F04F8F
:103CC00087B00446884617461E46DDF840B00025FA
:103CD000FDF7AEFF0090A946C246B8F1000F07D12C
:103CE000A06B40F00060A063012007B0BDE8F08F3A
:103CF00094F8340001287DD10020A063B919E06D4B
:103D0000814205D9A06B40F00070A0630120ECE770
:103D1000032084F8340000202168C862606C012808
:103D200000D07F024FF40071206802F0E9FC0546E4
:103D300055B140F2FF5021688863A06B2843A0630F
:103D4000012084F83400D0E7012E07D92020206319
:103D50003946206802F042FE054606E01020206346
:103D60003946206802F057FE054655B140F2FF5033
:103D700021688863A06B2843A063012084F8340085
:103D8000B3E74FF0FF300190700202909020039053
:103D90000020049005900120069001A9206802F0FF
:103DA00005FC2AE02068406B00F4804070B14FF0C1
:103DB000000906E00AEB8901206802F060FC09F1C5
:103DC0000109B9F1080FF5D30AF1200ABBF1000F80
:103DD00005D0FDF72DFF0099401A58450DD340F24C
:103DE000FF5021688863A06B2843A063012084F8FA
:103DF000340000E05EE0032077E72068406B40F28B
:103E00001A3108400028CDD02068406B00F4807043
:103E1000A0B1012E12D9606C03280FD0206802F0E7
:103E2000BFFD054655B140F2FF5021688863A06B85
:103E30002843A063012084F8340056E72068406BD3
:103E400000F0080058B140F2FF5021688863A06B71
:103E500040F00800A063012084F8340045E72068A2
:103E6000406B00F0020058B140F2FF5021688863B7
:103E7000A06B40F00200A063012084F8340034E716
:103E80002068406B00F0100058B140F2FF502168EC
:103E90008863A06B40F01000A063012084F8340018
:103EA00023E740F2FF5021688863012084F8340042
:103EB00000201AE7A06B40F00050A063012014E737
:103EC0002DE9F04186B00446884616461D46002777
:103ED000B8F1000F07D1A06B40F00060A063012093
:103EE00006B0BDE8F08194F83400012872D10020BA
:103EF000A0637119E06D814205D9A06B40F000709C
:103F0000A0630120ECE7032084F83400002021683E
:103F1000C8622068C06B40F01A002168C8632E4850
:103F2000216CC8632D48216CC8640020216C086591
:103F3000606C012800D076024FF40071206802F016
:103F4000DFFB074657B140F2FF5021688863A06B42
:103F50003843A063012084F83400C1E7012D07D95C
:103F6000A02020633146206802F038FD074606E0B5
:103F7000902020633146206802F04DFD074657B17E
:103F800040F2FF5021688863A06B3843A063012092
:103F900084F83400A4E701201149086069028B0805
:103FA000216801F180024146206CFDF75FFB4FF074
:103FB000FF30009068020190902002900020039052
:103FC0000490012005906946206802F0EFFA002075
:103FD00086E7FFE7022083E7FF6E0008116E000806
:103FE0008C85254210B504460CB9012010BD606ACD
:103FF00000B900BF0021A16294F8510028B9002047
:1040000084F85000204600F033F8022084F8510074
:104010002068006820F0400021680860D4E90101B0
:104020000843E16808432169084361690843218B1B
:1040300001F400710843E1690843216A0843A16A59
:104040000843216808600421A06901EA1040616A00
:104050000843216848602068C06920F40060216836
:10406000C86100206065012084F851000020BDE790
:1040700010B586B00446142101A8FCF7B2FB29490B
:10408000206888424CD100BF00200090264800687C
:1040900040F48050244908600846006800F48050CD
:1040A000009000BF00BF00BF002000901E481438E1
:1040B000006840F001001C49143908600846006897
:1040C00000F00100009000BF00BF00BF0020009082
:1040D0000846006840F0020008600846006800F0EA
:1040E0000200009000BF00BFA020019002200290BB
:1040F00000200390032004900520059001A90B489F
:10410000FDF79AFC102001900220029000200390FD
:10411000032004900520059001A90548FDF78CFCBB
:1041200006B010BD0030014044380240000002409B
:10413000000402402DE9FE4F04460D4616461F4678
:10414000DDF830804FF0000A0020029081464FF0E9
:10415000010B019000BF94F85000012802D1022009
:10416000BDE8FE8F012084F8500000BFFDF760FD20
:10417000814694F851A060680290BAF1010F0BD00B
:104180000298B0F5827F04D1A06810B9BAF1040F8B
:1041900002D002200190D2E00DB106B117B9012082
:1041A0000190CCE094F85100012802D1052084F858
:1041B000510000206065A663E787A7872563E7862F
:1041C000A786206460642068006800F040004028F2
:1041D00005D02068006840F0400021680860E06871
:1041E000B0F5006F43D1606810B1E08E012806D1B0
:1041F00028882168C860AD1CE08E401EE0862FE054
:10420000BBF1000F10D0E08E70B12068806800F024
:104210000200022808D128882168C860AD1CE08E01
:10422000401EE0864FF0000BE08F68B12068806888
:1042300000F0010040B12068C0683080B61CE08FFB
:10424000401EE0874FF0010B08F1010040B1FDF77F
:10425000EFFCA0EB0900404502D3032001906EE083
:10426000E08E0028CCD1E08F0028C9D142E0606800
:1042700010B1E08E012806D12878216808736D1CE2
:10428000E08E401EE0862FE0BBF1000F10D0E08EE4
:1042900070B12068806800F00200022808D115F88B
:1042A000010B21680873E08E401EE0864FF0000B82
:1042B000E08F68B12068806800F0010040B120689C
:1042C000C06806F8010BE08F401EE0874FF0010B3D
:1042D00008F1010040B1FDF7ABFCA0EB090040453F
:1042E00002D3032001902AE0E08E0028CCD1E08F99
:1042F0000028C9D14346012202212046CDF8009072
:1043000003F066F910B10320019018E04A464146D7
:10431000204603F049F920B101200190202060657A
:104320000DE0A06850B900BF002000902068C06870
:10433000009020688068009000BF00BF00BF01208F
:1043400084F8510000BF002084F8500000BF01989D
:1043500006E770B504462546681EB0F1807F01D39C
:1043600001200FE0681E4FF0E02148610F214FF05F
:10437000FF3001F035FB00204FF0E021886107207D
:104380000861002070BD70477047024600BF92F878
:104390003800012801D102207047012082F838003E
:1043A00000BF022082F839001068406820F07000D9
:1043B00013685860106840680B68184313685860A9
:1043C0001068806820F0800013689860106880682A
:1043D0004B68184313689860012082F8390000BFC9
:1043E000002082F8380000BF00BFD5E710B50446B2
:1043F0000CB9012010BD94F8390028B9002084F8C8
:104400003800204600F00CF8022084F83900211D05
:10441000206803F0B5FA012084F839000020E9E7AC
:1044200038B504462068B0F1804F18D100BF002095
:1044300000901948006840F00100174908600846DC
:10444000006800F00100009000BF00BF00220121C1
:104450001C20FDF790FC1C20FDF780FC1BE00F49A1
:104460002068884217D100BF002000900A480068E9
:1044700040F00200084908600846006800F00200A9
:10448000009000BF00BF002211461D20FDF773FC05
:104490001D20FDF763FC38BD403802400004004099
:1044A00001460868C06840F001000A68D0600868EA
:1044B000006840F001000A681060002070472DE994
:1044C000F04104460D46002600BF94F8380001284C
:1044D00002D10220BDE8F081012084F8380000BF3D
:1044E000022084F839002068866826F0770626F4D2
:1044F0007F4620688660286850283BD00CDC202846
:1045000060D004DC002853D0102865D155E0302855
:104510005DD0402860D141E0602835D070280DD0B2
:10452000B0F5805F03D0B0F5005F55D115E020688D
:10453000806820F00700216888604EE0D5E902130A
:104540006A68206803F074FA2068866826F07706A7
:1045500046F07706206886603FE0D5E902136A6876
:10456000206803F065FA2068806840F48040216884
:10457000886032E0EA686968206803F06FFA5021C9
:10458000206803F061FA28E0EA686968206803F0AF
:104590007AFA6021206803F057FA1EE0EA68696839
:1045A000206803F05BFA4021206803F04DFA14E024
:1045B0000021206803F048FA0FE01021206803F082
:1045C00043FA0AE02021206803F03EFA05E030219A
:1045D000206803F039FA00E000BF00BF012084F832
:1045E000390000BF002084F8380000BF00BF71E729
:1045F000704710B5044620680069C0F34000D8B188
:104600002068C068C0F34000B0B16FF002002168BC
:104610000861012020762068806900F0030018B14D
:104620002046FFF7E5FF05E0204600F0ADF8204604
:1046300000F0ABF80020207620680069C0F380000D
:10464000D8B12068C068C0F38000B0B16FF004003A
:1046500021680861022020762068806900F440709B
:1046600018B12046FFF7C4FF05E0204600F08CF8A3
:10467000204600F08AF80020207620680069C0F308
:10468000C000D8B12068C068C0F3C000B0B16FF0FE
:10469000080021680861042020762068C06900F0C5
:1046A000030018B12046FFF7A3FF05E0204600F005
:1046B0006BF8204600F069F8002020762068006939
:1046C000C0F30010D8B12068C068C0F30010B0B1CA
:1046D0006FF0100021680861082020762068C0690A
:1046E00000F4407018B12046FFF782FF05E0204635
:1046F00000F04AF8204600F048F8002020762068B4
:10470000006900F0010058B12068C06800F00100A5
:1047100030B16FF0010021680861204600F036F8E2
:1047200020680069C0F3C01058B12068C068C0F3A9
:10473000C01030B16FF08000216808612046FFF79B
:1047400022FE20680069C0F3801058B12068C0685C
:10475000C0F3801030B16FF040002168086120463E
:1047600000F058F820680069C0F3401058B1206884
:10477000C068C0F3401030B16FF0200021680861BC
:104780002046FFF701FE10BD704770470168B1F188
:10479000804F34D11A4909686431194A11601146B1
:1047A0000968B1F57A7F2AD311460968A1F57A71B3
:1047B000116014490978491C124A11701146097890
:1047C0003C291CDB002111700F490978491C0E4A55
:1047D0001170114609783C2911DB002111700B4939
:1047E0000978491C094A117011460978182906DB15
:1047F0000021117006490978491C054A117070475B
:104800000800002006000020050000200400002011
:1048100003000020704710B504460CB9012010BDFC
:10482000242084F83900204600F0EEF80020E063F0
:1048300084F8390084F83A0000BF84F8380000BFDB
:1048400000BFECE7704700002DE9F0470446206800
:1048500005682068C668206847694FF00008C146AF
:1048600005F00F08B8F1000F0AD105F0200038B1AB
:1048700006F0200020B1204603F052F9BDE8F08791
:10488000B8F1000F6DD007F0010018B906F4907070
:10489000002866D005F0010030B106F4807018B130
:1048A000E06B40F00100E06305F0040030B107F078
:1048B000010018B1E06B40F00200E06305F0020077
:1048C00030B107F0010018B1E06B40F00400E06384
:1048D00005F0080030B107F0010018B1E06B40F0BE
:1048E0000800E063E06B68B305F0200028B106F033
:1048F000200010B1204603F013F920684069C0F38E
:104900008019E06B00F0080010B9B9F1000F22D057
:10491000204603F0E5F82068406900F04000B0B19F
:104920002068406920F0400021684861606B50B108
:104930001748616B0865606BFCF7EEFC10B1606BAB
:10494000016D88470CE02046FFF77CFF08E0204619
:10495000FFF778FF04E02046FFF774FF0020E063D4
:104960008CE705F0800030B106F0800018B12046D9
:1049700003F0D8FA82E705F0400030B106F04000BD
:1049800018B1204603F0BCF878E700BF76E70000D6
:10499000CD7A000810B504460CB9012010BDA069FD
:1049A00000B100E000BF94F8390028B9002084F875
:1049B0003800204600F042F8242084F839002068AE
:1049C000C06820F400502168C860204603F0F6F863
:1049D0002068006920F490402168086120684069DF
:1049E00020F02A00216848612068C06840F4005027
:1049F0002168C8600020E063202084F8390084F832
:104A00003A000020CAE7000010B5044608492068B3
:104A100088420CD10748006820F40030054908603E
:104A20000C210548FCF74CFF2620FDF789F910BD45
:104A300000440040403802400000024010B586B0FB
:104A40000446142101A8FBF7CCFE1B4920688842CC
:104A50002FD100BF002000901848006840F40030BB
:104A6000164908600846006800F40030009000BF56
:104A700000BF00BF0020009010481038006840F0D0
:104A800001000E49103908600846006800F0010076
:104A9000009000BF00BF0C20019002200290012076
:104AA0000390032004900720059001A90448FCF717
:104AB000C3FF06B010BD0000004400404038024073
:104AC0000000024010B5034693F83A00202829D18F
:104AD00001B10AB9012010BD00BF93F838000128C8
:104AE00001D10220F7E7012083F8380000BF996266
:104AF0009A85DA850020D863222083F83A0000BF27
:104B0000002083F8380000BF1868406940F00100B9
:104B10001C6860611868C06840F490701C68E060B0
:104B20000020D8E70220D6E710B504464FF4806293
:104B300002490348FFF7C6FF10BD000090050020A2
:104B4000CC0400202DE9F84304460D4616461F46C6
:104B50004FF0000994F8390020285CD105B116B94E
:104B60000120BDE8F88300BF94F83800012801D186
:104B70000220F6E7012084F8380000BF0020E0633F
:104B8000212084F83900FDF753F88146A684E68495
:104B90002BE0E08C401EE084A068B0F5805F16D169
:104BA0004B46002280212046009703F0EFF908B120
:104BB0000320D6E7A846B8F80000C0F30800216833
:104BC0004860206908B9AD1C0FE06D1C0DE04B4634
:104BD000002280212046009703F0D8F908B1032075
:104BE000BFE715F8010B21684860E08C0028D0D1A0
:104BF0004B46002240212046009703F0C7F908B138
:104C00000320AEE7202084F8390000BF002084F89C
:104C1000380000BFA5E70220A3E7704700BFFEE70A
:104C200010B500224FF480711248FCF7FBFF1148C9
:104C3000006820F440200F4908600846006840F4EE
:104C400080200860002249150A48FCF7EBFF02208B
:104C500006F01BFB012211020648FCF7E3FF0220CD
:104C600006F013FB00224FF480710248FCF7DAFFD4
:104C700010BD00000004024010B5012211020448DA
:104C8000FCF7D0FF012251020148FCF7CBFF10BD19
:104C90000004024010B500224FF480711248FCF766
:104CA000C1FF1148006820F440200F490860084601
:104CB000006840F480200860012249150A48FCF78A
:104CC000B1FF022006F0E1FA012211020648FCF7CA
:104CD000A9FF022006F0D9FA00224FF480710248A1
:104CE000FCF7A0FF10BD00000004024070B50546AF
:104CF00000241948006820F440201749086008463D
:104D00000068086000261CE000224FF48071124801
:104D1000FCF788FF022006F0B8FA012211020E48C3
:104D2000FCF780FF6006040E4FF400710A48FCF7A0
:104D30006DFF08B1601CC4B2012006F0A6FA701C19
:104D4000C6B2082EE0DB15B9FFF7A4FF01E0FFF7BC
:104D500067FF204670BD00000004024070B50446A5
:104D60001948006820F44020174908600846006888
:104D700040F480200860002289151348FCF752FF98
:104D800000251DE0E2094FF400710F48FCF74AFFCF
:104D90006006040E022006F078FA012211020A4889
:104DA000FCF740FF022006F070FA00224FF48071F9
:104DB0000548FCF737FF022006F067FA681CC5B209
:104DC000082DDFDB70BD00000004024010B5144860
:104DD000006820F44020124908600846006840F44A
:104DE00080200860012249150D48FCF71BFF0122B5
:104DF00011020B48FCF716FF042006F046FA0022C9
:104E00004FF400710648FCF70DFF042006F03DFA50
:104E100000224FF480710248FCF704FF10BD00002F
:104E20000004024010B51348006820F440201149E6
:104E300008600846006840F4802008600022891558
:104E40000C48FCF7EFFE00224FF400710948FCF714
:104E5000E9FE042006F019FA012211020548FCF7C8
:104E6000E1FE012251020348FCF7DCFE042006F0BB
:104E70000CFA10BD0004024010B500241848006868
:104E800020F44020164908600846006808600122A6
:104E900049151348FCF7C6FE012006F0F6F9012279
:104EA00011020F48FCF7BEFE012006F0EEF907E004
:104EB000601CC4B2FA2C03DDFFF7B4FF012010BD63
:104EC0004FF400710648FCF7A1FE0028F0D1002243
:104ED0004FF480710248FCF7A5FE0020EFE70000C8
:104EE0000004024010B5FFF7C7FE80216B2000F0E0
:104EF000D7F86420FCF70AFC00216B2000F0D0F802
:104F0000032000F08BF8002000F080F8322000F041
:104F1000AAF80021382000F0C3F800216A2000F030
:104F2000BFF80021232000F0BBF88021372000F0DB
:104F3000B7F8752000F013F80446682C0BD1012156
:104F40006B2000F0ADF800216C2000F0A9F83220B1
:104F500000F089F801E0012010BD0020FCE770B5E9
:104F60000446FFF733FFD020FFF7F8FEFFF784FF7A
:104F70002046FFF7F3FEFFF77FFFFFF727FFD12063
:104F8000FFF7ECFEFFF778FF0020FFF7AFFE0546C6
:104F9000FFF748FF284670BD2DE9F04106460F4651
:104FA00014461D46FFF712FF002141EA4601C8B230
:104FB000FFF7D4FEFFF760FF20B1FFF733FF0120BA
:104FC000BDE8F0813846FFF7C9FEFFF755FFFFF750
:104FD000FDFE012101EB4601C8B2FFF7BFFEFFF75E
:104FE0004BFF0DE0012C04D10020FFF77FFE28705D
:104FF00003E00120FFF77AFE2870601EC4B26D1C2A
:10500000002CEFD1FFF70EFF0020D9E710B50446C2
:10501000E006010E1C2000F043F810BD10B5044658
:10502000E006010E1B2000F03BF810BD70B50446F1
:105030000025BC2C01DB012510E0622C01DB0225E0
:105040000CE02A2C01DB032508E0142C01DB0425ED
:1050500004E00A2C01DB052500E0062529461A207C
:1050600000F01EF870BD70B50446B4F57A7F01DD1E
:105070004FF47A74042C00DA04244FF47A7090FB15
:10508000F4F0401EC5B22946192000F009F8054683
:10509000264604EBD671C1F34F00FFF7C7FF70BD82
:1050A00070B505460C46FFF791FED020FFF756FE7F
:1050B000FFF7E2FE18B1FFF7B5FE012070BD2846EC
:1050C000FFF74CFEFFF7D8FE2046FFF747FEFFF73D
:1050D000D3FE18B1FFF7A6FE0120EFE7FFF7A2FE0F
:1050E0000020EBE72DE9F04105460E4617469846AD
:1050F000FFF76CFE002141EA4501C8B2FFF72EFE22
:10510000FFF7BAFE20B1FFF78DFE0120BDE8F08168
:105110003046FFF723FEFFF7AFFE00240CE018F83F
:105120000400FFF71BFEFFF7A7FE18B1FFF77AFE9A
:105130000120EBE7601CC4B2BC42F0DBFFF772FE5B
:105140000020E3E770B50546D5F818424FF4067025
:10515000005D48B94FF40570005928B1607A18B95C
:105160000121284603F03BFC8121284603F037FC4F
:10517000607A022806D11F2304F503720121284614
:1051800003F065FB70BD000070B50546D5F8184208
:105190004FF4047001594FF40C7001514FF4057035
:1051A00001594FF40D7001510121284603F0BCFA5A
:1051B0001F2811D12749D4F80C0288420CD140F2A3
:1051C0001920005D012807DC4815005D012803DB7C
:1051D0004815005D10280DDD40F21920015D2023E7
:1051E0000522284601F0D3F8022060722846FFF716
:1051F000A9FF2EE040F21920015D04F21B2228468F
:1052000000F062FE00280BDA207A052804D1012183
:10521000284600F0B7F81CE02846FFF793FF18E097
:10522000207A022815D0207A012812D0207A03286B
:105230000FD06089002806DD628904F10C01284640
:1052400000F0BEF805E0608918B90021284600F09A
:1052500099F870BD5553424370B506460D46D6F8D1
:105260001842607A022806D18121304603F0B7FB4C
:10527000002060720AE005F08000802806D1607A84
:10528000012803D00121304600F07CF870BD70B5D4
:1052900005460E46D5F81842207A022804D0032885
:1052A00012D0042815D10EE040F21920015D04F25D
:1052B0001B22284600F008FE002803DA01212846B8
:1052C00000F060F806E000BF0021284600F05AF820
:1052D00000E000BF00BF70BD70B505460E46D5F8B2
:1052E0001842207A10B1012813D103E02846FFF7B5
:1052F0004BFF0FE040F21920015D04F21B2228460B
:1053000000F0E2FD002803DA0121284600F03AF817
:1053100000E000BF00BF70BDD0F8181200220A7272
:10532000704770B50546D5F81842002020726072AB
:1053300084F85D0284F85C02D5F81C020168002044
:1053400088470121284603F0CDF98121284603F042
:10535000C9F91F2304F503720121284603F077FAE7
:1053600070BD70B50546D5F81842002020720120A6
:1053700060721F2304F503720121284603F067FAC7
:1053800070BD000070B505460E46D5F818420B48B2
:10539000C4F82C024FF40E700655002020720D2325
:1053A00004F50B728121284603F063FB1F2304F5EB
:1053B00003720121284603F04AFA70BD5553425347
:1053C0002DE9F04106460F461546D6F818424FF42F
:1053D00005700059A84203D24FF40570005900E04F
:1053E000284685B24FF40D700059411B4FF40D70E3
:1053F00001510021001D0155042020722B463A4620
:105400008121304603F035FBBDE8F0811FB5002057
:1054100000900190029003901448154908604FF4E1
:105420008030486000211248816001618161016221
:105430004FF08051C162491081620021C160012199
:10544000C16101634161FBF7CFFE08B1FBF76FFC5F
:105450000120009001900020029069460448FBF76B
:10546000F9FD08B1FBF763FC1FBD000000200140FF
:105470001002002008B500BF00200090124800680C
:1054800040F48000104908600846006800F480007D
:10549000009000BF00BF002211463820FCF76BFCD3
:1054A0003820FCF75BFC002211463B20FCF763FC34
:1054B0003B20FCF753FC002211464520FCF75BFC27
:1054C0004520FCF74BFC08BD3038024010B50749B9
:1054D0000748FBF72DFC07490870012203490648DD
:1054E00006F01EFF0349087010BD000041000020B7
:1054F00080530108400000207C0B002000B587B0DD
:10550000142102A8FBF76DF900BF002001904C4860
:10551000006840F004004A4908600846006800F04E
:105520000400019000BF00BF00BF002001900846AA
:10553000006840F0800008600846006800F08000C5
:10554000019000BF00BF00BF002001900846006826
:1055500040F0010008600846006800F0010001907A
:1055600000BF00BF00BF002001900846006840F067
:10557000020008600846006800F00200019000BFC9
:1055800000BF00224FF4C0412E48FCF74BFB002225
:1055900043F201012C48FCF745FB01224FF4E8617E
:1055A0002948FCF73FFB4FF4C040029001200390D4
:1055B00000200490059002A92248FCF73DFA43F22E
:1055C000010002900120039000200490059002A9A0
:1055D0001D48FCF731FA022002901C48039001207C
:1055E000049002A91848FCF727FA04200290002032
:1055F00003900120049002A91348FCF71DFA4FF410
:10560000E86002900120039004900320059002A915
:105610000D48FCF711FA4FF400400290002003906F
:105620000120049002A90A48FCF706FA002211465C
:105630000720FCF7A0FB0720FCF790FB07B000BD9C
:1056400030380240000802400004024000001110FF
:105650000000024010B5002201212620FCF78BFB40
:105660002620FCF77BFB10BD064807490860002098
:105670004860002104488160C1600161416181612D
:1056800070470000002C0140B802002010B50E4801
:105690000E4908604FF48270486000210B48816019
:1056A000C160016141614FF4007181613821C161C4
:1056B00000210162416281620A21C162FEF792FC0F
:1056C00008B1FBF734FB10BD00300140FC030020A3
:1056D00000B587B0002003900490059006900190DB
:1056E00002904FF080401449086042F27F504860B9
:1056F00000211148816040F2E731C1600021016161
:10570000FEF774FE08B1FBF712FB4FF480500390D4
:1057100003A90948FEF7D3FE08B1FBF708FB0020F8
:105720000190029001A90448FEF72FFE08B1FBF793
:10573000FEFA07B000BD00005404002000B587B099
:105740000020039004900590069001900290144868
:10575000144908600020486000211248816042F628
:10576000DF61C16000210161FEF740FE08B1FBF777
:10577000DEFA4FF48050039003A90A48FEF79FFE1B
:1057800008B1FBF7D4FA202001900020029001A973
:105790000448FEF7FAFD08B1FBF7C9FA07B000BDEF
:1057A000000400409004002010B50022074908487A
:1057B00002F07BFE0749064803F0B9FA064904489F
:1057C00003F006FA024803F07BFB10BD48000020FE
:1057D000E00F0020B40000207C00002000BFFEE7A6
:1057E000704700001CB511A103C9CDE9000101F00B
:1057F000D1FE05226946302000F0B0F80522694646
:10580000102000F055F8002406E01DF80400A5283B
:1058100000D003E0601CC4B2052CF6DB00BF052CF1
:1058200001D001201CBD0020FCE70000A5A5A5A516
:10583000A500000010B500224FF480610448FCF779
:10584000F1F9012240210248FCF7ECF910BD0000FB
:105850000004024010B500224FF480611248FCF7AA
:10586000E1F9052211492A2000F078F801212120D0
:1058700000F096F80121222000F092F8282125203E
:1058800000F08EF82021312000F08AF80F21262028
:1058900000F086F80F21202000F082F8012291020A
:1058A0000148FCF7BFF910BD0004024009050308D8
:1058B0002DE9F04107460D461646002240210C48CE
:1058C000FCF7B0F9384601F04BFE8046002405E0B5
:1058D000FF2001F045FE2855601CC4B2B442F7DB3E
:1058E000012240210248FCF79DF94046BDE8F081C5
:1058F0000004024070B50446002240210848FCF72D
:1059000091F9204601F02CFEFF2001F029FE05460A
:10591000012240210248FCF785F9284670BD0000AD
:105920000004024070B5044601F02AFE0720FFF78C
:10593000E1FF05462946272000F032F805F0400037
:1059400050B1202221466120FFF7B2FFFF21E22063
:1059500000F026F8002070BD0120FCE72DE9F041A1
:1059600007460C461546002240210C48FCF75AF920
:10597000384601F0F5FD8046002605E014F8010BDD
:1059800001F0EEFD701CC6B2AE42F7DB01224021F1
:105990000248FCF747F94046BDE8F08100040240A8
:1059A00070B505460C46002240210848FCF73AF93C
:1059B000284601F0D5FD0646204601F0D1FD012222
:1059C00040210248FCF72EF9304670BD0004024029
:1059D00002480068C0F30220704700000CED00E0B0
:1059E00010B5002807DA0A07140E054A00F00F0365
:1059F0001B1FD45403E00A07130E024A135410BDB0
:105A000018ED00E000E400E070B5002418E004F1B7
:105A1000B000002100F063F90021084600F05FF9B2
:105A20000021102000F05BF9002505E00121002095
:105A300000F055F9681CC5B2802DF7DB601CC4B2BC
:105A4000082CE4DB70BD000010B5012211031048E2
:105A5000FCF7E8F8012005F00FFC012251030C4887
:105A6000FCF7E0F8012005F007FC00224FF400519C
:105A70000748FCF7D7F8012005F0FEFB00224FF4A1
:105A800080510348FCF7CEF8012005F0F5FB10BD6E
:105A90000004024010B5012211030C48FCF7C2F8C3
:105AA000012005F0E9FB00224FF400510748FCF704
:105AB000B9F8012005F0E0FB012251030348FCF78F
:105AC000B1F8012005F0D8FB10BD00000004024031
:105AD00010B5012211030848FCF7A4F8012005F0D5
