:020000040800F2
:1000000020FC012089060008894600083B410008C1
:1000100085460008490B0008DB820008000000004C
:10002000000000000000000000000000E96200087D
:10003000870C000800000000674A00086D63000894
:10004000A3060008A3060008A3060008A3060008EC
:10005000A3060008A3060008A3060008A3060008DC
:10006000A3060008A3060008A3060008A3060008CC
:10007000A3060008A3060008A3060008A3060008BC
:10008000A3060008A3060008A3060008000000005D
:10009000000000000000000000000000A3060008AF
:1000A000A3060008A3060008A3060008A30600088C
:1000B000A306000889640008A3060008A306000838
:1000C000A3060008A3060008A3060008A30600086C
:1000D000A3060008A3060008A3060008000000000D
:1000E000A3060008A3060008A306000800000000FD
:1000F000000000000000000000000000A30600084F
:10010000000000007D520008A3060008A3060008B6
:1001100000000000000000000000000000000000DF
:100120004D0B0008A3060008A30600085D0B00089D
:10013000A30600080000000000000000000000000E
:10014000000000000000000000000000B5490008A9
:10015000A30600086D0B0008A3060008A30600080C
:10016000A3060008A306000800000000000000002D
:10017000000000000000000000000000000000007F
:1001800000000000A30600080000000000000000BE
:10019000A3060008A3060008DFF80CD000F01CFB43
:1001A00000480047AD9F000820FC01202DE9F05FCA
:1001B000DDF828C0DDF830E0DEF8004030F902ABB1
:1001C00004F580590AEB693909F30F0B23F802BBD8
:1001D000CBF1000B0FFA8BFBB1F90070DEF8045085
:1001E00007FB0A55B2F9008008FB0B54CEF800401B
:1001F000B1F90270DEF8084007FB0A44B2F9028048
:1002000008FB0B45CEF80450B1F90470DEF80C5031
:1002100007FB0A55B2F9048008FB0B54CEF80840DE
:10022000B1F90670DEF8104007FB0A44B2F9068007
:1002300008FB0B45CEF80C50B1F90870DEF81450ED
:1002400007FB0A55B2F9088008FB0B54CEF81040A2
:10025000B1F90A70DEF8184007FB0A44B2F90A80C7
:1002600008FB0B45CEF81450B1F90C70DEF81C50A9
:1002700007FB0A55B2F90C8008FB0B54CEF8184066
:10028000B1F90E70DEF8204007FB0A44B2F90E8087
:1002900008FB0B45CEF81C50B1F91070DEF8245065
:1002A00007FB0A55B2F9108008FB0B54CEF820402A
:1002B000B1F9127007FB0AF7B2F9128008FB0BF8CC
:1002C000B844CEF82480BCF1010C7FF475AFBDE8D2
:1002D000F09F2DE9F041DDF81CE0DEF8005030F928
:1002E000028B05F5805708EB673808F30F0622F8F4
:1002F000026BC6F1000636B2B1F90070DEF80440B8
:1003000007FB0645CEF80050B1F90270DEF8085040
:1003100007FB0654CEF80440B1F90470DEF80C4037
:1003200007FB0645CEF80850B1F90670DEF810500C
:1003300007FB0654CEF80C40B1F90870DEF8144003
:1003400007FB0645CEF81050B1F90A70DEF81850D8
:1003500007FB0654CEF81440B1F90C70DEF81C40CF
:1003600007FB0645CEF81850B1F90E70DEF82050A4
:1003700007FB0654CEF81C40B1F91070DEF824409B
:1003800007FB0645CEF82050B1F9127007FB06F7BF
:10039000CEF824705B1EA0D1BDE8F0812DE9F041BC
:1003A0004FF000064FF0000330F9024B31F9027BA9
:1003B00004FB073330F9025B31F9028B05FB08338C
:1003C00030F9024B31F9027B04FB073330F9025B51
:1003D00031F9028B05FB083306EBA3164FF000033F
:1003E00030F9024B31F9027B04FB073330F9025B31
:1003F00031F9028B05FB083330F9024B31F9027BEE
:1004000004FB073330F9025B31F9028B05FB08333B
:1004100006EBA3164FF0000330F9024B31F9027BD3
:1004200004FB073330F9025B31F9028B05FB08331B
:1004300030F9024B31F9027B04FB073330F9025BE0
:1004400031F9028B05FB083306EBA3164FF00003CE
:1004500030F9024B31F9027B04FB073330F9025BC0
:1004600031F9028B05FB083330F9024B31F9027B7D
:1004700004FB073330F9025B31F9028B05FB0833CB
:1004800006EBA3164FF0000330F9024B31F9027B63
:1004900004FB073330F9025B31F9028B05FB0833AB
:1004A00030F9024B31F9027B04FB073330F9025B70
:1004B00031F9028B05FB083306EBA3164FF000035E
:1004C00030F9024B31F9027B04FB073330F9025B50
:1004D00031F9028B05FB083330F9024B31F9027B0D
:1004E00004FB073330F9025B31F9028B05FB08335B
:1004F00006EBA3164FF0000330F9024B31F9027BF3
:1005000004FB073330F9025B31F9028B05FB08333A
:1005100030F9024B31F9027B04FB073330F9025BFF
:1005200031F9028B05FB083306EBA3164FF00003ED
:1005300030F9024B31F9027B04FB073330F9025BDF
:1005400031F9028B05FB083330F9024B31F9027B9C
:1005500004FB073330F9025B31F9028B05FB0833EA
:1005600006EBA3164FF0000330F9024B31F9027B82
:1005700004FB073330F9025B31F9028B05FB0833CA
:1005800030F9024B31F9027B04FB073330F9025B8F
:1005900031F9028B05FB083306EBA3164FF000037D
:1005A00030F9024B31F9027B04FB073330F9025B6F
:1005B00031F9028B05FB083330F9024B31F9027B2C
:1005C00004FB073330F9025B31F9028B05FB08337A
:1005D00006EBA3163046BDE8F08100002DE9F04798
:1005E0004FF00006089A31F9027B31F9028BB0F91D
:1005F0000040B0F9025004FB07F305FB083331F962
:10060000027BB0F9044031F9028BB0F9065004FBCB
:10061000073305FB083331F9027BB0F9084031F9A3
:10062000028BB0F90A5004FB073305FB083331F99C
:10063000027BB0F90C4031F9028BB0F90E5004FB8B
:10064000073305FB083331F9027BB0F9104031F96B
:10065000028BB0F9125004FB073305FB083352F844
:10066000044BC3EB6403012EAEBF73459E46B246F6
:10067000761C202EB7DB0A9BC3F800A00B9BC3F8A7
:1006800000E0BDE8F08700000648804706480047C4
:10069000FEE7FEE7FEE7FEE7FEE7FEE7FEE7FEE732
:1006A000FEE7FEE725640008990100082DE9F05FE8
:1006B0000546002092469B468846064681464024D1
:1006C0001BE0284641464746224600F074F8534650
:1006D0005A46C01A914110D311461846224600F0DE
:1006E0005BF82D1A67EB01084F46224601200021D6
:1006F00000F052F817EB00094E41201EA4F101044E
:10070000DFDC484631462A464346BDE8F09F0000FC
:100710000649074A0868504343F23902104408600A
:1007200040087047014908607047000094010020AC
:100730006D4EC64110B5431A934209D283188818EA
:1007400003E010F8011D03F8011D521EF9D210BD7F
:1007500040EA01039B0703D009E008C9121F08C043
:10076000042AFAD203E011F8013B00F8013B521EC3
:10077000F9D210BDD2B201E000F8012B491EFBD224
:1007800070470022F6E710B513460A46044619469C
:10079000FFF7F0FF204610BD202A04DB203A00FAC4
:1007A00002F1002070479140C2F1200320FA03F3C8
:1007B000194390407047202A04DB203A21FA02F0C6
:1007C0000021704721FA02F3D040C2F1200291408B
:1007D0000843194670470000064C074D06E0E068E4
:1007E00040F0010394E8070098471034AC42F6D378
:1007F000FFF7D6FC84040108A404010870B58C1826
:1008000010F8015B15F0070301D110F8013B2A1124
:1008100006D110F8012B03E010F8016B01F8016B11
:100820005B1EF9D12B0705D40023521E0DD401F80D
:10083000013BFAE710F8013BCB1A921C03E013F8D6
:10084000015B01F8015B521EF9D5A142D8D300200B
:1008500070BD00002DE9F041DDF81CE0DEF800403D
:1008600030F9026B04F5805806EB683808F30F077F
:1008700022F8027BB1F90070DEF8045007FB065441
:10088000CEF80040B1F90270DEF8084007FB0645DB
:10089000CEF80450B1F90470DEF80C5007FB065492
:1008A000CEF80840B1F90670DEF8104007FB0645A7
:1008B000CEF80C50B1F90870DEF8145007FB06545E
:1008C000CEF81040B1F90A70DEF8184007FB064573
:1008D000CEF81450B1F90C70DEF81C5007FB06542A
:1008E000CEF81840B1F90E70DEF8204007FB06453F
:1008F000CEF81C50B1F91070DEF8245007FB0654F6
:10090000CEF82040B1F9127007FB06F7CEF824703C
:100910005B1EA3D1BDE8F08154494A6822F44032FD
:100920004A604A6843681A434A600268526822F47F
:10093000807203685A6002685368026943EA0222BF
:1009400003685A600268526822F0407203685A6075
:100950000268526883681A4303685A6002689268A2
:1009600022F4006203689A6002689268C3681A43BE
:1009700003689A603E4B826A9A4218D00268926875
:1009800022F0706203689A6002689268836A1A4370
:1009900003689A600268926822F0405203689A6085
:1009A00002689268C36A1A4303689A600BE002689F
:1009B000926822F0706203689A600268926822F07E
:1009C000405203689A600268926822F0020203684B
:1009D0009A6002689368826943EA420203689A60F7
:1009E000026AA2B10268526842F4006203685A6067
:1009F0000268526822F4604203685A6002685368D1
:100A0000426A521E43EA423203685A6005E00268B5
:100A1000526822F4006203685A600268D26A22F4C3
:100A200070020368DA620268D36A828B521E43EA5C
:100A300002520368DA620268926822F40072036864
:100A40009A6002689368026B43EA422203689A60E4
:100A50000268926822F4806203689A600268936870
:100A6000426943EA822203689A607047002301408A
:100A70000100000F7047000010B5044621460248EF
:100A800002F0C0FB10BD00004802002010B5044871
:100A900002F0CBFB042801D0012010BD0020FCE7B0
:100AA0004802002010B5002400F014F8012801D0FD
:100AB000012010BD064802F0CDFC044634B94FF4C5
:100AC0000061034802F051FA00B101242046F0E72A
:100AD0004802002008B5012000909DF8000008BDE4
:100AE0002DE9F04104460D461646002733462A46B6
:100AF0002146044802F0FAFE00B101273846BDE85D
:100B0000F081000048020020012001490860704780
:100B1000080000202DE9F04104460D461646002746
:100B200033462A462146044803F080F800B10127E5
:100B30003846BDE8F081000048020020012001494C
:100B4000086070470400002000BFFEE710B50248AF
:100B500000F0A2FB10BD0000E801002010B5024823
:100B600000F09AFB10BD0000CC02002010B5024836
:100B700000F092FB10BD00002C0300200146087815
:100B800010381823B0FBF3F20848805CC865032ACC
:100B900005D908686FF30900001D886503E008683F
:100BA0006FF309008865886D70470000C0ED00088C
:100BB000014600208A6A8B69CBB932B1012A0DD077
:100BC000022A03D0032A10D10EE000BFCB6A03F043
:100BD0008073B3F1807F00D1012007E0CB6AB3F1CD
:100BE000C07F00D1012001E000E000BF34E08B694C
:100BF000B3F5005F1AD132B1012A07D0022A03D01F
:100C0000032A11D10AE000BF01200EE0CB6A03F0F5
:100C10008073B3F1807F00D1012006E0CB6AB3F18D
:100C2000C07F00D1012000E000BF15E032B1012AF1
:100C300005D0022A04D0032A0CD103E000BF00BF74
:100C4000012008E0CB6A03F08073B3F1807F00D10C
:100C5000012000E000BF00BF704730B50468246881
:100C600024F4802405682C60046863608468402C48
:100C700004D10468A2600468E16003E00468A16034
:100C80000468E26030BD7047704730B504460D46D9
:100C900000222946204600F001F830BDF0B5034699
:100CA000012500241148407A01281CDA00200F4E4B
:100CB000767A0E4FB8553846467A001D40F82630F1
:100CC000001F467A083082553E46707A461C7E7276
:100CD000044604F1300008703A2048702F208870D4
:100CE0000020C87000252846F0BD000090120020AA
:100CF00010B5002201B909E0012901D10A0205E07D
:100D0000022901D10A0201E04FF440720E4B1B6828
:100D100023F440730C4C236023461B681343236069
:100D200023461B6823F0F803236023461B68022434
:100D300044EAC0042343044C236023461B6843F465
:100D40008033236010BD0000103C02401C48006846
:100D500000F40070B0B11A48006820F4007018491F
:100D6000086000BF0846006840F40060086008465C
:100D7000006820F40060086000BF0846006840F486
:100D8000007008600E48006800F48060B0B10C4844
:100D9000006820F480600A49086000BF08460068C7
:100DA00040F4805008600846006820F480500860D5
:100DB00000BF0846006840F480600860704700008B
:100DC000003C02400A4A126822F44072084B1A6042
:100DD0001A46126842F004021A601A4612684FF46A
:100DE000803343EA00231A43014B1A607047000026
:100DF000103C0240074A126822F44072054B1A6008
:100E00001A4612681A601A46126842F001021A6005
:100E100001707047103C024010B50949096821F47F
:100E20004071074C21602146096841F440712160FE
:100E30002146096841F0010121600260436010BD54
:100E4000103C0240084A126822F44072064B1A60B5
:100E50001A46126842F480721A601A46126842F00A
:100E600001021A6001807047103C0240084A126873
:100E700022F44072064B1A601A46126842F400725D
:100E80001A601A46126842F001021A600160704747
:100E9000103C02402A48006800F0100040B1294888
:100EA000C06940F010002749C8611020244908603B
:100EB0002348006800F0200040B12248C06940F09B
:100EC00008002049C86120201D4908601C480068AE
:100ED00000F0400040B11B48C06940F004001949CF
:100EE000C8614020164908601548006800F080007D
:100EF00040B11448C06940F002001249C861802026
:100F00000F4908600E48006800F4807048B10D4831
:100F1000C06940F001000B49C8614FF48070084976
:100F200008600748006800F0020040B10548C06949
:100F300040F020000349C861022001490860704761
:100F40000C3C02405012002070B5044600250020E1
:100F50001449C86100F050FD054609E0601C38B135
:100F600024B100F049FD401BA04201D9032070BD0F
:100F70000D48006800F480300028EFD10A4800686E
:100F800000F0010010B10120074908600648006820
:100F900000F4F97018B1FFF77DFF0120E7E70020AA
:100FA000E5E70000501200200C3C024038B5024634
:100FB0000020009000BF92F83C00012801D10220DF
:100FC00038BD012082F83C0000BF0868092816D906
:100FD0001068C0680C780A3C04EB44050724AC4058
:100FE000A0431468E0600C780A3C04EB4404886871
:100FF000A0401468E46820431468E06013E01068BF
:1010000000690C7804EB44050724AC40A043146845
:1010100020610C7804EB44048868A04014682469BB
:101020002043146820614868072817D21068406B75
:101030000C79641E04EB84051F24AC40A0431468A3
:101040006063088880B20C79641E04EB8404A040BD
:101050001468646B20431468606331E048680D28AD
:1010600017D21068006B0C79E41F04EB84051F2471
:10107000AC40A04314682063088880B20C79E41F58
:1010800004EB8404A0401468246B2043146820639C
:1010900016E01068C06A0C790D3C04EB84051F242F
:1010A000AC40A0431468E062088880B20C790D3C23
:1010B00004EB8404A0401468E46A20431468E062EE
:1010C0001A4B1B4C1068A04206D10868122803D1A5
:1010D000586840F480005860154C1068A0421ED13A
:1010E000144C0868A04202D00868112817D158682B
:1010F00040F4000058600F4C0868A0420FD10E4821
:1011000000680E4CB0FBF4F000EB80004000009053
:1011100002E00098401E009000980028F9D100BF1E
:10112000002082F83C0000BF00BF49E700230140D7
:1011300000200140120000107400002040420F0007
:1011400070B5044600250CB9012070BD1549A06A90
:10115000884200D000BF206C30B90020606484F861
:101160003C00204600F020F8206C00F0100088B908
:10117000206C20F4885040F0020020642046FFF7E5
:10118000CBFB00206064206C20F0020040F00100E6
:10119000206400E0012500BF002084F83C0000BF6F
:1011A0002846D2E70100000F10B586B0044614218E
:1011B00001A8FFF7E6FA2949206888424CD100BF10
:1011C000002000902648006840F4807024490860A0
:1011D0000846006800F48070009000BF00BF00BFA8
:1011E000002000901E481438006840F001001C499F
:1011F000143908600846006800F00100009000BF44
:1012000000BF02200190032002900020039001A95A
:10121000144800F001FB144814490860002048609D
:10122000002112488160C1604FF480610161490072
:101230004161890081614911C1614FF4403101620E
:101240000021416200F048F908B1FFF71DFD00BF21
:101250000648A063846300BF06B010BD00200140B3
:10126000443802400000024010640240E8010020BF
:10127000014691F83500022803D0802048650120FE
:101280007047052081F835000868006820F00100EB
:101290000A6810600020F3E7F8B5044600200090CB
:1012A0008C4800684FF41651B0FBF1F7A56D2E681D
:1012B00094F85C1008208840304098B1206800689D
:1012C00000F0040070B12068006820F0040021687C
:1012D000086094F85C1008208840A860606D40F0B9
:1012E0000100606594F85C1001208840304068B1CE
:1012F0002068406900F0800040B194F85C10012043
:101300008840A860606D40F00200606594F85C1051
:1013100004208840304068B12068006800F0020076
:1013200040B194F85C1004208840A860606D40F0E3
:101330000400606594F85C1010208840304078B359
:101340002068006800F0080050B394F85C1010208A
:101350008840A8602068006800F4802080B1206880
:10136000006800F4002028B9206CC8B12046216C28
:10137000884715E0A06C98B12046A16C88470FE023
:101380002068006800F4807028B92068006820F0A8
:10139000080021680860206C10B12046216C884745
:1013A00094F85C10202088403040002865D02068E8
:1013B000006800F0100000285FD094F85C10202036
:1013C0008840A86094F83500052828D12068006876
:1013D00020F01600216808602068406920F0800035
:1013E00021684861206C08B9A06C28B120680068A9
:1013F00020F008002168086094F85C103F208840C5
:10140000A86000BF002084F8340000BF012084F8E9
:101410003500206D10B12046216D8847F8BD206849
:10142000006800F4802080B12068006800F400208B
:1014300028B9606C10B12046616C88471DE0E06BF4
:10144000D8B12046E16B884717E02068006800F4B7
:10145000807068B92068006820F01000216808607A
:1014600000BF002084F8340000BF012084F835005C
:10147000E06B10B12046E16B8847606D38B3606D5A
:1014800000F00100F0B1052084F835002068006804
:1014900020F001002168086000BF0098401C009007
:1014A000B84200D905E02068006800F0010000287B
:1014B000F3D100BF00BF002084F8340000BF01203A
:1014C00084F83500E06C10B12046E16C884700BF1D
:1014D000A4E70000740000202DE9F0410446002537
:1014E00000F08AFA074614B90120BDE8F081606A6D
:1014F00000B100BF00BF002084F8340000BF02200C
:1015000084F835002068006820F001002168086038
:101510000AE000F071FAC01B052805D9202060659B
:10152000032084F83500E0E72068006800F001003F
:101530000028EED12068056821480540D4E9010162
:101540000843E16808432169084361690843A169C8
:101550000843E1690843216A08430543606A042897
:1015600003D1D4E90B0108430543206805602068D6
:10157000456925F00705606A0543606A04280DD1B6
:10158000A06A0543E06A48B12046FFF711FB28B185
:1015900040206065012084F83500A6E72068456199
:1015A0002046FFF7EBFA064694F85C103F2088408F
:1015B000B06000206065012084F83500002094E7C9
:1015C0003F8010F02DE9F04704460D4616461F46B1
:1015D0004FF00008D4F8589000BF94F83400012868
:1015E00002D10220BDE8F087012084F8340000BF5A
:1015F00094F8350001282BD1022084F83500002012
:1016000060653B46324629462046FFF726FB94F8A4
:101610005C103F208840C9F808002068006840F04E
:101620001600216808602068406940F08000216849
:101630004861206C28B12068006840F008002168EB
:1016400008602068006840F001002168086006E03A
:1016500000BF002084F8340000BF4FF0020840466D
:10166000C0E7000070B5044600F0C6F906462546FE
:10167000681C10B104480078054400BF00F0BCF9B4
:10168000801BA842FAD370BD700000202DE9F04104
:1016900004460E460127002500BF2548007E01288C
:1016A00002D10220BDE8F08101202149087600BF67
:1016B0004CF25030FFF748FC0746002F31D1401E56
:1016C0003060206801280FD1207C6168FFF77AFB29
:1016D0004CF25030FFF738FC07461648006820F0FF
:1016E0000400144908601AE0A56812E0217C28462D
:1016F000FFF7FEFA4CF25030FFF726FC07460D4884
:10170000006820F0FA000B4908600FB1356005E071
:101710006D1CD4E902100844A842E7D800BFFFF7C7
:1017200015FB00BF00200249087600BF3846B9E724
:1017300050120020103C02400348006840F0004076
:101740000149086000207047103C02402DE9F0413B
:1017500006460F4614461D464FF0010800BF1F48BD
:10176000007E012802D10220BDE8F08101201B4942
:10177000087600BF4CF25030FFF7E6FB8046B8F128
:10178000000F23D126B9E1B23846FFF733FB12E050
:10179000012E04D1A1B23846FFF754FB0BE0022E14
:1017A00004D121463846FFF761FB04E022462B4670
:1017B0003846FFF731FB4CF25030FFF7C5FB80464F
:1017C0000748006820F001000549086000BF0020BC
:1017D0000249087600BF4046C6E7000050120020CC
:1017E000103C024000200949096801F0004159B14C
:1017F0000749064A0C3A1160064911600349096815
:1018000001F0004101B1012070470000103C02408E
:1018100023016745AB89EFCDF8B503460A4600259D
:10182000002400200021CDE0012606FA01F516680B
:1018300006EA0504AC4273D15668022E02D05668FF
:10184000122E13D1CF0803F1200656F827004E07B9
:10185000F70E0F26BE40B0434F07FF0E1669BE407D
:101860003043CF0803F1200646F8270018684F00E0
:101870000326BE40B043167906F003064F00BE4073
:10188000304318605668012E08D05668022E05D0E5
:101890005668112E02D05668122E13D198684F0048
:1018A0000326BE40B0434F00D668BE403043986028
:1018B000586801268E40B0431679C6F300168E4054
:1018C00030435860D8684F000326BE40B0434F00F5
:1018D0009668BE403043D860566806F08056B6F130
:1018E000805F6ED100BF00260096384E366846F401
:1018F0008046364F3E603E46366806F48046009687
:1019000000BF00BF324E8F0856F827008E07370FF2
:101910000F26BE40B0432F4EB34202D1002615E041
:101920004FE02D4EB34201D101260FE02B4EB342C2
:1019300001D102260AE02A4EB34201D1032605E076
:10194000284EB34201D1042600E007268F073F0F3F
:10195000BE4030431E4E8F0846F82700224E3068A6
:10196000A043566806F48036B6F5803F00D1204388
:101970001D4E3060361D3068A043566806F40036B0
:10198000B6F5003F00D12043174E361D3060361D9E
:101990003068A043566806F48016B6F5801F00D163
:1019A0002043114E08363060361D3068A04356681B
:1019B00006F40016B6F5001F00D120430A4E0C367F
:1019C0003060491C1029FFF42FAFF8BD44380240A5
:1019D00008380140000002400004024000080240B4
:1019E000000C024000100240003C01400AB181613D
:1019F00001E00B04836170470148006870470000F4
:101A0000680000200549096801600449091D09684A
:101A1000416002490831096881607047107AFF1FF0
:101A20000348006803490978084401490860704781
:101A3000680000207000002010B50D48006840F4D8
:101A400000700B4908600846006840F48060086038
:101A50000846006840F480700860032000F0A0F899
:101A6000002000F007F800F02BF8002010BD000067
:101A7000003C024070B504460E4800784FF47A717D
:101A8000B1FBF0F00C490968B1FBF0F5284602F013
:101A90005FF908B1012070BD102C07D20022214649
:101AA000501E00F03EF80548046001E00120F2E716
:101AB0000020F0E770000020740000206C0000207F
:101AC00008B500BF002000900E48006840F4804038
:101AD0000C4908600846006800F48040009000BF90
:101AE00000BF00BF00200090081F006840F0805039
:101AF000091F08600846006800F08050009000BF91
:101B000000BF08BD4438024000BF00F01F020121A1
:101B100091404209920002F1E022C2F8001100BF98
:101B200070472DE9F05F80460D461646002702F00B
:101B3000ADFD074639462A46334601F00700C0F19D
:101B4000070ABAF1040F02D94FF0040A01E0C0F10C
:101B5000070AD14600F1040ABAF1070F02D24FF08A
:101B6000000A01E0A0F1030AD4464FF0010A0AFA84
:101B700009FAAAF1010A0AEA020A0AFA0CFA4FF073
:101B8000010B0BFA0CFBABF1010B0BEA030B4AEA5E
:101B90000B042146404602F081FDBDE8F09F0000A5
:101BA00000BF00F00702064B19684FF6FF0319400B
:101BB000044B0B4343EA0221014B196000BF7047FD
:101BC0000CED00E00000FA050246106841620020BA
:101BD0007047F0B503461446002500221868426A93
:101BE00021B942EA04401E68B06219E01868806AB0
:101BF00002EB1042002508E0186800F5827050F8EA
:101C0000250002EB1042681CC5B2481EA842F3DC56
:101C100042EA0447186800F582704E1E40F82670AC
:101C20000020F0BD10B50446D4F8EC0305F00EF822
:101C300010BD70B504460D46C5EBC50304F138016F
:101C400001EB8301CA682946D4F8EC0304F04EFF87
:101C500070BD70B504460D46C5EBC50304F5FC71B7
:101C600001EB8301CA682946D4F8EC0304F0ABFF0A
:101C700070BD10B50446D4F8EC0304F0EAFF10BDC3
:101C800070B504460D4605F08000802808D105F0A7
:101C90007F00C0EBC00104F1380000EB810607E0D3
:101CA00005F07F00C0EBC00104F5FC7000EB81067D
:101CB00005F07F00307005F08000C009707000BF33
:101CC00094F8B803012801D1022070BD012084F8E6
:101CD000B80300BF3146206805F0A8FD00BF002012
:101CE00084F8B80300BF00BFEFE770B504460D46A7
:101CF00005F08000802808D105F07F00C0EBC0010E
:101D000004F1380000EB810605E0C5EBC50104F5E0
:101D1000FC7000EB81060020B07005F07F00307091
:101D2000C5F3C010707000BF94F8B803012801D14A
:101D3000022070BD012084F8B80300BF314620683E
:101D400005F0E8FF00BF002084F8B80300BF00BF23
:101D5000EFE770B504460D4600BF94F8B8030128BC
:101D600001D1022070BD012084F8B80300BF05F046
:101D70008000802805D105F07F01206806F0DAF99F
:101D800002E0206806F0C0F900BF002084F8B80324
:101D900000BF00BFE6E7024601F00F00C0EBC00342
:101DA00002F5FC7000EB8300008B80B270472DE9D8
:101DB000F04705460E4690461F464FF0000906F0D4
:101DC0008000802808D106F07F00C0EBC00105F13B
:101DD000380000EB810407E006F07F00C0EBC00193
:101DE00005F5FC7000EB810406F07F00207006F022
:101DF0008000C0096070C4F80880E770607808B19E
:101E00002078E080022F01D10020207100BF95F8DA
:101E1000B803012802D10220BDE8F087012085F82F
:101E2000B80300BF2146286805F01EFC00BF002053
:101E300085F8B80300BF4846EEE72DE9F0410446B7
:101E40000E461746984606F07F00C0EBC00104F529
:101E5000FC7000EB8105EF60C5F814800020A861DC
:101E6000687006F07F0028702069012800D12F617A
:101E700006F07F0028B9227C2946206805F052FE32
:101E800004E0227C2946206805F0CEFF0020BDE852
:101E9000F08170B504460D4605F08000802808D119
:101EA00005F07F00C0EBC00104F1380000EB8106B3
:101EB00005E0C5EBC50104F5FC7000EB81060120CF
:101EC000B07005F07F003070C5F3C010707000BFB7
:101ED00094F8B803012801D1022070BD012084F8D4
:101EE000B80300BF3146206805F058FF05F07F00B9
:101EF00028B9217C04F56F72206805F0E9FE00BF67
:101F0000002084F8B80300BF00BFE6E72DE9F041E8
:101F100004460E461746984606F07F00C0EBC00107
:101F200004F1380000EB8105EF60C5F81480002053
:101F3000A8610120687006F07F00287020690128E0
:101F400000D12F6106F07F0028B9227C2946206845
:101F500005F0E8FD04E0227C2946206805F064FFD6
:101F60000020BDE8F08100002DE9FC5F04462668F2
:101F70004FF0000B00200190814600250090804624
:101F8000F74F206806F010F900286CD1206806F0A1
:101F900043F908B9BDE8FC9F206806F03DF900F060
:101FA0000200022805D12068406900F00200216883
:101FB0004861206806F030F900F40020B0F5002FE9
:101FC0007ED10025206806F0FDF8019075E00198AB
:101FD00000F0010000286CD0E9B2206806F011F989
:101FE000814609F00100E8B3012106F5306000EBFD
:101FF00045108160206901282BD1C5EBC50104F58E
:10200000FC7000EB8100816806F5306000EB451044
:102010000069C0F31200091AC5EBC50204F5FC7093
:1020200000EB82008161C5EBC50104F5FC7000EB9B
:102030008100C5EBC502C16804F5FC7000EB8200AD
:1020400080680144C5EBC50204F5FC7000EB82001A
:10205000C160E9B22046FFF7FCFD2069012811D1DB
:1020600005B901E00EE0B2E2C5EBC50104F5FC7074
:1020700000EB8100406928B904F56F7201212068E6
:1020800005F026FE09F00800082808D1204600F0D7
:10209000E7FB082106F5306000EB4510816009F090
:1020A0001000102805D1102106F5306000EB451016
:1020B00081606D1C0198400801900198002800E0A3
:1020C00000E084D1206806F0A7F800F48020B0F585
:1020D000802F7DD1206806F06CF80190002585E006
:1020E000019800F0010000287CD0E9B2206806F0D9
:1020F00072F8814609F00100F0B30120A840009079
:1021000040F6340080590099884340F634018851E4
:10211000012106F5106000EB45108160206901285F
:1021200015D1C5EBC50104F1380000EB8100C5EB0A
:10213000C502C16804F1380000EB820080680144E8
:10214000C5EBC50204F1380000EB8200C160E9B2C2
:102150002046FFF76EFD2069012810D165B9C5EB57
:10216000C50104F1380000EB8100406920B904F595
:102170006F720121206800E001E005F0A9FD09F07F
:102180000800082805D1082106F5106000EB45106D
:10219000816009F01000102805D1102106F51060AB
:1021A00000EB4510816009F04000402805D1402136
:1021B00006F5106000EB4510816009F0020002286E
:1021C00005D1022106F5106000EB4510816001E0A9
:1021D00010E007E009F08000802803D1294620465E
:1021E00002F0F0FB6D1C0198400801900198002856
:1021F0007FF476AF206806F00FF800F00040B0F1F1
:10220000004F10D140F60400805920F0010140F643
:1022100004008151204600F0FCFA2068406900F07B
:10222000004021684861206805F0F6FF00F4006076
:10223000B0F5006F0ED140F60800805900F00100A3
:1022400010B1204600F030FB2068406900F40060C7
:1022500021684861206805F0DFFF00F48050B0F588
:10226000805F5CD140F60400805920F0010140F607
:10227000040081511021206805F05CFF4FF0000B35
:102280000CE0FF2106F5106000EB4B10816006F5B5
:10229000306000EB4B1081600BF1010B606858451A
:1022A000EFD84FF0FF3140F618008151001D8059E2
:1022B00040F0011140F61C008151206B70B1D6F83E
:1022C000840840F00B01C6F8841840F64400805999
:1022D00040F00B0140F6440081510EE040F614003E
:1022E000805940F00B0140F614008151001F8059C5
:1022F00040F00B014FF401608151D6F8000820F442
:10230000FE60C6F80008217C04F56F72206805F0B5
:10231000DFFC2068406900F4805021684861206833
:1023200005F07AFF00F40050B0F5005F6FD120682F
:1023300005F0FCF92068C06820F470502168C8607E
:10234000206805F00FFF68B90021E1604FF40071CB
:1023500061612068C06840F410502168C86084E062
:102360000095BA0A0321E1604021616100F076FB2B
:1023700007469848874209D39748874206D2206883
:10238000C06840F470502168C8606EE0924887428F
:1023900009D39248874206D22068C06840F4605052
:1023A0002168C86061E08D48874209D38C48874224
:1023B00006D22068C06840F450502168C86054E0DC
:1023C0008748874209D38748874206D22068C06879
:1023D00040F440502168C86047E08248874209D3F2
:1023E0008148874206D22068C06840F43050216896
:1023F000C8603AE07C4887420AD37C48874207D2CB
:102400002068C06840F420502168C8602DE035E0A5
:102410007648874209D37648874206D22068C0684A
:1024200040F410502168C8601FE07148874209D30A
:102430007048874206D22068C06840F40050216886
:10244000C86012E06B48874209D36B48874206D2C6
:102450002068C06840F4E0502168C86005E020684A
:10246000C06840F4C0502168C860204600F0B8F948
:102470002068406900F4005021684861206805F038
:10248000CBFE00F01000102845D12068806920F0B4
:10249000100021688861D6F8208008F00F00C0EB9A
:1024A000C00104F5FC7000EB810AC8F34340022828
:1024B0001AD147F6F07008EA000030B3C8F30A12E8
:1024C0003046DAF80C1005F0ADFEC8F30A11DAF860
:1024D0000C000844CAF80C00C8F30A11DAF8180016
:1024E0000844CAF8180010E0C8F3434006280CD18D
:1024F000082204F56F71304605F094FEC8F30A1106
:10250000DAF818000844CAF818002068806940F01A
:10251000100021688861206805F07EFE00F0080048
:10252000082808D1204600F07BF92068406900F0B7
:10253000080021684861206805F06EFE00F48010F4
:10254000B0F5801F09D1E9B2204600F057F82068A5
:10255000406900F4801021684861206805F05CFE45
:1025600000F40010B0F5001F09D1E9B2204600F0D8
:102570004EF82068406900F4001021684861206826
:1025800005F04AFE00F08040B0F1804F08D12046AF
:10259000FFF748FB2068406900F0804021684861EF
:1025A000206805F039FE00F0040004280FD12068EF
:1025B000D0F8048008F00400042802D12046FFF778
:1025C00058FB2068406840EA08002168486000BF66
:1025D000E0E40000C0ACD800C0E1E4000024F40056
:1025E00080730601A0491A01002D310140A44C015D
:1025F00000366E0120ABA6010048E80170B5044624
:102600000D462946D4F8EC0304F0AEFB70BD70B55E
:1026100004460D462946D4F8EC0304F0A8FB70BD2F
:1026200030B58BB00446002514B901200BB030BD85
:10263000032084F8B903204600F094F8206805F0E0
:1026400069FA282204F110016846FEF773F894E84D
:102650000F0005F08DF80021206805F0F4FD00253D
:1026600030E00121C5EBC50204F1380000EB820027
:102670004170C5EBC50204F1380000F82250C5EBEB
:10268000C50200EB8200C5800021C5EBC50204F144
:10269000380000EB8200C170C5EBC50204F13800C0
:1026A00000EB82008160C5EBC50204F1380000EB4D
:1026B0008200C160C5EBC50204F1380000EB820066
:1026C00041616D1C0F2DCCD3002536E00021C5EBF8
:1026D000C50204F5FC7000EB82004170C5EBC50239
:1026E00004F5FC7000F82250C5EBC50204F1380077
:1026F00000EB8200C580C5EBC50204F5FC7000EB61
:102700008200C170C5EBC50204F5FC7000EB8200CD
:102710008160C5EBC50204F5FC7000EB8200C1606E
:10272000C5EBC50204F5FC7000EB82004161206836
:1027300000F5827040F825106D1C0F2DC6D328229D
:1027400004F110016846FDF7F5FF94E80F0005F06D
:1027500011F9012084F8B903206805F0FCF8002085
:1027600064E7000010B586B004462068B0F1A04FC1
:1027700030D14FF4C050019002200290002003900D
:10278000032004900A20059001A91348FFF744F89C
:1027900000BF1248006840F080001049086000BF88
:1027A000002000900D481030006840F480400B4934
:1027B000103108600846006800F48040009000BFB7
:1027C00000BF00BF002211464320FFF7AAF94320B3
:1027D000FFF79AF906B010BD0000024034380240FD
:1027E00070B504460125E06810B1022804D101E06B
:1027F000002503E0012501E0012500BF00BF2946B7
:10280000D4F8EC0304F052FBD4F8EC0304F014FB0E
:1028100070BD10B50446D4F8EC0304F02FFB10BDD6
:1028200010B50446D4F8EC0304F02FFB10BD70B5CE
:1028300004460D4600BF94F8B803012801D10220D8
:1028400070BD012084F8B80300BF2946206805F058
:1028500012FD00BF002084F8B80300BF00BFEFE7FF
:1028600010B5044604F56F71D4F8EC0304F044FB92
:1028700010BD10B5044600BF94F8B803012801D17B
:10288000022010BD012084F8B80300BF206805F0C5
:1028900053F8206805F030FC00BF002084F8B8032E
:1028A00000BF00BFEDE7000010B50446D4F8EC030C
:1028B00004F099FB2068D0F8000E40F00100216878
:1028C000C1F8000E206A28B10348006840F00600F5
:1028D0000149086010BD000010ED00E070B504462D
:1028E0000D460CB9012070BD5848006800F00F007B
:1028F000A84209D255490D700846006800F00F0043
:10290000A84201D00120EEE7207800F00200022862
:102910001DD1207800F00400042805D14C4800683F
:1029200040F4E0504A490860207800F00800082888
:1029300005D14748006840F4604045490860444874
:10294000006820F0F000A168084341490860207841
:1029500000F00100A8B36068012807D13C4808389E
:102960000068C0F34040B8B90120BCE760680228A5
:1029700002D06068032807D1354808380068C0F3E2
:10298000406048B90120AEE7314808380068C0F31C
:10299000400008B90120A6E72D48006820F0030098
:1029A000616808432A490860FFF726F8064609E0EF
:1029B000FFF722F8801B41F28831884202D90320B8
:1029C00091E707E02248006800F00C006168B0EB76
:1029D000810FEDD11D48006800F00F00A84209D911
:1029E0001A490D700846006800F00F00A84201D097
:1029F000012078E7207800F00400042807D114486B
:102A0000006820F4E050E16808431149086020782C
:102A100000F00800082808D10D48006820F4604044
:102A2000216940EAC1000A49086000F01DF8084920
:102A30000968C1F30311074A515CC84006490860A0
:102A40000020FFF717F800204DE70000003C02408F
:102A500008380240C8ED00087400002001480068F2
:102A600070470000740000202DE9F0470024002585
:102A70000026A1462548006800F00C0020B104287B
:102A800005D008283AD105E0DFF8849039E0DFF876
:102A9000849036E01D48001F006800F03F041B488A
:102AA000001F006800F4800078B11A481749091F18
:102AB0000968C1F38811A0FB01700146224600237A
:102AC0003846FDF7F3FD05460EE011480F49091F92
:102AD0000968C1F38811A0FB01700146224600235A
:102AE0003846FDF7E3FD05460848001F0068C0F3BF
:102AF0000140401C4600B5FBF6F902E0DFF81090FB
:102B000000BF00BF4846BDE8F0870000083802401B
:102B10000024F40000127A00F8B504460CB9012034
:102B2000F8BD207800F00100002874D0F948006852
:102B300000F00C0004280DD0F648006800F00C00EE
:102B4000082813D1F348001F006800F48000B0F596
:102B5000800F0BD1EF4808380068C0F340400028D0
:102B600059D06068002856D10120D9E700BF6068BD
:102B7000B0F5803F08D1E7480838006840F480305D
:102B8000E449083908601EE06068B0F5A02F0DD157
:102B9000E0480838006840F48020DE4908390860C1
:102BA0000846006840F4803008600CE0D9480838D6
:102BB000006820F48030D74908390860084600686A
:102BC00020F48020086000BF606890B1FEF714FF19
:102BD000054606E0FEF710FF401B642801D90320DC
:102BE0009EE7CC4808380068C0F340400028F1D088
:102BF00011E0FEF701FF054606E0FEF7FDFE401B73
:102C0000642801D903208BE7C24808380068C0F364
:102C100040400028F1D1207800F0020002285FD166
:102C2000BC48006800F00C0058B1BA48006800F0D9
:102C30000C0008281CD1B748001F006800F4800071
:102C4000B0B9B44808380068C0F3400020B1E0686B
:102C5000012801D0012063E7AE480838006820F061
:102C6000F800216940EAC100AA490839086037E044
:102C7000E06800B30120A8490860FEF7BDFE0546E4
:102C800006E0FEF7B9FE401B022801D9032047E702
:102C9000A04808380068C0F340000028F1D09D48E3
:102CA0000838006820F0F800216940EAC10099491D
:102CB0000839086014E0002097490860FEF79CFE80
:102CC000054606E0FEF798FE401B022801D90320C6
:102CD00026E7904808380068C0F340000028F1D18A
:102CE000207800F0080008282CD16069A8B10120E4
:102CF0008A490860FEF780FE054606E0FEF77CFE86
:102D0000401B022801D903200AE782486C30006882
:102D1000C0F340000028F1D014E000207F49086093
:102D2000FEF76AFE054606E0FEF766FE401B022837
:102D300001D90320F4E677486C300068C0F3400006
:102D40000028F1D1207800F00400042870D100267A
:102D500070483830006800F0805090B900BF002003
:102D600000906C483830006840F080506949383134
:102D700008600846006800F08050009000BF00BF67
:102D800001266748006800F48070B0B964480068A4
:102D900040F4807062490860FEF72EFE054606E0AA
:102DA000FEF72AFE401B022801D90320B8E65C4842
:102DB000006800F480700028F2D000BFA0680128ED
:102DC00008D154486830006840F00100514968312A
:102DD00008601DE0A06805280DD14E4868300068E5
:102DE00040F004004B49683108600846006840F034
:102DF000010008600CE047486830006820F00100DE
:102E00004449683108600846006820F00400086002
:102E100000BFA068A8B1FEF7EFFD054609E0FEF788
:102E2000EBFD401B41F28831884202D9032077E64E
:102E300026E0384868300068C0F340000028EED033
:102E400013E0FEF7D9FD054608E0FEF7D5FD401B6F
:102E500041F28831884201D9032061E62D4868306B
:102E60000068C0F340000028EFD1012E07D12948A7
:102E70003830006820F0805026493831086000BFA3
:102E8000A069B8B32348006800F00C0008285ED0A1
:102E9000A069022846D100201F490866FEF7ACFD54
:102EA000054606E0FEF7A8FD401B022801D90320D5
:102EB00036E6184808380068C0F340600028F1D1B1
:102EC000D4E907010843616A40EA81110122A06A3E
:102ED000C2EB500041EA00412C20005D41EA006055
:102EE0000C49091F086001200B490866FEF784FDA4
:102EF000054607E02DE0FEF77FFD401B022801D9C3
:102F000003200DE6034808380068C0F3406000283D
:102F1000F1D01EE00838024000004742800E4742D0
:102F20000070004000200C490866FEF765FD05466C
:102F300006E0FEF761FD401B022801D90320EFE502
:102F400006480068C0F340600028F2D101E001208B
:102F5000E6E50020E4E500000000474200380240BA
:102F600010B50446FDF786FD10BD70B58AB0044665
:102F70000D460026032084F83400606C032820D01E
:102F8000B5F5805F04D1A06B40F08050A0631CE0D9
:102F9000B5F5006F07D1204603F00AF80646A06B8E
:102FA0003043A06311E03DB9204602F0CCFF064655
:102FB000A06B3043A06308E0A06B40F00060A0630A
:102FC00003E0A06B40F08050A063A06B40B140F2E2
:102FD000FF5021688863012084F834000AB070BD76
:102FE00060680490A0680590E068069007956069A5
:102FF0000890A069099007A807C88DE80700206815
:1030000004A90EC902F042F9012084F8340000201E
:10301000E4E7704730B503460022586E020E90096F
:103020000870C2F38300487002F003008870586E85
:10303000C0F30742CA70B3F86400C0F307220A71F4
:1030400093F864204A71986E020E4FF6FF7000EA02
:103050000210C880986EC0F30742C88840EA121078
:10306000C88002F00F0008726820C05AC0F307221F
:10307000D0094872C2F380108872C2F34010C8723F
:10308000C2F30010087300204873586C00283ED12A
:103090009007000D08616820C25C086940EA820060
:1030A0000861D86E020E086940EA92100861C2F306
:1030B000C200087502F007004875D86EC0F30742D9
:1030C00050098875C2F38200C8759007400F0876D2
:1030D0006C20C05AC0F30722087E40EAD21008765E
:1030E0000869401C58650C7E586DA41C0125A5403C
:1030F000684358650C7A0120A0409865D3E915040F
:10310000640A6043D8654FF400741C6630E0586C64
:10311000012821D16820C25C9006800A0861D86E1F
:10312000020E086940EA02200861D86EC0F3074227
:103130000869104308616C20C05AC0F3072208696F
:10314000441C4FF48060A4FB00045865D8654FF41C
:1031500000749C651C660BE040F2FF501C68A06385
:10316000986B40F080509863012083F8340030BDA4
:10317000C2F3801001F8190F9006400E48706C20C1
:10318000C25C487840EAD210487002F07F00887034
:10319000186F020ED009C870C2F341100871C2F353
:1031A000820048719007000F8871186FC0F30742C2
:1031B000887940EA92108871C2F34010C8710020EB
:1031C000087202F0010048727020C05AC0F3072252
:1031D000D0098872C2F38010C872C2F3401008731D
:1031E000C2F300104873C2F38100887302F0030039
:1031F000C8737020C25C50080874012048741939E3
:103200000020B4E70246506C0860906C4860D06CB7
:103210008860106DC860506D0861906D4861D06D18
:103220008861106EC86100207047F8B50446042616
:103230000025002000906946204602F06BFE0546FE
:1032400015B1A06B2843A0630098C0F34326304615
:10325000F8BD000070B5044600252068406BC0F33F
:103260000020002863D04FF48070216888632068B4
:10327000C06B40F23A3188432168C863206B00F08C
:10328000080048B3206B00F0020018B9206B00F072
:10329000200050B1206802F0C1F905462DB1A06BA5
:1032A0002843A0632046FFF7B4FE40F2FF50216898
:1032B0008863012084F83400206B00F0010018B905
:1032C000206B00F0020018B1204600F0A3FBBCE028
:1032D000204600F0A4FBB8E0206B00F0800000283E
:1032E000F5D0206B00F0200050B1206802F096F974
:1032F00005462DB1A06B2843A0632046FFF789FE49
:10330000206B00F001000028E1D1206B00F00200EA
:103310000028DCD12068C06A20F008002168C8625B
:10332000012084F83400204600F079FB8DE020680D
:10333000406BC0F3803038B14FF48040216888631F
:10334000204602F06AFE80E02068406BC0F3C03087
:1033500038B14FF4004021688863204602F0C7FD71
:1033600073E02068406B40F23A21084008B1012028
:1033700000E00020002868D02068406BC0F34000C7
:1033800018B1A06B40F00200A0632068406BC0F34E
:10339000C00018B1A06B40F00800A0632068406B2B
:1033A000C0F3401018B1A06B40F02000A06320686B
:1033B000406BC0F3001018B1A06B40F01000A06388
:1033C0002068406BC0F3402018B1A06B40F00800AB
:1033D000A06340F2FF70216888632068C06B40F2F0
:1033E0003A3188432168C863206B00F0800010B335
:1033F000206C50B11548216C0865206CFDF738FF32
:1034000010B1206C02F0C2FB1FE0E06B50B110481D
:10341000E16B0865E06BFDF72BFFB0B1E06B02F0EC
:1034200086FB12E00020A063012084F834002046CF
:10343000FFF796FD09E0206B00F0080028B101209D
:1034400084F834002046FFF7E4FD70BD8D5B000872
:103450002F5B000810B504460CB9012010BD94F88C
:10346000340020B900202077204600F051F80320D6
:1034700084F83400204600F009F80020A06320639F
:10348000012084F834000020E8E7000030B589B05E
:1034900004460025002003900490059006900790B4
:1034A0007620089006A807C88DE80700206803A9C1
:1034B0000EC901F0EBFE002014490860206801F0FD
:1034C000FFFE01201149A039C1F8A0000220FEF73B
:1034D000C9F8204602F094FC054645B1012084F865
:1034E0003400A06B2843A063012009B030BD204602
:1034F00002F008FC05463DB1012084F83400A06BC1
:103500002843A0630120F0E70020EEE7A0802542D9
:1035100010B586B00446142101A8FDF732F95949C7
:10352000206888427ED100BF002000905648006885
:1035300040F40060544908600846006800F40060E8
:10354000009000BF00BF00BF002000904E4814381C
:10355000006840F001004C491439086008460068D2
:1035600000F00100009000BF00BF00BF00200090ED
:103570000846006840F0020008600846006800F055
:103580000200009000BF00BF4FF450700190022075
:10359000029000200390032004900C20059001A9C4
:1035A0003A48FEF739F948F2A00001900220029053
:1035B00000200390032004900C20059001A93448BA
:1035C000FEF72AF93348344908604FF0006048603C
:1035D000002131488160C1604FF480610161890040
:1035E0004161890081612021C1614FF44031016254
:1035F00004214162032181624FF40001C1628910FC
:103600000163FDF769FF08B1FDF73EFB00BF2248EB
:10361000E063846300BF1F484830204908604FF0D2
:10362000006000E02CE0486040211C4881600021DF
:10363000C1604FF48061016189004161890081614D
:103640002021C1614FF44031016204214162032114
:1036500081624FF40001C16289100163FDF73CFFF4
:1036600008B1FDF711FB00BF0C482064846300BF64
:10367000002211463120FEF754FA3120FEF744FAB9
:1036800006B010BD002C014044380240000002404A
:103690000004024058640240CC0200202C030020A9
:1036A0002DE9F04F87B004468A4690461E46DDF865
:1036B00040900025FEF7A0F90090AB465746BAF1BE
:1036C000000F07D1A06B40F00060A063012007B09D
:1036D000BDE8F08F94F8340001287DD10020A0636C
:1036E00008EB0601E06D814205D9A06B40F0007047
:1036F000A0630120EBE7032084F834000020216858
:10370000C862606C012801D04FEA48284FF400716C
:10371000206801F033FE054655B140F2FF502168A4
:103720008863A06B2843A063012084F83400CEE7AF
:103730004FF0FF3001907002029090200390022021
:103740000490002005900120069001A9206801F056
:103750006BFD012E07D9022020634146206801F04D
:1037600079FE054606E0012020634146206801F00D
:103770008EFE054655B140F2FF5021688863A06B6C
:103780002843A063012084F83400A0E72AE02068E1
:10379000406B00F4004068B14FF0000B06E0206879
:1037A00001F093FD47F82B000BF1010BBBF1080F63
:1037B000F5D32037B9F1000F05D0FEF71DF90099B8
:1037C000401A48450ED340F2FF5021688863A06B31
:1037D00040F00040A06300E082E0012084F8340063
:1037E000032074E72068406B40F22A31084000282B
:1037F000CDD02068406B00F48070A0B1012E12D9AA
:10380000606C03280FD0206801F008FF054655B111
:1038100040F2FF5021688863A06B2843A063012019
:1038200084F8340053E72068406B00F0080058B17A
:1038300040F2FF5021688863A06B40F00800A0634D
:10384000012084F8340042E72068406B00F0020059
:1038500058B140F2FF5021688863A06B40F002002D
:10386000A063012084F8340031E72068406B00F049
:10387000200058B140F2FF5021688863A06B40F0EF
:103880002000A063012084F8340020E719E02068BC
:1038900001F01BFD38603F1DB9F1000F05D0FEF7A8
:1038A000ABF80099401A48450BD340F2FF5021680D
:1038B0008863A06B40F00040A063012084F83400CE
:1038C00005E72068406B00F400100028DFD140F2CB
:1038D000FF5021688863012084F834000020F6E658
:1038E000A06B40F00050A0630120F0E62DE9F0410C
:1038F00086B00446884616461D460027B8F1000FDC
:1039000007D1A06B40F00060A063012006B0BDE8C5
:10391000F08194F83400012873D10020A06371195C
:10392000E06D814205D9A06B40F00070A0630120DA
:10393000ECE7032084F8340000202168C862206886
:10394000C06B40F495702168C8632F48E16BC86371
:103950002E48E16BC8640020E16B08656A02930899
:10396000226802F180014246E06BFDF72BFE012048
:1039700027490860606C012800D076024FF0FF30C4
:103980000090680201909020029002200390002095
:103990000490012005906946206801F045FC4FF431
:1039A0000071206801F0EAFC074657B140F2FF5071
:1039B00021688863A06B3843A063012084F8340039
:1039C000A4E7012D07D9822020633146206801F049
:1039D00041FD074606E0812020633146206801F062
:1039E00056FD07465FB140F2FF5021688863A06B27
:1039F0003843A063012084F8340087E701E0002009
:103A000084E7022082E70000E95A00088D5A000886
:103A10008C85254210B50446FDF776F810BD10B52B
:103A20000446FDF78BF810BD2DE9F04F87B0044632
:103A3000884617461E46DDF840B00025FDF7DCFF3E
:103A40000090A946C246B8F1000F07D1A06B40F024
:103A50000060A063012007B0BDE8F08F94F8340047
:103A600001287DD10020A063B919E06D814205D9FC
:103A7000A06B40F00070A0630120ECE7032084F805
:103A8000340000202168C862606C012800D07F02E9
:103A90004FF40071206801F071FC054655B140F209
:103AA000FF5021688863A06B2843A063012084F83D
:103AB0003400D0E7012E07D9202020633946206842
:103AC00001F0CAFD054606E0102020633946206853
:103AD00001F0DFFD054655B140F2FF5021688863D3
:103AE000A06B2843A063012084F83400B3E74FF0B3
:103AF000FF3001907002029090200390002004900B
:103B000005900120069001A9206801F08DFB2AE0B4
:103B10002068406B00F4804070B14FF0000906E06F
:103B20000AEB8901206801F0E8FB09F10109B9F10C
:103B3000080FF5D30AF1200ABBF1000F05D0FDF7FD
:103B40005BFF0099401A58450DD340F2FF502168A1
:103B50008863A06B2843A063012084F8340000E050
:103B60005EE0032077E72068406B40F21A3108409E
:103B70000028CDD02068406B00F48070A0B1012EE9
:103B800012D9606C03280FD0206801F047FD05466C
:103B900055B140F2FF5021688863A06B2843A063B1
:103BA000012084F8340056E72068406B00F00800DC
:103BB00058B140F2FF5021688863A06B40F00800C4
:103BC000A063012084F8340045E72068406B00F0D2
:103BD000020058B140F2FF5021688863A06B40F0AA
:103BE0000200A063012084F8340034E72068406BB1
:103BF00000F0100058B140F2FF5021688863A06BBC
:103C000040F01000A063012084F8340023E740F264
:103C1000FF5021688863012084F8340000201AE7EF
:103C2000A06B40F00050A063012014E72DE9F041A3
:103C300086B00446884616461D460027B8F1000F98
:103C400007D1A06B40F00060A063012006B0BDE882
:103C5000F08194F83400012872D10020A06371191A
:103C6000E06D814205D9A06B40F00070A063012097
:103C7000ECE7032084F8340000202168C862206843
:103C8000C06B40F01A002168C8632E48216CC863DD
:103C90002D48216CC8640020216C0865606C0128E7
:103CA00000D076024FF40071206801F067FB0746F0
:103CB00057B140F2FF5021688863A06B3843A0637E
:103CC000012084F83400C1E7012D07D9A02020632A
:103CD0003146206801F0C0FC074606E090202063D2
:103CE0003146206801F0D5FC074657B140F2FF503D
:103CF00021688863A06B3843A063012084F83400F6
:103D0000A4E701201149086069028B08216801F1CC
:103D100080024146206CFDF755FC4FF0FF300090CB
:103D200068020190902002900020039004900120EE
:103D300005906946206801F077FA002086E7FFE7E2
:103D4000022083E77B5B00088D5A00088C852542A2
:103D500070B504462546681EB0F1807F01D301206E
:103D60000FE0681E4FF0E02148610F214FF0FF3057
:103D700000F094FC00204FF0E021886107200861EA
:103D8000002070BD70477047024600BF92F83800AF
:103D9000012801D102207047012082F8380000BFBD
:103DA000022082F839001068406820F07000136823
:103DB0005860106840680B681843136858601068B2
:103DC000806820F0800013689860106880684B68F5
:103DD000184313689860012082F8390000BF002062
:103DE00082F8380000BF00BFD5E710B504460CB913
:103DF000012010BD94F8390028B9002084F838005B
:103E0000204600F00DF8022084F83900211D2068BA
:103E100002F042FB012084F839000020E9E70000AD
:103E200038B504460E492068884217D100BF0020EB
:103E300000900C48006840F002000A4908600846FB
:103E4000006800F00200009000BF00BF0022114691
:103E50001D20FDF766FE1D20FDF756FE38BD000053
:103E600000040040403802402DE9F04104460D4670
:103E7000002600BF94F83800012802D10220BDE8D6
:103E8000F081012084F8380000BF022084F8390056
:103E90002068866826F0770626F47F4620688660CC
:103EA000286850283BD00CDC202860D004DC002897
:103EB00053D0102865D155E030285DD0402860D11E
:103EC00041E0602835D070280DD0B0F5805F03D078
:103ED000B0F5005F55D115E02068806820F007003C
:103EE000216888604EE0D5E902136A68206802F014
:103EF0002BFB2068866826F0770646F07706206858
:103F000086603FE0D5E902136A68206802F01CFB76
:103F10002068806840F480402168886032E0EA6868
:103F20006968206802F026FB5021206802F018FB27
:103F300028E0EA686968206802F031FB60212068A7
:103F400002F00EFB1EE0EA686968206802F012FBCE
:103F50004021206802F004FB14E00021206802F0F8
:103F6000FFFA0FE01021206802F0FAFA0AE020219F
:103F7000206802F0F5FA05E03021206802F0F0FA3E
:103F800000E000BF00BF012084F8390000BF00201E
:103F900084F8380000BF00BF71E7704710B50446D1
:103FA00020680069C0F34000D8B12068C068C0F341
:103FB0004000B0B16FF00200216808610120207656
:103FC0002068806900F0030018B12046FFF7E5FF84
:103FD00005E0204600F0ADF8204600F0ABF80020E8
:103FE000207620680069C0F38000D8B12068C068DE
:103FF000C0F38000B0B16FF00400216808610220B6
:1040000020762068806900F4407018B12046FFF7E0
:10401000C4FF05E0204600F08CF8204600F08AF846
:104020000020207620680069C0F3C000D8B1206865
:10403000C068C0F3C000B0B16FF00800216808612B
:10404000042020762068C06900F0030018B12046E3
:10405000FFF7A3FF05E0204600F06BF8204600F0D4
:1040600069F80020207620680069C0F30010D8B1FC
:104070002068C068C0F30010B0B16FF01000216874
:104080000861082020762068C06900F4407018B1EB
:104090002046FFF782FF05E0204600F04AF8204660
:1040A00000F048F8002020762068006900F0010048
:1040B00058B12068C06800F0010030B16FF0010015
:1040C00021680861204600F036F820680069C0F3D6
:1040D000C01058B12068C068C0F3C01030B16FF094
:1040E0008000216808612046FFF74CFE20680069C7
:1040F000C0F3801058B12068C068C0F3801030B1A0
:104100006FF0400021680861204600F015F8206833
:104110000069C0F3401058B12068C068C0F3401077
:1041200030B16FF02000216808612046FFF72BFEB8
:1041300010BD704770477047704700BFFEE770B50D
:104140000546D5F818424FF40670005D48B94FF4A3
:104150000570005928B1607A18B90121284602F08B
:1041600002FF8121284602F0FEFE607A022806D175
:104170001F2304F503720121284602F02CFE70BDB6
:1041800070B50546D5F818424FF4047001594FF444
:104190000C7001514FF4057001594FF40D7001512D
:1041A0000121284602F084FD1F2811D12749D4F8A7
:1041B0000C0288420CD140F21920005D012807DC76
:1041C0004815005D012803DB4815005D10280DDD52
:1041D00040F21920015D20230522284600F015FF3A
:1041E000022060722846FFF7AAFF2EE040F2192055
:1041F000015D04F21B22284600F0A4FC00280BDA23
:10420000207A052804D10121284600F0B7F81CE0E7
:104210002846FFF794FF18E0207A022815D0207A6C
:10422000012812D0207A03280FD06089002806DDEB
:10423000628904F10C01284600F0BEF805E06089AF
:1042400018B90021284600F099F870BD5553424333
:1042500070B506460D46D6F81842607A022806D197
:104260008121304602F07FFE002060720AE005F0F6
:104270008000802806D1607A012803D001213046D1
:1042800000F07CF870BD70B505460E46D5F81842B2
:10429000207A022804D0032812D0042815D10EE079
:1042A00040F21920015D04F21B22284600F04AFC6E
:1042B000002803DA0121284600F060F806E000BF7C
:1042C0000021284600F05AF800E000BF00BF70BD92
:1042D00070B505460E46D5F81842207A10B101286F
:1042E00013D103E02846FFF74BFF0FE040F21920FF
:1042F000015D04F21B22284600F024FC002803DAAA
:104300000121284600F03AF800E000BF00BF70BD70
:10431000D0F8181200220A72704770B50546D5F819
:10432000184200202072607284F85D0284F85C02FA
:10433000D5F81C020168002088470121284602F0B8
:1043400095FC8121284602F091FC1F2304F503729D
:104350000121284602F03FFD70BD70B50546D5F835
:10436000184200202072012060721F2304F503729E
:104370000121284602F02FFD70BD000070B50546F2
:104380000E46D5F818420B48C4F82C024FF40E70B4
:104390000655002020720D2304F50B72812128465A
:1043A00002F02BFE1F2304F503720121284602F0C0
:1043B00012FD70BD555342532DE9F04106460F469C
:1043C0001546D6F818424FF405700059A84203D29A
:1043D0004FF40570005900E0284685B24FF40D7087
:1043E0000059411B4FF40D7001510021001D015572
:1043F000042020722B463A468121304602F0FDFD12
:10440000BDE8F0811FB5002000900190029003905C
:104410001448154908604FF4803048600021124864
:1044200081600161816101624FF08051C162491078
:1044300081620021C1600121C16101634161FCF71A
:104440007FFE08B1FCF720FC0120009001900020C5
:10445000029069460448FCF7A9FD08B1FCF714FC7A
:104460001FBD000000200140A001002008B500BFD2
:10447000002000901248006840F480001049086055
:104480000846006800F48000009000BF00BF0022D2
:1044900011463820FDF745FB3820FDF735FB00229B
:1044A00011463B20FDF73DFB3B20FDF72DFB002295
:1044B00011464520FDF735FB4520FDF725FB08BDDE
:1044C0003038024010B503490348FCF7DEFB0349CE
:1044D000087010BD0D00002088ED00080C000020C1
:1044E00000B587B0142102A8FCF74BF900BF0020EB
:1044F00001903048006840F004002E4908600846EA
:10450000006800F00400019000BF00BF00BF002061
:1045100001900846006840F0800008600846006886
:1045200000F08000019000BF00BF00BF002001909C
:104530000846006840F0010008600846006800F086
:104540000100019000BF00BF00BF0020019008469D
:10455000006840F0020008600846006800F00200B1
:10456000019000BF00BF00224FF4C0411248FDF788
:104570003DFA002243F201011048FDF737FA4FF4EB
:10458000C04002900120039000200490059002A9F1
:104590000948FDF741F943F2010002900120039020
:1045A00000200490059002A90448FDF735F907B0F2
:1045B00000BD000030380240000802400004024004
:1045C00006480749086000204860002104488160CF
:1045D000C16001614161816170470000002C0140B0
:1045E0004802002000B587B0002003900490059099
:1045F0000690019002901448144908600020486019
:1046000000211248816042F6DF61C1600021016132
:10461000FFF7EBFB08B1FCF737FB4FF4805003903A
:1046200003A90A48FFF720FC08B1FCF72DFB202066
:1046300001900020029001A90448FFF7A5FB08B1F2
:10464000FCF722FB07B000BD000400408C030020F3
:1046500010B500220749084802F0EBF9074906485F
:1046600002F029FE0649044802F076FD024802F0F5
:10467000EBFE10BD140000201C0A0020800000206A
:104680004800002000BFFEE77047000002480068B5
:10469000C0F30220704700000CED00E010B50028C8
:1046A00007DA0A07140E054A00F00F031B1FD45443
:1046B00003E00A07130E024A135410BD18ED00E080
:1046C00000E400E070B5002418E004F1B00000211F
:1046D00000F063F90021084600F05FF90021102086
:1046E00000F05BF9002505E00121002000F055F9FC
:1046F000681CC5B2802DF7DB601CC4B2082CE4DB5B
:1047000070BD000010B5012211031048FDF76EF9CD
:10471000012004F0A8FB012251030C48FDF766F9C3
:10472000012004F0A0FB00224FF400510748FDF7E0
:104730005DF9012004F097FB00224FF480510348FB
:10474000FDF754F9012004F08EFB10BD0004024077
:1047500010B5012211030C48FDF748F9012004F0BF
:1047600082FB00224FF400510748FDF73FF901207A
:1047700004F079FB012251030348FDF737F90120CA
:1047800004F071FB10BD00000004024010B50122CE
:1047900011030848FDF72AF9012004F064FB002208
:1047A0004FF480510348FDF721F9012004F05BFB31
:1047B00010BD00000004024010B50021AE2000F042
:1047C000ECF80021084600F0E8F80021102000F085
:1047D000E4F80021402000F0E0F80021B02000F0D3
:1047E000DCF80021812000F0D8F80021FF2000F043
:1047F000D4F80021A02000F0D0F80021A62000F07D
:10480000CCF80021A82000F0C8F800213F2000F0DB
:10481000C4F80021C02000F0C0F80021D32000F02F
:10482000BCF80021084600F0B8F80021D52000F0BF
:10483000B4F80021802000F0B0F80021D82000F06A
:10484000ACF80021052000F0A8F80021D92000F0E4
:10485000A4F80021F12000F0A0F80021DA2000F0F7
:104860009CF80021122000F098F80021DB2000F0D5
:1048700094F80021302000F090F800218D2000F005
:104880008CF80021142000F088F80021AF2000F0FF
:1048900084F810BD70B504460D4605F1B000002146
:1048A00000F07BF8102141EA1410002100F075F8A7
:1048B00004F00F00002100F070F870BD2DE9F04702
:1048C00007460E469046994600250024A8F1200090
:1048D000C5B27F2F02DD0027B01CC6B2B9F1100FA0
:1048E00024D131463846FFF7D5FF002408E004EB19
:1048F0000511194A505C012100F04FF8601CC4B248
:10490000082CF4DB701CC1B23846FFF7C3FF00244B
:1049100009E004EB051108310F4A505C012100F059
:104920003CF8601CC4B2082CF3DB12E03146384678
:10493000FFF7B0FF00240AE005EB4501074A02EB50
:104940004101085D012100F028F8601CC4B2062C6A
:10495000F2DBBDE8F087000044F000081CEE000820
:104960002DE9F04104460F461546984600260FE013
:10497000AA5D434639462046FFF7A0FF04F1080030
:10498000C4B2782C02DD0024B81CC7B2701CC6B2B9
:10499000A85D0028ECD1BDE8F08170B504460D4655
:1049A0001DB1E0B203F0F0FC02E0E0B203F0D6FC8F
:1049B00070BD000010B50248FDF7D6FA10BD00002A
:1049C000400C00202DE9F84F07460E46D7F800802E
:1049D0000025AA46C6EBC60107F1380000EB8104AA
:1049E000D4E90501451AA068A84200D2A568E81CD0
:1049F0004FEA900917E0D4E90501451AA068A842DA
:104A000000D2A568E81C4FEA9009387CABB2F2B23C
:104A100000904046E16803F048FCE0682844E0600C
:104A2000A0692844A06108F5106000EB4610806979
:104A300080B2484506D9D4E90510884202D260699F
:104A40000028D8D165B9012000FA06FA40F63400F2
:104A500050F8080020EA0A0040F6340141F8080046
:104A60000020BDE8F88F70472DE9F04104460F465D
:104A700015461E46D4F81882A819D8F86012884244
:104A800009D9212305223946204600F0BEFA4FF00D
:104A9000FF30BDE8F0810020FBE70000F0B50446E0
:104AA0000D46D4F81862507800F0010010B10E4B9A
:104AB00007210CE0D4F81C02C06905EBC50700EB28
:104AC00087031879411D1079884200DC11797181C2
:104AD00005E0481E81B25F5C06F10C0047540029D6
:104AE000F7D10020F0BD0000E0ED000870B50346EE
:104AF0000C4615460821D3F81822518106E0481EBD
:104B000081B20448465C02F10C0046540029F6D1FB
:104B1000002070BDEFED000870B503460C46154649
:104B2000D3F818220821518106E0481E81B20448BA
:104B3000465C02F10C0046540029F6D1002070BDFD
:104B4000E7ED000870B505460E4614462078232888
:104B500045D00DDC1A2836D005DCB0B103281AD0B8
:104B600012285AD11DE01B2821D01E2855D124E03F
:104B70002A2846D004DC252837D028284DD13AE011
:104B80002F2844D05A2848D123E0224631462846CF
:104B900000F060FA70BD22463146284600F0F2F976
:104BA000F8E7224631462846FFF778FFF2E722462B
:104BB0003146284600F046FAECE7224631462846C0
:104BC00000F040FAE6E7224631462846FFF7A4FF08
:104BD000E0E7224631462846FFF788FFDAE722461B
:104BE0003146284600F089F9D4E722463146284666
:104BF00000F043F9CEE722463146284600F0C7F8D8
:104C0000C8E722463146284600F077FAC2E7224636
:104C10003146284600F049FABCE7202305223146F8
:104C2000284600F0F2F94FF0FF30B3E72DE9F047E6
:104C300006460F46D6F81842D4F86802B0F5007F51
:104C400002D2D4F8680201E04FF400700546B4F8CF
:104C50005E02B5FBF0F01FFA80F8B4F85E12D4F8EB
:104C60006402B0FBF1F9D6F81C0243464A4604F14F
:104C70000C01D0F810C03846E047002809DA1123AB
:104C800004223946304600F0C0F94FF0FF30BDE84D
:104C9000F087ABB204F10C028121304602F0ADF98D
:104CA000D4F864022844C4F86402D4F86802401BB3
:104CB000C4F868024FF40D700059411B4FF40D7099
:104CC0000151D4F8680208B9032020720020DEE701
:104CD0002DE9F04706460F46D6F81842D4F8680288
:104CE000B0F5007F02D2D4F8680201E04FF4007002
:104CF0000546B4F85E02B5FBF0F01FFA80F8B4F890
:104D00005E12D4F86402B0FBF1F9D6F81C024346F7
:104D10004A4604F10C01D0F814C03846E047002898
:104D200009DA032304223946304600F06EF94FF0C9
:104D3000FF30BDE8F087D4F864022844C4F8640268
:104D4000D4F86802401BC4F868024FF40D70005993
:104D5000411B4FF40D700151D4F8680220B90021B5
:104D60003046FFF70BFB10E0D4F86802B0F5007F87
:104D700002D2D4F8680201E04FF4007083B204F16B
:104D80000C020121304602F026F80020D1E72DE97F
:104D9000F04106460F461546D6F81842207A0028FC
:104DA00063D14FF40670005D00F0800080280BD0C6
:104DB00040F21920015D20230522304600F025F93C
:104DC0004FF0FF30BDE8F081D6F81C02816838460C
:104DD000884740B13A2302223946304600F015F99F
:104DE0004FF0FF30EEE7A8780006E97840EA01408E
:104DF000297940EA012069790843C4F86402287AD5
:104E0000E97940EA0120C4F86802B4F8680283B284
:104E100039463046D4F86422FFF726FE002802DA2D
:104E20004FF0FF30CEE702202072B4F85E12D4F8C3
:104E300064024843C4F86402B4F85E12D4F868020D
:104E40004843C4F868024FF405700059D4F868125A
:104E500088420AD040F21920015D20230522304605
:104E600000F0D3F84FF0FF30ACE74FF400706081F2
:104E700039463046FFF7DAFEA4E72DE9F041054652
:104E80000E461746D5F81842D5F81C0204F25E22E9
:104E9000911C43683046984748B13A230222314674
:104EA000284600F0B2F84FF0FF30BDE8F081D4F8AA
:104EB0006002401E000E2073D4F86002401E010CF8
:104EC0006173B4F86002401E010AA17394F8600295
:104ED000401EE073B4F85E0201162174B4F85E025D
:104EE00001146174B4F85E020112A17494F85E12A8
:104EF000E174082060810020D7E72DE9FC410546D8
:104F00000F469046D5F81842002605E0002104F12E
:104F10000C008155701C86B20C2EF7DBD5F81C02F4
:104F200001AA694643683846984748B13A230222A5
:104F30003946284600F069F84FF0FF30BDE8FC81A3
:104F40000821E1730098401E010E21740098401E54
:104F5000010C61740098401E010AA1740098401E63
:104F6000E07402212175BDF8040001146175BDF8DB
:104F700004000112A175BDF80400E0750C206081E9
:104F80000020DBE770B504460D46D4F81812002364
:104F900005E0002601F10C00C654581CC3B2122BC8
:104FA000F7DB702008730C26CE7491F85C0291F840
:104FB0005D62B04220D091F85C6201F50F7010F88C
:104FC00036608E7391F85C6200EBC60046790E760F
:104FD00091F85C6201F50F7000EBC60006794E7621
:104FE00091F85C02401C81F85C0291F85C02042894
:104FF00002D1002081F85C02122048811079122829
:1050000001DC10794881002070BDF0B50446D4F869
:10501000180290F85D6200F50F7505F836201E0243
:1050200090F85D7205EBC7056E6090F85D526D1CDF
:1050300080F85D5290F85D52042D02D1002580F871
:105040005D52F0BD10B503460C46D3F8181200208F
:10505000488110BD2DE9F04105460E461746D5F8AA
:1050600018424FF40570005958B140F21920015D03
:10507000202305222846FFF7C8FF4FF0FF30BDE888
:10508000F081D5F81C0281683046884748B13A2340
:10509000022231462846FFF7B8FF05202072801F04
:1050A000EDE70020608100BFE9E72DE9F04105460A
:1050B0000F461646D5F81842707800F00200022814
:1050C00009D12423052239462846FFF79EFF4FF0D9
:1050D000FF30BDE8F081B4F8680283B23946284653
:1050E000D4F86422FFF7C0FC002802DA4FF0FF304A
:1050F000EFE70020608100BFEBE72DE9F0410646B5
:105100000F461546D6F81842207A002870D14FF481
:105110000670005D00F0800080280BD140F219205D
:10512000015D202305223046FFF76FFF4FF0FF306F
:10513000BDE8F081D6F81C0281683846884740B146
:105140003A23022239463046FFF75FFF4FF0FF3027
:10515000EEE7D6F81C02C1683846884740B12723DD
:10516000022239463046FFF750FF4FF0FF30DFE7AD
:10517000A8780006E97840EA0140297940EA012050
:1051800069790843C4F86402287AE97940EA012081
:10519000C4F86802B4F8680283B239463046D4F8DD
:1051A0006422FFF761FC002802DA4FF0FF30BFE70E
:1051B000B4F85E12D4F864024843C4F86402B4F848
:1051C0005E12D4F868024843C4F868024FF40570D0
:1051D0000059D4F8681288420BD040F21920015DC2
:1051E000202305223046FFF710FF4FF0FF309FE7E6
:1051F00013E001202072D4F86802B0F5007F02D2DB
:10520000D4F8680201E04FF4007083B204F10C029C
:105210000121304601F0DFFD04E039463046FFF75A
:1052200057FD85E7002083E710B502460023086894
:10523000506248689062D1E9020420430C6920431F
:105240004C6920430343D06A20F0F7001843D06232
:10525000002010BD01460869C0B2704701460868C9
:1052600000F00300704708B502460020009002F1EC
:105270001400084400900098006808BD10B502486A
:10528000FDF7E8FF10BD0000480200200FB410B584
:1052900004460021DDE903021043059A1043069AF3
:1052A0001043079A1043089A10430143606847F679
:1052B000FF62904308436060002010BC5DF814FB5F
:1052C000014603200860002070470146D1F88000A5
:1052D000704710B50246002308689060D1E90104C8
:1052E0002043CC6820430C6920430343D0686FF30C
:1052F0000B001843D060002010BD02460868C2F8B9
:1053000080000020704770B586B005460C46002628
:1053100001943720029040200390002004904FF425
:105320008060059001A92846FFF7D3FF41F288323B
:105330003721284600F0EAF90646304606B070BD2F
:1053400070B586B005460C4600260B4820430190F8
:105350002920029040200390002004904FF48060A8
:10536000059001A92846FFF7B4FF284600F0CEFAC1
:105370000646304606B070BD0000108070B586B09D
:1053800005460C4600260194102002904020039010
:10539000002004904FF48060059001A92846FFF793
:1053A00098FF41F288321021284600F0AFF90646F6
:1053B000304606B070BD70B586B005460C46002676
:1053C00001940620029040200390002004904FF4A6
:1053D0008060059001A92846FFF77BFF41F28832E3
:1053E0000621284600F092F90646304606B070BD08
:1053F00030B585B004460025002000900190029051
:1054000003904FF48060049069462046FFF761FFE7
:10541000204600F05BF90546284605B030BD30B5A2
:1054200085B0044600254FF4D57000900820019007
:1054300040200290002003904FF480600490694661
:105440002046FFF746FF204600F0E0FA05462846D2
:1054500005B030BD70B586B005460C4600260194F7
:105460001220029040200390002004904FF48060AE
:10547000059001A92846FFF72CFF41F2883212213E
:10548000284600F043F90646304606B070BD70B5B8
:1054900086B005460C46002601941120029040205B
:1054A0000390002004904FF48060059001A92846E5
:1054B000FFF70FFF41F288321121284600F026F94C
:1054C0000646304606B070BDF0B585B006461446B7
:1054D0001D460027009407200190402002900020E4
:1054E00003904FF48060049069463046FFF7F1FE68
:1054F00041F288320721304600F008F90746384665
:1055000005B0F0BD30B585B0044600250020009000
:1055100002200190C0200290002003904FF4806090
:10552000049069462046FFF7D4FE204600F0C0F9FB
:105530000546284605B030BD70B586B005460C4618
:105540000026019409200290C020039000200490BE
:105550004FF48060059001A92846FFF7BAFE28465F
:1055600000F0A6F90646304606B070BD30B585B0ED
:105570000446002500200090332001904020029036
:10558000002003904FF48060049069462046FFF7A6
:10559000A0FE41F288323321204600F0B7F80546DC
:1055A000284605B030BD70B586B005460C460026CD
:1055B00001940D20029040200390002004904FF4AD
:1055C0008060059001A92846FFF783FE41F28832EA
:1055D0000D21284600F09AF80646304606B070BD08
:1055E00070B586B005460C460026002001900320C9
:1055F000029040200390002004904FF480600590BA
:1056000001A92846FFF765FE22460321284600F03F
:10561000A5F90646304606B070BD000030B585B02D
:1056200004460025002000900C20019040200290AC
:10563000002003904FF48060049069462046FFF7F5
:1056400048FE044A0C21204600F060F80546284632
:1056500005B030BD00E1F50570B586B005460C46D5
:10566000002601941920029040200390002004900D
:105670004FF48060059001A92846FFF72AFE41F209
:1056800088321921284600F041F80646304606B017
:1056900070BD70B586B005460C46002601941820F2
:1056A000029040200390002004904FF48060059009
:1056B00001A92846FFF70DFE41F28832182128463D
:1056C00000F024F80646304606B070BD01460E488C
:1056D0000068C0084FF47A73B0FBF3F041F28833EE
:1056E00000FB03F200BF101EA2F1010202D14FF035
:1056F00000407047486B00F080000028F3D040F273
:10570000FF5088630020F4E7740000202DE9F04189
:1057100005460E46174664480068C0084FF47A7183
:10572000B0FBF1F000FB07F800BFB8F10000A8F1F2
:10573000010803D14FF00040BDE8F081686B00F034
:1057400045000028F1D0686B00F0040010B104207F
:10575000A863F1E7686B00F0010010B10120A863B5
:10576000EAE72846FFF776FDB04201D00120E3E7E3
:1057700040F2FF50A86300212846FFF774FD04465D
:105780004A48204008B90020D6E704F00040B0F1B4
:10579000004F02D14FF00070CEE704F08040B0F12E
:1057A000804F01D14020C7E704F00050B0F1005F06
:1057B00001D18020C0E704F08050B0F1805F02D1B9
:1057C0004FF48070B8E704F00060B0F1006F02D1D0
:1057D0004FF40070B0E704F08060B0F1806F02D148
:1057E0004FF48060A8E704F08070B0F1807F02D1B0
:1057F0004FF40060A0E704F40000B0F5000F02D100
:105800004FF4805098E704F48000B0F5800F02D187
:105810004FF4005090E704F40010B0F5001F02D1DF
:105820004FF4804088E704F48010B0F5801F02D167
:105830004FF4004080E704F48020B0F5802F02D1BF
:105840004FF4003078E704F40030B0F5003F02D1A7
:105850004FF4802070E704F48030B0F5803F02D12F
:105860004FF4002068E704F40040B0F5004F02D187
:105870004FF4801060E704F48040B0F5804F02D10F
:105880004FF4001058E704F40050B0F5005F02D167
:105890004FF4800050E704F00800082801D100050B
:1058A0004AE74FF4803047E77400002008E0FFFD2E
:1058B000014615480068C0084FF47A73B0FBF3F056
:1058C00041F2883300FB03F200BF101EA2F1010277
:1058D00002D14FF000407047486B00F045000028AF
:1058E000F3D0486B00F0040010B104208863F2E7A5
:1058F000486B00F0010010B101208863EBE740F233
:10590000FF5088630020E6E774000020014612483B
:105910000068C0084FF47A73B0FBF3F041F28833AB
:1059200000FB03F200BF101EA2F1010202D14FF0F2
:1059300000407047486B00F045000028F3D0486BEA
:1059400000F0040010B104208863F2E740F2FF5039
:1059500088630020EDE70000740000202DE9F0418D
:1059600004460E46174628480068C0084FF47A716E
:10597000B0FBF1F041F2883100FB01F800BFB8F153
:105980000000A8F1010803D14FF00040BDE8F0810C
:10599000606B00F045000028F1D0606B00F004005F
:1059A00010B10420A063F1E7606B00F0010010B1BA
:1059B0000120A063EAE72046FFF74CFCB04201D08B
:1059C0000120E3E740F2FF50A06300212046FFF7EB
:1059D0004AFC054605F4604018B9280C38800020C0
:1059E000D4E705F48040B0F5804F02D14FF4005069
:1059F000CCE705F40040B0F5004F02D14FF48050E1
:105A0000C4E74FF48030C1E7740000200146144819
:105A10000068C0084FF47A73B0FBF3F041F28833AA
:105A200000FB03F200BF101EA2F1010202D14FF0F1
:105A300000407047486B00F045000028F3D0486BE9
:105A400000F0040018B1402088630420F1E7486B9F
:105A500000F0400008B1402088630020E9E7000022
:105A60007400002010B50446012007490870FBF7B8
:105A70000DF828B90448007820F0010002490870A8
:105A80000148007810BD00000000002070B50646F7
:105A9000B46BE06B406D012803D0206C406D012891
:105AA0001ED140F2FF50216888632068C06B20F44B
:105AB0009D702168C863A06B40F08040A0632046C1
:105AC000FDF7B3FB0546062D01D0052D05D1206855
:105AD000FFF7A4FDA16B0843A063012084F8340004
